{
  "contractName": "Faucet",
  "abi": [
    {
      "inputs": [
        {
          "internalType": "address",
          "name": "_token",
          "type": "address"
        }
      ],
      "name": "requestToken",
      "outputs": [],
      "stateMutability": "nonpayable",
      "type": "function"
    }
  ],
  "bytecode": "0x608060405234801561001057600080fd5b50610169806100206000396000f3fe608060405234801561001057600080fd5b506004361061002b5760003560e01c8063a037eca914610030575b600080fd5b6100726004803603602081101561004657600080fd5b81019080803573ffffffffffffffffffffffffffffffffffffffff169060200190929190505050610074565b005b60008190508073ffffffffffffffffffffffffffffffffffffffff1663a9059cbb33683635c9adc5dea000006040518363ffffffff1660e01b8152600401808373ffffffffffffffffffffffffffffffffffffffff16815260200182815260200192505050602060405180830381600087803b1580156100f357600080fd5b505af1158015610107573d6000803e3d6000fd5b505050506040513d602081101561011d57600080fd5b810190808051906020019092919050505050505056fea264697066735822122000764ec0cbaf64e78cf12ecaf26e0082646e1b88f6845ce659276377b05d256264736f6c63430007050033",
  "immutableReferences": {},
  "source": "// SPDX-License-Identifier: MIT\npragma solidity ^0.7.0;\n\nimport \"../../node_modules/@openzeppelin/contracts/token/ERC20/IERC20.sol\";\n\ncontract Faucet {\n  function requestToken(address _token) public {\n    IERC20 token = IERC20(_token);\n    token.transfer(msg.sender, 1000 ether);\n  }\n}\n",
  "sourcePath": "/home/shredder/git/renft/contracts/contracts/mocks/Faucet.sol",
  "compiler": {
    "name": "solc",
    "version": "0.7.5+commit.eb77ed08.Emscripten.clang"
  },
  "schemaVersion": "3.3.1",
  "updatedAt": "2020-11-25T11:44:33.750Z",
  "networkType": "ethereum",
  "devdoc": {
    "kind": "dev",
    "methods": {},
    "version": 1
  },
  "userdoc": {
    "kind": "user",
    "methods": {},
    "version": 1
  }
}