{
  "contractName": "RentNft",
  "abi": [
    {
      "inputs": [
        {
          "internalType": "address",
          "name": "_resolver",
          "type": "address"
        }
      ],
      "stateMutability": "nonpayable",
      "type": "constructor"
    },
    {
      "anonymous": false,
      "inputs": [
        {
          "indexed": true,
          "internalType": "address",
          "name": "nftAddress",
          "type": "address"
        },
        {
          "indexed": true,
          "internalType": "uint256",
          "name": "tokenId",
          "type": "uint256"
        },
        {
          "indexed": true,
          "internalType": "address",
          "name": "borrower",
          "type": "address"
        },
        {
          "indexed": false,
          "internalType": "address",
          "name": "lender",
          "type": "address"
        },
        {
          "indexed": false,
          "internalType": "uint256",
          "name": "borrowedAt",
          "type": "uint256"
        },
        {
          "indexed": false,
          "internalType": "uint256",
          "name": "borrowPrice",
          "type": "uint256"
        },
        {
          "indexed": false,
          "internalType": "uint256",
          "name": "actualDuration",
          "type": "uint256"
        },
        {
          "indexed": false,
          "internalType": "uint256",
          "name": "nftPrice",
          "type": "uint256"
        }
      ],
      "name": "Borrowed",
      "type": "event"
    },
    {
      "anonymous": false,
      "inputs": [
        {
          "indexed": true,
          "internalType": "address",
          "name": "nftAddress",
          "type": "address"
        },
        {
          "indexed": true,
          "internalType": "uint256",
          "name": "tokenId",
          "type": "uint256"
        },
        {
          "indexed": true,
          "internalType": "address",
          "name": "lender",
          "type": "address"
        },
        {
          "indexed": false,
          "internalType": "uint256",
          "name": "maxDuration",
          "type": "uint256"
        },
        {
          "indexed": false,
          "internalType": "uint256",
          "name": "borrowPrice",
          "type": "uint256"
        },
        {
          "indexed": false,
          "internalType": "uint256",
          "name": "nftPrice",
          "type": "uint256"
        }
      ],
      "name": "Lent",
      "type": "event"
    },
    {
      "anonymous": false,
      "inputs": [
        {
          "indexed": true,
          "internalType": "address",
          "name": "previousOwner",
          "type": "address"
        },
        {
          "indexed": true,
          "internalType": "address",
          "name": "newOwner",
          "type": "address"
        }
      ],
      "name": "OwnershipTransferred",
      "type": "event"
    },
    {
      "anonymous": false,
      "inputs": [
        {
          "indexed": true,
          "internalType": "address",
          "name": "nftAddress",
          "type": "address"
        },
        {
          "indexed": true,
          "internalType": "uint256",
          "name": "tokenId",
          "type": "uint256"
        },
        {
          "indexed": true,
          "internalType": "address",
          "name": "borrower",
          "type": "address"
        },
        {
          "indexed": false,
          "internalType": "address",
          "name": "lender",
          "type": "address"
        }
      ],
      "name": "Returned",
      "type": "event"
    },
    {
      "inputs": [
        {
          "internalType": "address",
          "name": "",
          "type": "address"
        },
        {
          "internalType": "uint256",
          "name": "",
          "type": "uint256"
        }
      ],
      "name": "nfts",
      "outputs": [
        {
          "internalType": "address",
          "name": "lender",
          "type": "address"
        },
        {
          "internalType": "address",
          "name": "borrower",
          "type": "address"
        },
        {
          "internalType": "uint256",
          "name": "maxDuration",
          "type": "uint256"
        },
        {
          "internalType": "uint256",
          "name": "actualDuration",
          "type": "uint256"
        },
        {
          "internalType": "uint256",
          "name": "borrowPrice",
          "type": "uint256"
        },
        {
          "internalType": "uint256",
          "name": "borrowedAt",
          "type": "uint256"
        },
        {
          "internalType": "uint256",
          "name": "nftPrice",
          "type": "uint256"
        }
      ],
      "stateMutability": "view",
      "type": "function",
      "constant": true
    },
    {
      "inputs": [],
      "name": "owner",
      "outputs": [
        {
          "internalType": "address",
          "name": "",
          "type": "address"
        }
      ],
      "stateMutability": "view",
      "type": "function",
      "constant": true
    },
    {
      "inputs": [],
      "name": "renounceOwnership",
      "outputs": [],
      "stateMutability": "nonpayable",
      "type": "function"
    },
    {
      "inputs": [],
      "name": "resolver",
      "outputs": [
        {
          "internalType": "contract RentNftAddressProvider",
          "name": "",
          "type": "address"
        }
      ],
      "stateMutability": "view",
      "type": "function",
      "constant": true
    },
    {
      "inputs": [
        {
          "internalType": "address",
          "name": "newOwner",
          "type": "address"
        }
      ],
      "name": "transferOwnership",
      "outputs": [],
      "stateMutability": "nonpayable",
      "type": "function"
    },
    {
      "inputs": [
        {
          "internalType": "address",
          "name": "",
          "type": "address"
        },
        {
          "internalType": "address",
          "name": "",
          "type": "address"
        },
        {
          "internalType": "uint256",
          "name": "",
          "type": "uint256"
        },
        {
          "internalType": "bytes",
          "name": "",
          "type": "bytes"
        }
      ],
      "name": "onERC721Received",
      "outputs": [
        {
          "internalType": "bytes4",
          "name": "",
          "type": "bytes4"
        }
      ],
      "stateMutability": "nonpayable",
      "type": "function"
    },
    {
      "inputs": [
        {
          "internalType": "address",
          "name": "_nftAddress",
          "type": "address"
        },
        {
          "internalType": "uint256",
          "name": "_tokenId",
          "type": "uint256"
        },
        {
          "internalType": "uint256",
          "name": "_maxDuration",
          "type": "uint256"
        },
        {
          "internalType": "uint256",
          "name": "_borrowPrice",
          "type": "uint256"
        },
        {
          "internalType": "uint256",
          "name": "_nftPrice",
          "type": "uint256"
        }
      ],
      "name": "lendOne",
      "outputs": [],
      "stateMutability": "nonpayable",
      "type": "function"
    },
    {
      "inputs": [
        {
          "internalType": "address[]",
          "name": "_nftAddresses",
          "type": "address[]"
        },
        {
          "internalType": "uint256[]",
          "name": "_tokenIds",
          "type": "uint256[]"
        },
        {
          "internalType": "uint256[]",
          "name": "_maxDurations",
          "type": "uint256[]"
        },
        {
          "internalType": "uint256[]",
          "name": "_borrowPrices",
          "type": "uint256[]"
        },
        {
          "internalType": "uint256[]",
          "name": "_nftPrices",
          "type": "uint256[]"
        }
      ],
      "name": "lendMultiple",
      "outputs": [],
      "stateMutability": "nonpayable",
      "type": "function"
    },
    {
      "inputs": [
        {
          "internalType": "address",
          "name": "_borrower",
          "type": "address"
        },
        {
          "internalType": "address",
          "name": "_nftAddress",
          "type": "address"
        },
        {
          "internalType": "uint256",
          "name": "_tokenId",
          "type": "uint256"
        },
        {
          "internalType": "uint256",
          "name": "_actualDuration",
          "type": "uint256"
        }
      ],
      "name": "rentOne",
      "outputs": [],
      "stateMutability": "nonpayable",
      "type": "function"
    },
    {
      "inputs": [
        {
          "internalType": "address",
          "name": "_borrower",
          "type": "address"
        },
        {
          "internalType": "address[]",
          "name": "_nftAddresses",
          "type": "address[]"
        },
        {
          "internalType": "uint256[]",
          "name": "_tokenIds",
          "type": "uint256[]"
        },
        {
          "internalType": "uint256[]",
          "name": "_actualDurations",
          "type": "uint256[]"
        }
      ],
      "name": "rentMultiple",
      "outputs": [],
      "stateMutability": "nonpayable",
      "type": "function"
    },
    {
      "inputs": [
        {
          "internalType": "address",
          "name": "_nftAddress",
          "type": "address"
        },
        {
          "internalType": "uint256",
          "name": "_tokenId",
          "type": "uint256"
        }
      ],
      "name": "returnNftOne",
      "outputs": [],
      "stateMutability": "nonpayable",
      "type": "function"
    },
    {
      "inputs": [
        {
          "internalType": "address[]",
          "name": "_nftAddresses",
          "type": "address[]"
        },
        {
          "internalType": "uint256[]",
          "name": "_tokenIds",
          "type": "uint256[]"
        }
      ],
      "name": "returnNftMultiple",
      "outputs": [],
      "stateMutability": "nonpayable",
      "type": "function"
    },
    {
      "inputs": [
        {
          "internalType": "address",
          "name": "_nftAddress",
          "type": "address"
        },
        {
          "internalType": "uint256",
          "name": "_tokenId",
          "type": "uint256"
        }
      ],
      "name": "stopLending",
      "outputs": [],
      "stateMutability": "nonpayable",
      "type": "function"
    },
    {
      "inputs": [
        {
          "internalType": "address",
          "name": "_nftAddress",
          "type": "address"
        },
        {
          "internalType": "uint256",
          "name": "_tokenId",
          "type": "uint256"
        }
      ],
      "name": "claimCollateral",
      "outputs": [],
      "stateMutability": "nonpayable",
      "type": "function"
    }
  ],
  "bytecode": "0x60806040523480156200001157600080fd5b506040516200327538038062003275833981810160405260208110156200003757600080fd5b810190808051906020019092919050505060016000819055506000620000626200014960201b60201c565b905080600160006101000a81548173ffffffffffffffffffffffffffffffffffffffff021916908373ffffffffffffffffffffffffffffffffffffffff1602179055508073ffffffffffffffffffffffffffffffffffffffff16600073ffffffffffffffffffffffffffffffffffffffff167f8be0079c531659141344cd1fd0a4f28419497f9722a3daafe3b4186f6b6457e060405160405180910390a35080600360006101000a81548173ffffffffffffffffffffffffffffffffffffffff021916908373ffffffffffffffffffffffffffffffffffffffff1602179055505062000151565b600033905090565b61311480620001616000396000f3fe608060405234801561001057600080fd5b50600436106100ea5760003560e01c8063535db50d1161008c5780638da5cb5b116100665780638da5cb5b14610738578063c61050e81461076c578063ed9df540146108af578063f2fde38b146108fd576100ea565b8063535db50d146105e857806369a85221146106b6578063715018a61461072e576100ea565b8063202f7b6e116100c8578063202f7b6e146102a9578063244a2296146102f75780632c292a8a1461036357806343af356b14610530576100ea565b806304f3bcec146100ef5780630d7b4b3d14610123578063150b7a0214610171575b600080fd5b6100f7610941565b604051808273ffffffffffffffffffffffffffffffffffffffff16815260200191505060405180910390f35b61016f6004803603604081101561013957600080fd5b81019080803573ffffffffffffffffffffffffffffffffffffffff16906020019092919080359060200190929190505050610967565b005b6102746004803603608081101561018757600080fd5b81019080803573ffffffffffffffffffffffffffffffffffffffff169060200190929190803573ffffffffffffffffffffffffffffffffffffffff16906020019092919080359060200190929190803590602001906401000000008111156101ee57600080fd5b82018360208201111561020057600080fd5b8035906020019184600183028401116401000000008311171561022257600080fd5b91908080601f016020809104026020016040519081016040528093929190818152602001838380828437600081840152601f19601f820116905080830192505050505050509192919290505050610b50565b60405180827bffffffffffffffffffffffffffffffffffffffffffffffffffffffff1916815260200191505060405180910390f35b6102f5600480360360408110156102bf57600080fd5b81019080803573ffffffffffffffffffffffffffffffffffffffff16906020019092919080359060200190929190505050610b64565b005b610361600480360360a081101561030d57600080fd5b81019080803573ffffffffffffffffffffffffffffffffffffffff16906020019092919080359060200190929190803590602001909291908035906020019092919080359060200190929190505050610ffb565b005b61052e600480360360a081101561037957600080fd5b810190808035906020019064010000000081111561039657600080fd5b8201836020820111156103a857600080fd5b803590602001918460208302840111640100000000831117156103ca57600080fd5b9091929391929390803590602001906401000000008111156103eb57600080fd5b8201836020820111156103fd57600080fd5b8035906020019184602083028401116401000000008311171561041f57600080fd5b90919293919293908035906020019064010000000081111561044057600080fd5b82018360208201111561045257600080fd5b8035906020019184602083028401116401000000008311171561047457600080fd5b90919293919293908035906020019064010000000081111561049557600080fd5b8201836020820111156104a757600080fd5b803590602001918460208302840111640100000000831117156104c957600080fd5b9091929391929390803590602001906401000000008111156104ea57600080fd5b8201836020820111156104fc57600080fd5b8035906020019184602083028401116401000000008311171561051e57600080fd5b9091929391929390505050611436565b005b61057c6004803603604081101561054657600080fd5b81019080803573ffffffffffffffffffffffffffffffffffffffff169060200190929190803590602001909291905050506116c7565b604051808873ffffffffffffffffffffffffffffffffffffffff1681526020018773ffffffffffffffffffffffffffffffffffffffff16815260200186815260200185815260200184815260200183815260200182815260200197505050505050505060405180910390f35b6106b4600480360360408110156105fe57600080fd5b810190808035906020019064010000000081111561061b57600080fd5b82018360208201111561062d57600080fd5b8035906020019184602083028401116401000000008311171561064f57600080fd5b90919293919293908035906020019064010000000081111561067057600080fd5b82018360208201111561068257600080fd5b803590602001918460208302840111640100000000831117156106a457600080fd5b9091929391929390505050611756565b005b61072c600480360360808110156106cc57600080fd5b81019080803573ffffffffffffffffffffffffffffffffffffffff169060200190929190803573ffffffffffffffffffffffffffffffffffffffff1690602001909291908035906020019092919080359060200190929190505050611837565b005b610736611fbd565b005b610740612148565b604051808273ffffffffffffffffffffffffffffffffffffffff16815260200191505060405180910390f35b6108ad6004803603608081101561078257600080fd5b81019080803573ffffffffffffffffffffffffffffffffffffffff169060200190929190803590602001906401000000008111156107bf57600080fd5b8201836020820111156107d157600080fd5b803590602001918460208302840111640100000000831117156107f357600080fd5b90919293919293908035906020019064010000000081111561081457600080fd5b82018360208201111561082657600080fd5b8035906020019184602083028401116401000000008311171561084857600080fd5b90919293919293908035906020019064010000000081111561086957600080fd5b82018360208201111561087b57600080fd5b8035906020019184602083028401116401000000008311171561089d57600080fd5b9091929391929390505050612172565b005b6108fb600480360360408110156108c557600080fd5b81019080803573ffffffffffffffffffffffffffffffffffffffff169060200190929190803590602001909291905050506122e5565b005b61093f6004803603602081101561091357600080fd5b81019080803573ffffffffffffffffffffffffffffffffffffffff1690602001909291905050506126d7565b005b600360009054906101000a900473ffffffffffffffffffffffffffffffffffffffff1681565b6000600260008473ffffffffffffffffffffffffffffffffffffffff1673ffffffffffffffffffffffffffffffffffffffff168152602001908152602001600020600083815260200190815260200160002090503373ffffffffffffffffffffffffffffffffffffffff168160000160009054906101000a900473ffffffffffffffffffffffffffffffffffffffff1673ffffffffffffffffffffffffffffffffffffffff1614610a80576040517f08c379a000000000000000000000000000000000000000000000000000000000815260040180806020018281038252600a8152602001807f6e6f74206c656e6465720000000000000000000000000000000000000000000081525060200191505060405180910390fd5b8273ffffffffffffffffffffffffffffffffffffffff166342842e0e308360000160009054906101000a900473ffffffffffffffffffffffffffffffffffffffff16856040518463ffffffff1660e01b8152600401808473ffffffffffffffffffffffffffffffffffffffff1681526020018373ffffffffffffffffffffffffffffffffffffffff1681526020018281526020019350505050600060405180830381600087803b158015610b3357600080fd5b505af1158015610b47573d6000803e3d6000fd5b50505050505050565b600063150b7a0260e01b9050949350505050565b60026000541415610bdd576040517f08c379a000000000000000000000000000000000000000000000000000000000815260040180806020018281038252601f8152602001807f5265656e7472616e637947756172643a207265656e7472616e742063616c6c0081525060200191505060405180910390fd5b60026000819055506000600260008473ffffffffffffffffffffffffffffffffffffffff1673ffffffffffffffffffffffffffffffffffffffff168152602001908152602001600020600083815260200190815260200160002090503373ffffffffffffffffffffffffffffffffffffffff168160010160009054906101000a900473ffffffffffffffffffffffffffffffffffffffff1673ffffffffffffffffffffffffffffffffffffffff1614610cfe576040517f08c379a000000000000000000000000000000000000000000000000000000000815260040180806020018281038252600c8152602001807f6e6f7420626f72726f776572000000000000000000000000000000000000000081525060200191505060405180910390fd5b6000610d2c62015180610d1e8460050154426128e790919063ffffffff16565b61293190919063ffffffff16565b90508160030154811115610da8576040517f08c379a00000000000000000000000000000000000000000000000000000000081526004018080602001828103825260118152602001807f6475726174696f6e20657863656564656400000000000000000000000000000081525060200191505060405180910390fd5b8373ffffffffffffffffffffffffffffffffffffffff166342842e0e3330866040518463ffffffff1660e01b8152600401808473ffffffffffffffffffffffffffffffffffffffff1681526020018373ffffffffffffffffffffffffffffffffffffffff1681526020018281526020019350505050600060405180830381600087803b158015610e3757600080fd5b505af1158015610e4b573d6000803e3d6000fd5b50505050610f448260010160009054906101000a900473ffffffffffffffffffffffffffffffffffffffff168360060154600360009054906101000a900473ffffffffffffffffffffffffffffffffffffffff1673ffffffffffffffffffffffffffffffffffffffff16630400a7186040518163ffffffff1660e01b815260040160206040518083038186803b158015610ee457600080fd5b505afa158015610ef8573d6000803e3d6000fd5b505050506040513d6020811015610f0e57600080fd5b810190808051906020019092919050505073ffffffffffffffffffffffffffffffffffffffff1661297b9092919063ffffffff16565b610f4d82612a1d565b3373ffffffffffffffffffffffffffffffffffffffff16838573ffffffffffffffffffffffffffffffffffffffff167fb2daed44d220268da5ecf61100cc83480155f3f45250961b09cb82061f5f27fc8560000160009054906101000a900473ffffffffffffffffffffffffffffffffffffffff16604051808273ffffffffffffffffffffffffffffffffffffffff16815260200191505060405180910390a4505060016000819055505050565b60026000541415611074576040517f08c379a000000000000000000000000000000000000000000000000000000000815260040180806020018281038252601f8152602001807f5265656e7472616e637947756172643a207265656e7472616e742063616c6c0081525060200191505060405180910390fd5b6002600081905550600073ffffffffffffffffffffffffffffffffffffffff168573ffffffffffffffffffffffffffffffffffffffff16141561111f576040517f08c379a00000000000000000000000000000000000000000000000000000000081526004018080602001828103825260138152602001807f696e76616c6964204e465420616464726573730000000000000000000000000081525060200191505060405180910390fd5b60008311611195576040517f08c379a00000000000000000000000000000000000000000000000000000000081526004018080602001828103825260108152602001807f6174206c65617374206f6e65206461790000000000000000000000000000000081525060200191505060405180910390fd5b6040518060e001604052803373ffffffffffffffffffffffffffffffffffffffff168152602001600073ffffffffffffffffffffffffffffffffffffffff168152602001848152602001600081526020018381526020016000815260200182815250600260008773ffffffffffffffffffffffffffffffffffffffff1673ffffffffffffffffffffffffffffffffffffffff168152602001908152602001600020600086815260200190815260200160002060008201518160000160006101000a81548173ffffffffffffffffffffffffffffffffffffffff021916908373ffffffffffffffffffffffffffffffffffffffff16021790555060208201518160010160006101000a81548173ffffffffffffffffffffffffffffffffffffffff021916908373ffffffffffffffffffffffffffffffffffffffff16021790555060408201518160020155606082015181600301556080820151816004015560a0820151816005015560c082015181600601559050508473ffffffffffffffffffffffffffffffffffffffff166342842e0e3330876040518463ffffffff1660e01b8152600401808473ffffffffffffffffffffffffffffffffffffffff1681526020018373ffffffffffffffffffffffffffffffffffffffff1681526020018281526020019350505050600060405180830381600087803b15801561139957600080fd5b505af11580156113ad573d6000803e3d6000fd5b505050503373ffffffffffffffffffffffffffffffffffffffff16848673ffffffffffffffffffffffffffffffffffffffff167fca96363ba8a9ac89bc9c5919c129b43f11b81545f4e52364a0bd3744fb0f6f0886868660405180848152602001838152602001828152602001935050505060405180910390a460016000819055505050505050565b878790508a8a9050146114b1576040517f08c379a00000000000000000000000000000000000000000000000000000000081526004018080602001828103825260108152602001807f6e6f7420657175616c206c656e6774680000000000000000000000000000000081525060200191505060405180910390fd5b85859050888890501461152c576040517f08c379a00000000000000000000000000000000000000000000000000000000081526004018080602001828103825260108152602001807f6e6f7420657175616c206c656e6774680000000000000000000000000000000081525060200191505060405180910390fd5b8383905086869050146115a7576040517f08c379a00000000000000000000000000000000000000000000000000000000081526004018080602001828103825260108152602001807f6e6f7420657175616c206c656e6774680000000000000000000000000000000081525060200191505060405180910390fd5b818190508484905014611622576040517f08c379a00000000000000000000000000000000000000000000000000000000081526004018080602001828103825260108152602001807f6e6f7420657175616c206c656e6774680000000000000000000000000000000081525060200191505060405180910390fd5b60005b8a8a90508110156116ba576116ad8b8b8381811061163f57fe5b9050602002013573ffffffffffffffffffffffffffffffffffffffff168a8a8481811061166857fe5b9050602002013589898581811061167b57fe5b9050602002013588888681811061168e57fe5b905060200201358787878181106116a157fe5b90506020020135610ffb565b8080600101915050611625565b5050505050505050505050565b6002602052816000526040600020602052806000526040600020600091509150508060000160009054906101000a900473ffffffffffffffffffffffffffffffffffffffff16908060010160009054906101000a900473ffffffffffffffffffffffffffffffffffffffff16908060020154908060030154908060040154908060050154908060060154905087565b8181905084849050146117d1576040517f08c379a00000000000000000000000000000000000000000000000000000000081526004018080602001828103825260108152602001807f6e6f7420657175616c206c656e6774680000000000000000000000000000000081525060200191505060405180910390fd5b60005b84849050811015611830576118238585838181106117ee57fe5b9050602002013573ffffffffffffffffffffffffffffffffffffffff1684848481811061181757fe5b90506020020135610b64565b80806001019150506117d4565b5050505050565b600260005414156118b0576040517f08c379a000000000000000000000000000000000000000000000000000000000815260040180806020018281038252601f8152602001807f5265656e7472616e637947756172643a207265656e7472616e742063616c6c0081525060200191505060405180910390fd5b60026000819055506000600260008573ffffffffffffffffffffffffffffffffffffffff1673ffffffffffffffffffffffffffffffffffffffff16815260200190815260200160002060008481526020019081526020016000209050600073ffffffffffffffffffffffffffffffffffffffff168160000160009054906101000a900473ffffffffffffffffffffffffffffffffffffffff1673ffffffffffffffffffffffffffffffffffffffff1614156119d3576040517f08c379a00000000000000000000000000000000000000000000000000000000081526004018080602001828103825260158152602001807f636f756c64206e6f742066696e6420616e204e4654000000000000000000000081525060200191505060405180910390fd5b8060000160009054906101000a900473ffffffffffffffffffffffffffffffffffffffff1673ffffffffffffffffffffffffffffffffffffffff168573ffffffffffffffffffffffffffffffffffffffff161415611a99576040517f08c379a00000000000000000000000000000000000000000000000000000000081526004018080602001828103825260148152602001807f63616e277420626f72726f77206f776e206e667400000000000000000000000081525060200191505060405180910390fd5b8060020154821115611b13576040517f08c379a00000000000000000000000000000000000000000000000000000000081526004018080602001828103825260158152602001807f4d6178204475726174696f6e206578636565646564000000000000000000000081525060200191505060405180910390fd5b6000611b2c826004015484612a7890919063ffffffff16565b9050611c21868360000160009054906101000a900473ffffffffffffffffffffffffffffffffffffffff1683600360009054906101000a900473ffffffffffffffffffffffffffffffffffffffff1673ffffffffffffffffffffffffffffffffffffffff16630400a7186040518163ffffffff1660e01b815260040160206040518083038186803b158015611bc057600080fd5b505afa158015611bd4573d6000803e3d6000fd5b505050506040513d6020811015611bea57600080fd5b810190808051906020019092919050505073ffffffffffffffffffffffffffffffffffffffff16612afe909392919063ffffffff16565b611cf486308460060154600360009054906101000a900473ffffffffffffffffffffffffffffffffffffffff1673ffffffffffffffffffffffffffffffffffffffff16630400a7186040518163ffffffff1660e01b815260040160206040518083038186803b158015611c9357600080fd5b505afa158015611ca7573d6000803e3d6000fd5b505050506040513d6020811015611cbd57600080fd5b810190808051906020019092919050505073ffffffffffffffffffffffffffffffffffffffff16612afe909392919063ffffffff16565b85600260008773ffffffffffffffffffffffffffffffffffffffff1673ffffffffffffffffffffffffffffffffffffffff168152602001908152602001600020600086815260200190815260200160002060010160006101000a81548173ffffffffffffffffffffffffffffffffffffffff021916908373ffffffffffffffffffffffffffffffffffffffff16021790555042600260008773ffffffffffffffffffffffffffffffffffffffff1673ffffffffffffffffffffffffffffffffffffffff16815260200190815260200160002060008681526020019081526020016000206005018190555082600260008773ffffffffffffffffffffffffffffffffffffffff1673ffffffffffffffffffffffffffffffffffffffff1681526020019081526020016000206000868152602001908152602001600020600301819055508473ffffffffffffffffffffffffffffffffffffffff166342842e0e3088876040518463ffffffff1660e01b8152600401808473ffffffffffffffffffffffffffffffffffffffff1681526020018373ffffffffffffffffffffffffffffffffffffffff1681526020018281526020019350505050600060405180830381600087803b158015611ec557600080fd5b505af1158015611ed9573d6000803e3d6000fd5b505050508573ffffffffffffffffffffffffffffffffffffffff16848673ffffffffffffffffffffffffffffffffffffffff167f5c19f9cdfeed52e21a75a98d68d8ac9a91a8311e9d68a8c6886134ee8df784b28560000160009054906101000a900473ffffffffffffffffffffffffffffffffffffffff168660050154876004015488600301548960060154604051808673ffffffffffffffffffffffffffffffffffffffff1681526020018581526020018481526020018381526020018281526020019550505050505060405180910390a45050600160008190555050505050565b611fc5612bbf565b73ffffffffffffffffffffffffffffffffffffffff16600160009054906101000a900473ffffffffffffffffffffffffffffffffffffffff1673ffffffffffffffffffffffffffffffffffffffff1614612087576040517f08c379a00000000000000000000000000000000000000000000000000000000081526004018080602001828103825260208152602001807f4f776e61626c653a2063616c6c6572206973206e6f7420746865206f776e657281525060200191505060405180910390fd5b600073ffffffffffffffffffffffffffffffffffffffff16600160009054906101000a900473ffffffffffffffffffffffffffffffffffffffff1673ffffffffffffffffffffffffffffffffffffffff167f8be0079c531659141344cd1fd0a4f28419497f9722a3daafe3b4186f6b6457e060405160405180910390a36000600160006101000a81548173ffffffffffffffffffffffffffffffffffffffff021916908373ffffffffffffffffffffffffffffffffffffffff160217905550565b6000600160009054906101000a900473ffffffffffffffffffffffffffffffffffffffff16905090565b8383905086869050146121ed576040517f08c379a00000000000000000000000000000000000000000000000000000000081526004018080602001828103825260108152602001807f6e6f7420657175616c206c656e6774680000000000000000000000000000000081525060200191505060405180910390fd5b818190508484905014612268576040517f08c379a00000000000000000000000000000000000000000000000000000000081526004018080602001828103825260108152602001807f6e6f7420657175616c206c656e6774680000000000000000000000000000000081525060200191505060405180910390fd5b60005b868690508110156122db576122ce8888888481811061228657fe5b9050602002013573ffffffffffffffffffffffffffffffffffffffff168787858181106122af57fe5b905060200201358686868181106122c257fe5b90506020020135611837565b808060010191505061226b565b5050505050505050565b6002600054141561235e576040517f08c379a000000000000000000000000000000000000000000000000000000000815260040180806020018281038252601f8152602001807f5265656e7472616e637947756172643a207265656e7472616e742063616c6c0081525060200191505060405180910390fd5b60026000819055506000600260008473ffffffffffffffffffffffffffffffffffffffff1673ffffffffffffffffffffffffffffffffffffffff168152602001908152602001600020600083815260200190815260200160002090503373ffffffffffffffffffffffffffffffffffffffff168160000160009054906101000a900473ffffffffffffffffffffffffffffffffffffffff1673ffffffffffffffffffffffffffffffffffffffff161461247f576040517f08c379a000000000000000000000000000000000000000000000000000000000815260040180806020018281038252600a8152602001807f6e6f74206c656e6465720000000000000000000000000000000000000000000081525060200191505060405180910390fd5b600073ffffffffffffffffffffffffffffffffffffffff168160010160009054906101000a900473ffffffffffffffffffffffffffffffffffffffff1673ffffffffffffffffffffffffffffffffffffffff161415612546576040517f08c379a00000000000000000000000000000000000000000000000000000000081526004018080602001828103825260108152602001807f6e6674206e6f74206c656e74206f75740000000000000000000000000000000081525060200191505060405180910390fd5b6000612574620151806125668460050154426128e790919063ffffffff16565b61293190919063ffffffff16565b9050816003015481116125ef576040517f08c379a00000000000000000000000000000000000000000000000000000000081526004018080602001828103825260158152602001807f6475726174696f6e206e6f74206578636565646564000000000000000000000081525060200191505060405180910390fd5b6125f882612a1d565b6126c9338360060154600360009054906101000a900473ffffffffffffffffffffffffffffffffffffffff1673ffffffffffffffffffffffffffffffffffffffff16630400a7186040518163ffffffff1660e01b815260040160206040518083038186803b15801561266957600080fd5b505afa15801561267d573d6000803e3d6000fd5b505050506040513d602081101561269357600080fd5b810190808051906020019092919050505073ffffffffffffffffffffffffffffffffffffffff1661297b9092919063ffffffff16565b505060016000819055505050565b6126df612bbf565b73ffffffffffffffffffffffffffffffffffffffff16600160009054906101000a900473ffffffffffffffffffffffffffffffffffffffff1673ffffffffffffffffffffffffffffffffffffffff16146127a1576040517f08c379a00000000000000000000000000000000000000000000000000000000081526004018080602001828103825260208152602001807f4f776e61626c653a2063616c6c6572206973206e6f7420746865206f776e657281525060200191505060405180910390fd5b600073ffffffffffffffffffffffffffffffffffffffff168173ffffffffffffffffffffffffffffffffffffffff161415612827576040517f08c379a000000000000000000000000000000000000000000000000000000000815260040180806020018281038252602681526020018061306e6026913960400191505060405180910390fd5b8073ffffffffffffffffffffffffffffffffffffffff16600160009054906101000a900473ffffffffffffffffffffffffffffffffffffffff1673ffffffffffffffffffffffffffffffffffffffff167f8be0079c531659141344cd1fd0a4f28419497f9722a3daafe3b4186f6b6457e060405160405180910390a380600160006101000a81548173ffffffffffffffffffffffffffffffffffffffff021916908373ffffffffffffffffffffffffffffffffffffffff16021790555050565b600061292983836040518060400160405280601e81526020017f536166654d6174683a207375627472616374696f6e206f766572666c6f770000815250612bc7565b905092915050565b600061297383836040518060400160405280601a81526020017f536166654d6174683a206469766973696f6e206279207a65726f000000000000815250612c87565b905092915050565b612a188363a9059cbb60e01b8484604051602401808373ffffffffffffffffffffffffffffffffffffffff16815260200182815260200192505050604051602081830303815290604052907bffffffffffffffffffffffffffffffffffffffffffffffffffffffff19166020820180517bffffffffffffffffffffffffffffffffffffffffffffffffffffffff8381831617835250505050612d4d565b505050565b60008160010160006101000a81548173ffffffffffffffffffffffffffffffffffffffff021916908373ffffffffffffffffffffffffffffffffffffffff160217905550600081600301819055506000816005018190555050565b600080831415612a8b5760009050612af8565b6000828402905082848281612a9c57fe5b0414612af3576040517f08c379a00000000000000000000000000000000000000000000000000000000081526004018080602001828103825260218152602001806130946021913960400191505060405180910390fd5b809150505b92915050565b612bb9846323b872dd60e01b858585604051602401808473ffffffffffffffffffffffffffffffffffffffff1681526020018373ffffffffffffffffffffffffffffffffffffffff1681526020018281526020019350505050604051602081830303815290604052907bffffffffffffffffffffffffffffffffffffffffffffffffffffffff19166020820180517bffffffffffffffffffffffffffffffffffffffffffffffffffffffff8381831617835250505050612d4d565b50505050565b600033905090565b6000838311158290612c74576040517f08c379a00000000000000000000000000000000000000000000000000000000081526004018080602001828103825283818151815260200191508051906020019080838360005b83811015612c39578082015181840152602081019050612c1e565b50505050905090810190601f168015612c665780820380516001836020036101000a031916815260200191505b509250505060405180910390fd5b5060008385039050809150509392505050565b60008083118290612d33576040517f08c379a00000000000000000000000000000000000000000000000000000000081526004018080602001828103825283818151815260200191508051906020019080838360005b83811015612cf8578082015181840152602081019050612cdd565b50505050905090810190601f168015612d255780820380516001836020036101000a031916815260200191505b509250505060405180910390fd5b506000838581612d3f57fe5b049050809150509392505050565b6060612daf826040518060400160405280602081526020017f5361666545524332303a206c6f772d6c6576656c2063616c6c206661696c65648152508573ffffffffffffffffffffffffffffffffffffffff16612e3c9092919063ffffffff16565b9050600081511115612e3757808060200190516020811015612dd057600080fd5b8101908080519060200190929190505050612e36576040517f08c379a000000000000000000000000000000000000000000000000000000000815260040180806020018281038252602a8152602001806130b5602a913960400191505060405180910390fd5b5b505050565b6060612e4b8484600085612e54565b90509392505050565b6060612e5f8561305a565b612ed1576040517f08c379a000000000000000000000000000000000000000000000000000000000815260040180806020018281038252601d8152602001807f416464726573733a2063616c6c20746f206e6f6e2d636f6e747261637400000081525060200191505060405180910390fd5b600060608673ffffffffffffffffffffffffffffffffffffffff1685876040518082805190602001908083835b60208310612f215780518252602082019150602081019050602083039250612efe565b6001836020036101000a03801982511681845116808217855250505050505090500191505060006040518083038185875af1925050503d8060008114612f83576040519150601f19603f3d011682016040523d82523d6000602084013e612f88565b606091505b50915091508115612f9d578092505050613052565b600081511115612fb05780518082602001fd5b836040517f08c379a00000000000000000000000000000000000000000000000000000000081526004018080602001828103825283818151815260200191508051906020019080838360005b83811015613017578082015181840152602081019050612ffc565b50505050905090810190601f1680156130445780820380516001836020036101000a031916815260200191505b509250505060405180910390fd5b949350505050565b600080823b90506000811191505091905056fe4f776e61626c653a206e6577206f776e657220697320746865207a65726f2061646472657373536166654d6174683a206d756c7469706c69636174696f6e206f766572666c6f775361666545524332303a204552433230206f7065726174696f6e20646964206e6f742073756363656564a2646970667358221220fc55ae28ed3bf12f317efe1360de3a7394f0a02c87bd43390d10beb0cbb5104a64736f6c634300060c0033",
  "immutableReferences": {},
  "source": "// SPDX-License-Identifier: MIT\npragma solidity ^0.6.0;\n\nimport \"./RentNftAddressProvider.sol\";\nimport \"@openzeppelin/contracts/utils/ReentrancyGuard.sol\";\nimport \"@openzeppelin/contracts/access/Ownable.sol\";\nimport \"@openzeppelin/contracts/token/ERC20/SafeERC20.sol\";\nimport \"@openzeppelin/contracts/token/ERC20/ERC20.sol\";\nimport \"@openzeppelin/contracts/token/ERC721/ERC721.sol\";\nimport \"@openzeppelin/contracts/token/ERC721/ERC721Holder.sol\";\n\ncontract RentNft is ReentrancyGuard, Ownable, ERC721Holder {\n  using SafeMath for uint256;\n  using SafeERC20 for ERC20;\n\n  // TODO: if thre are defaults, mark the address to forbid from renting\n\n  event Lent(\n    address indexed nftAddress,\n    uint256 indexed tokenId,\n    address indexed lender,\n    uint256 maxDuration,\n    uint256 borrowPrice,\n    uint256 nftPrice\n  );\n\n  event Borrowed(\n    address indexed nftAddress,\n    uint256 indexed tokenId,\n    address indexed borrower,\n    address lender,\n    uint256 borrowedAt,\n    uint256 borrowPrice,\n    uint256 actualDuration,\n    uint256 nftPrice\n  );\n\n  event Returned(\n    address indexed nftAddress,\n    uint256 indexed tokenId,\n    address indexed borrower,\n    address lender\n  );\n\n  struct Nft {\n    address lender;\n    address borrower;\n    uint256 maxDuration; // set by lender. max borrow duration in days\n    uint256 actualDuration; // set by borrower. actual duration borrower will have the NFT for. This gets populated on the rent call\n    uint256 borrowPrice; // set by lender. how much the borrower has to pay irrevocably daily\n    uint256 borrowedAt; // set by borrower. time at which nft is borrowed\n    uint256 nftPrice; // set by lender. how much lender will receive as collateral if borrower does not return nft in time\n  }\n\n  // mapping(address => address) public ownerBorrower;\n  // nft address => token id => nft\n  mapping(address => mapping(uint256 => Nft)) public nfts;\n\n  RentNftAddressProvider public resolver;\n\n  constructor(address _resolver) public {\n    resolver = RentNftAddressProvider(_resolver);\n  }\n\n  /**\n   * @dev See {IERC721Receiver-onERC721Received}.\n   *\n   * Always returns `IERC721Receiver.onERC721Received.selector`.\n   */\n  function onERC721Received(\n    address,\n    address,\n    uint256,\n    bytes memory\n  ) public virtual override returns (bytes4) {\n    return this.onERC721Received.selector;\n  }\n\n  // lend one nft that you own to be borrowable on Rent NFT\n  function lendOne(\n    address _nftAddress,\n    uint256 _tokenId,\n    uint256 _maxDuration,\n    uint256 _borrowPrice,\n    uint256 _nftPrice\n  ) public nonReentrant {\n    require(_nftAddress != address(0), \"invalid NFT address\");\n    require(_maxDuration > 0, \"at least one day\");\n\n    nfts[_nftAddress][_tokenId] = Nft({\n      lender: msg.sender,\n      borrower: address(0),\n      maxDuration: _maxDuration,\n      actualDuration: 0,\n      borrowPrice: _borrowPrice,\n      borrowedAt: 0,\n      nftPrice: _nftPrice\n    });\n\n    // transfer nft to this contract. will fail if nft wasn't approved\n    ERC721(_nftAddress).safeTransferFrom(msg.sender, address(this), _tokenId);\n    emit Lent(\n      _nftAddress,\n      _tokenId,\n      msg.sender,\n      _maxDuration,\n      _borrowPrice,\n      _nftPrice\n    );\n  }\n\n  // lend multiple nfts that you own to be borrowable by Rent NFT\n  // for gas saving\n  function lendMultiple(\n    address[] calldata _nftAddresses,\n    uint256[] calldata _tokenIds,\n    uint256[] calldata _maxDurations,\n    uint256[] calldata _borrowPrices,\n    uint256[] calldata _nftPrices\n  ) external {\n    require(_nftAddresses.length == _tokenIds.length, \"not equal length\");\n    require(_tokenIds.length == _maxDurations.length, \"not equal length\");\n    require(_maxDurations.length == _borrowPrices.length, \"not equal length\");\n    require(_borrowPrices.length == _nftPrices.length, \"not equal length\");\n\n    for (uint256 i = 0; i < _nftAddresses.length; i++) {\n      lendOne(\n        _nftAddresses[i],\n        _tokenIds[i],\n        _maxDurations[i],\n        _borrowPrices[i],\n        _nftPrices[i]\n      );\n    }\n  }\n\n  function rentOne(\n    address _borrower,\n    address _nftAddress,\n    uint256 _tokenId,\n    uint256 _actualDuration\n  ) public nonReentrant {\n    Nft storage nft = nfts[_nftAddress][_tokenId];\n\n    require(nft.lender != address(0), \"could not find an NFT\");\n    require(_borrower != nft.lender, \"can't borrow own nft\");\n    require(_actualDuration <= nft.maxDuration, \"Max Duration exceeded\");\n\n    // ! will fail if wasn't approved\n    // pay the NFT owner the rent price\n    uint256 rentPrice = _actualDuration.mul(nft.borrowPrice);\n    ERC20(resolver.getDai()).safeTransferFrom(_borrower, nft.lender, rentPrice);\n    // collateral, our contracts acts as an escrow\n    ERC20(resolver.getDai()).safeTransferFrom(\n      _borrower,\n      address(this),\n      nft.nftPrice\n    );\n\n    nfts[_nftAddress][_tokenId].borrower = _borrower;\n    nfts[_nftAddress][_tokenId].borrowedAt = now;\n    nfts[_nftAddress][_tokenId].actualDuration = _actualDuration;\n\n    ERC721(_nftAddress).safeTransferFrom(address(this), _borrower, _tokenId);\n\n    emit Borrowed(\n      _nftAddress,\n      _tokenId,\n      _borrower,\n      nft.lender,\n      nft.borrowedAt,\n      nft.borrowPrice,\n      nft.actualDuration,\n      nft.nftPrice\n    );\n  }\n\n  function rentMultiple(\n    address _borrower,\n    address[] calldata _nftAddresses,\n    uint256[] calldata _tokenIds,\n    uint256[] calldata _actualDurations\n  ) external {\n    require(_nftAddresses.length == _tokenIds.length, \"not equal length\");\n    require(_tokenIds.length == _actualDurations.length, \"not equal length\");\n    for (uint256 i = 0; i < _nftAddresses.length; i++) {\n      rentOne(_borrower, _nftAddresses[i], _tokenIds[i], _actualDurations[i]);\n    }\n  }\n\n  function returnNftOne(address _nftAddress, uint256 _tokenId)\n    public\n    nonReentrant\n  {\n    Nft storage nft = nfts[_nftAddress][_tokenId];\n\n    require(nft.borrower == msg.sender, \"not borrower\");\n    uint256 durationInDays = now.sub(nft.borrowedAt).div(86400);\n    require(durationInDays <= nft.actualDuration, \"duration exceeded\");\n\n    // we are returning back to the contract so that the owner does not have to add\n    // it multiple times thus incurring the transaction costs\n    ERC721(_nftAddress).safeTransferFrom(msg.sender, address(this), _tokenId);\n    ERC20(resolver.getDai()).safeTransfer(nft.borrower, nft.nftPrice);\n\n    resetBorrow(nft);\n    emit Returned(_nftAddress, _tokenId, msg.sender, nft.lender);\n  }\n\n  function returnNftMultiple(\n    address[] calldata _nftAddresses,\n    uint256[] calldata _tokenIds\n  ) external {\n    require(_nftAddresses.length == _tokenIds.length, \"not equal length\");\n    for (uint256 i = 0; i < _nftAddresses.length; i++) {\n      returnNftOne(_nftAddresses[i], _tokenIds[i]);\n    }\n  }\n\n  function stopLending(address _nftAddress, uint256 _tokenId) public {\n    Nft storage nft = nfts[_nftAddress][_tokenId];\n    require(nft.lender == msg.sender, \"not lender\");\n    ERC721(_nftAddress).safeTransferFrom(address(this), nft.lender, _tokenId);\n  }\n\n  // TODO: onlyOwner method to be called every day at midnight to automatically\n  // default whoever has not returned the NFT in time\n  function claimCollateral(address _nftAddress, uint256 _tokenId)\n    public\n    nonReentrant\n  {\n    Nft storage nft = nfts[_nftAddress][_tokenId];\n    require(nft.lender == msg.sender, \"not lender\");\n    require(nft.borrower != address(0), \"nft not lent out\");\n\n    uint256 durationInDays = now.sub(nft.borrowedAt).div(86400);\n    require(durationInDays > nft.actualDuration, \"duration not exceeded\");\n\n    resetBorrow(nft);\n    ERC20(resolver.getDai()).safeTransfer(msg.sender, nft.nftPrice);\n  }\n\n  function resetBorrow(Nft storage nft) internal {\n    nft.borrower = address(0);\n    nft.actualDuration = 0;\n    nft.borrowedAt = 0;\n  }\n}\n",
  "sourcePath": "/Users/shredder/git/superfluid/contracts/contracts/RentNft.sol",
  "compiler": {
    "name": "solc",
    "version": "0.6.12+commit.27d51765.Emscripten.clang"
  },
  "schemaVersion": "3.2.5",
  "updatedAt": "2020-11-10T20:17:37.383Z",
  "networkType": "ethereum",
  "devdoc": {
    "kind": "dev",
    "methods": {
      "onERC721Received(address,address,uint256,bytes)": {
        "details": "See {IERC721Receiver-onERC721Received}. Always returns `IERC721Receiver.onERC721Received.selector`."
      },
      "owner()": {
        "details": "Returns the address of the current owner."
      },
      "renounceOwnership()": {
        "details": "Leaves the contract without owner. It will not be possible to call `onlyOwner` functions anymore. Can only be called by the current owner. NOTE: Renouncing ownership will leave the contract without an owner, thereby removing any functionality that is only available to the owner."
      },
      "transferOwnership(address)": {
        "details": "Transfers ownership of the contract to a new account (`newOwner`). Can only be called by the current owner."
      }
    },
    "version": 1
  },
  "userdoc": {
    "kind": "user",
    "methods": {},
    "version": 1
  }
}