{
  "contractName": "RentNft",
  "abi": [
    {
      "inputs": [
        {
          "internalType": "contract Resolver",
          "name": "_resolver",
          "type": "address"
        }
      ],
      "stateMutability": "nonpayable",
      "type": "constructor"
    },
    {
      "anonymous": false,
      "inputs": [
        {
          "indexed": true,
          "internalType": "address",
          "name": "nftAddress",
          "type": "address"
        },
        {
          "indexed": true,
          "internalType": "uint256",
          "name": "tokenId",
          "type": "uint256"
        },
        {
          "indexed": true,
          "internalType": "uint256",
          "name": "lendingId",
          "type": "uint256"
        },
        {
          "indexed": false,
          "internalType": "uint32",
          "name": "claimedAt",
          "type": "uint32"
        }
      ],
      "name": "CollateralClaimed",
      "type": "event"
    },
    {
      "anonymous": false,
      "inputs": [
        {
          "indexed": true,
          "internalType": "address",
          "name": "nftAddress",
          "type": "address"
        },
        {
          "indexed": true,
          "internalType": "uint256",
          "name": "tokenId",
          "type": "uint256"
        },
        {
          "indexed": true,
          "internalType": "uint256",
          "name": "lendingId",
          "type": "uint256"
        },
        {
          "indexed": false,
          "internalType": "uint32",
          "name": "stoppedAt",
          "type": "uint32"
        }
      ],
      "name": "LendingStopped",
      "type": "event"
    },
    {
      "anonymous": false,
      "inputs": [
        {
          "indexed": true,
          "internalType": "address",
          "name": "nftAddress",
          "type": "address"
        },
        {
          "indexed": true,
          "internalType": "uint256",
          "name": "tokenId",
          "type": "uint256"
        },
        {
          "indexed": false,
          "internalType": "uint256",
          "name": "lendingId",
          "type": "uint256"
        },
        {
          "indexed": true,
          "internalType": "address",
          "name": "lenderAddress",
          "type": "address"
        },
        {
          "indexed": false,
          "internalType": "uint16",
          "name": "maxRentDuration",
          "type": "uint16"
        },
        {
          "indexed": false,
          "internalType": "uint32",
          "name": "dailyRentPrice",
          "type": "uint32"
        },
        {
          "indexed": false,
          "internalType": "uint32",
          "name": "nftPrice",
          "type": "uint32"
        },
        {
          "indexed": false,
          "internalType": "enum RentNft.PaymentToken",
          "name": "paymentToken",
          "type": "uint8"
        }
      ],
      "name": "Lent",
      "type": "event"
    },
    {
      "anonymous": false,
      "inputs": [
        {
          "indexed": true,
          "internalType": "address",
          "name": "previousOwner",
          "type": "address"
        },
        {
          "indexed": true,
          "internalType": "address",
          "name": "newOwner",
          "type": "address"
        }
      ],
      "name": "OwnershipTransferred",
      "type": "event"
    },
    {
      "anonymous": false,
      "inputs": [
        {
          "indexed": true,
          "internalType": "address",
          "name": "nftAddress",
          "type": "address"
        },
        {
          "indexed": true,
          "internalType": "uint256",
          "name": "tokenId",
          "type": "uint256"
        },
        {
          "indexed": false,
          "internalType": "uint256",
          "name": "lendingId",
          "type": "uint256"
        },
        {
          "indexed": true,
          "internalType": "address",
          "name": "renterAddress",
          "type": "address"
        },
        {
          "indexed": false,
          "internalType": "uint16",
          "name": "rentDuration",
          "type": "uint16"
        },
        {
          "indexed": false,
          "internalType": "uint32",
          "name": "rentedAt",
          "type": "uint32"
        }
      ],
      "name": "Rented",
      "type": "event"
    },
    {
      "anonymous": false,
      "inputs": [
        {
          "indexed": true,
          "internalType": "address",
          "name": "nftAddress",
          "type": "address"
        },
        {
          "indexed": true,
          "internalType": "uint256",
          "name": "tokenId",
          "type": "uint256"
        },
        {
          "indexed": true,
          "internalType": "uint256",
          "name": "lendingId",
          "type": "uint256"
        },
        {
          "indexed": false,
          "internalType": "address",
          "name": "renterAddress",
          "type": "address"
        },
        {
          "indexed": false,
          "internalType": "uint32",
          "name": "returnedAt",
          "type": "uint32"
        }
      ],
      "name": "Returned",
      "type": "event"
    },
    {
      "inputs": [
        {
          "internalType": "address",
          "name": "",
          "type": "address"
        },
        {
          "internalType": "address",
          "name": "",
          "type": "address"
        },
        {
          "internalType": "uint256",
          "name": "",
          "type": "uint256"
        },
        {
          "internalType": "bytes",
          "name": "",
          "type": "bytes"
        }
      ],
      "name": "onERC721Received",
      "outputs": [
        {
          "internalType": "bytes4",
          "name": "",
          "type": "bytes4"
        }
      ],
      "stateMutability": "nonpayable",
      "type": "function"
    },
    {
      "inputs": [],
      "name": "owner",
      "outputs": [
        {
          "internalType": "address",
          "name": "",
          "type": "address"
        }
      ],
      "stateMutability": "view",
      "type": "function",
      "constant": true
    },
    {
      "inputs": [],
      "name": "renounceOwnership",
      "outputs": [],
      "stateMutability": "nonpayable",
      "type": "function"
    },
    {
      "inputs": [
        {
          "internalType": "address",
          "name": "newOwner",
          "type": "address"
        }
      ],
      "name": "transferOwnership",
      "outputs": [],
      "stateMutability": "nonpayable",
      "type": "function"
    },
    {
      "inputs": [
        {
          "internalType": "contract IERC721",
          "name": "_nftAddress",
          "type": "address"
        },
        {
          "internalType": "uint256",
          "name": "_tokenId",
          "type": "uint256"
        },
        {
          "internalType": "uint16",
          "name": "_maxRentDuration",
          "type": "uint16"
        },
        {
          "internalType": "uint32",
          "name": "_dailyRentPrice",
          "type": "uint32"
        },
        {
          "internalType": "uint32",
          "name": "_nftPrice",
          "type": "uint32"
        },
        {
          "internalType": "enum RentNft.PaymentToken",
          "name": "_paymentToken",
          "type": "uint8"
        },
        {
          "internalType": "address payable",
          "name": "_gasSponsor",
          "type": "address"
        }
      ],
      "name": "lendOne",
      "outputs": [],
      "stateMutability": "nonpayable",
      "type": "function"
    },
    {
      "inputs": [
        {
          "internalType": "contract IERC721[]",
          "name": "_nftAddresses",
          "type": "address[]"
        },
        {
          "internalType": "uint256[]",
          "name": "_tokenIds",
          "type": "uint256[]"
        },
        {
          "internalType": "uint16[]",
          "name": "_maxRentDurations",
          "type": "uint16[]"
        },
        {
          "internalType": "uint32[]",
          "name": "_dailyRentPrice",
          "type": "uint32[]"
        },
        {
          "internalType": "uint32[]",
          "name": "_nftPrices",
          "type": "uint32[]"
        },
        {
          "internalType": "enum RentNft.PaymentToken[]",
          "name": "_paymentTokenAddresses",
          "type": "uint8[]"
        },
        {
          "internalType": "address payable[]",
          "name": "_gasSponsors",
          "type": "address[]"
        }
      ],
      "name": "lendMultiple",
      "outputs": [],
      "stateMutability": "nonpayable",
      "type": "function"
    },
    {
      "inputs": [
        {
          "internalType": "contract IERC721",
          "name": "_nftAddress",
          "type": "address"
        },
        {
          "internalType": "uint256",
          "name": "_tokenId",
          "type": "uint256"
        },
        {
          "internalType": "uint256",
          "name": "_id",
          "type": "uint256"
        },
        {
          "internalType": "uint16",
          "name": "_rentDuration",
          "type": "uint16"
        },
        {
          "internalType": "address",
          "name": "_gasSponsor",
          "type": "address"
        }
      ],
      "name": "rentOne",
      "outputs": [],
      "stateMutability": "nonpayable",
      "type": "function"
    },
    {
      "inputs": [
        {
          "internalType": "contract IERC721[]",
          "name": "_nftAddress",
          "type": "address[]"
        },
        {
          "internalType": "uint256[]",
          "name": "_tokenId",
          "type": "uint256[]"
        },
        {
          "internalType": "uint256[]",
          "name": "_id",
          "type": "uint256[]"
        },
        {
          "internalType": "uint16[]",
          "name": "_rentDuration",
          "type": "uint16[]"
        },
        {
          "internalType": "address payable[]",
          "name": "_gasSponsors",
          "type": "address[]"
        }
      ],
      "name": "rentMultiple",
      "outputs": [],
      "stateMutability": "nonpayable",
      "type": "function"
    },
    {
      "inputs": [
        {
          "internalType": "contract IERC721",
          "name": "_nftAddress",
          "type": "address"
        },
        {
          "internalType": "uint256",
          "name": "_tokenId",
          "type": "uint256"
        },
        {
          "internalType": "uint256",
          "name": "_id",
          "type": "uint256"
        },
        {
          "internalType": "address",
          "name": "_gasSponsor",
          "type": "address"
        }
      ],
      "name": "returnOne",
      "outputs": [],
      "stateMutability": "nonpayable",
      "type": "function"
    },
    {
      "inputs": [
        {
          "internalType": "contract IERC721[]",
          "name": "_nftAddress",
          "type": "address[]"
        },
        {
          "internalType": "uint256[]",
          "name": "_tokenId",
          "type": "uint256[]"
        },
        {
          "internalType": "uint256[]",
          "name": "_id",
          "type": "uint256[]"
        },
        {
          "internalType": "address payable[]",
          "name": "_gasSponsors",
          "type": "address[]"
        }
      ],
      "name": "returnMultiple",
      "outputs": [],
      "stateMutability": "nonpayable",
      "type": "function"
    },
    {
      "inputs": [
        {
          "internalType": "contract IERC721",
          "name": "_nftAddress",
          "type": "address"
        },
        {
          "internalType": "uint256",
          "name": "_tokenId",
          "type": "uint256"
        },
        {
          "internalType": "uint256",
          "name": "_id",
          "type": "uint256"
        },
        {
          "internalType": "address",
          "name": "_gasSponsor",
          "type": "address"
        }
      ],
      "name": "claimCollateralOne",
      "outputs": [],
      "stateMutability": "nonpayable",
      "type": "function"
    },
    {
      "inputs": [
        {
          "internalType": "contract IERC721[]",
          "name": "_nftAddress",
          "type": "address[]"
        },
        {
          "internalType": "uint256[]",
          "name": "_tokenId",
          "type": "uint256[]"
        },
        {
          "internalType": "uint256[]",
          "name": "_id",
          "type": "uint256[]"
        },
        {
          "internalType": "address payable[]",
          "name": "_gasSponsors",
          "type": "address[]"
        }
      ],
      "name": "claimCollateralMultiple",
      "outputs": [],
      "stateMutability": "nonpayable",
      "type": "function"
    },
    {
      "inputs": [
        {
          "internalType": "contract IERC721",
          "name": "_nftAddress",
          "type": "address"
        },
        {
          "internalType": "uint256",
          "name": "_tokenId",
          "type": "uint256"
        },
        {
          "internalType": "uint256",
          "name": "_id",
          "type": "uint256"
        },
        {
          "internalType": "address",
          "name": "_gasSponsor",
          "type": "address"
        }
      ],
      "name": "stopLendingOne",
      "outputs": [],
      "stateMutability": "nonpayable",
      "type": "function"
    },
    {
      "inputs": [
        {
          "internalType": "contract IERC721[]",
          "name": "_nftAddress",
          "type": "address[]"
        },
        {
          "internalType": "uint256[]",
          "name": "_tokenId",
          "type": "uint256[]"
        },
        {
          "internalType": "uint256[]",
          "name": "_id",
          "type": "uint256[]"
        },
        {
          "internalType": "address payable[]",
          "name": "_gasSponsors",
          "type": "address[]"
        }
      ],
      "name": "stopLendingMultiple",
      "outputs": [],
      "stateMutability": "nonpayable",
      "type": "function"
    }
  ],
  "bytecode": "0x6080604052600160025534801561001557600080fd5b506040516124343803806124348339818101604052602081101561003857600080fd5b5051600160009081556100496100bc565b600180546001600160a01b0319166001600160a01b038316908117909155604051919250906000907f8be0079c531659141344cd1fd0a4f28419497f9722a3daafe3b4186f6b6457e0908290a350600380546001600160a01b0319166001600160a01b03929092169190911790556100c0565b3390565b612365806100cf6000396000f3fe608060405234801561001057600080fd5b50600436106100ea5760003560e01c80634444719b1161008c5780638da5cb5b116100665780638da5cb5b14610887578063994610b4146108ab578063ef88594614610a09578063f2fde38b14610b67576100ea565b80634444719b146106975780635492422814610845578063715018a61461087f576100ea565b8063187aa752116100c8578063187aa7521461045a5780632af3d927146104b95780632fe323a1146104ff578063416a712414610539576100ea565b8063075bb4d8146100ef578063150b7a021461012b5780631852f20d1461020c575b600080fd5b6101296004803603608081101561010557600080fd5b506001600160a01b0381358116916020810135916040820135916060013516610b8d565b005b6101ef6004803603608081101561014157600080fd5b6001600160a01b03823581169260208101359091169160408201359190810190608081016060820135600160201b81111561017b57600080fd5b82018360208201111561018d57600080fd5b803590602001918460018302840111600160201b831117156101ae57600080fd5b91908080601f016020809104026020016040519081016040528093929190818152602001838380828437600092019190915250929550610e8a945050505050565b604080516001600160e01b03199092168252519081900360200190f35b610129600480360360e081101561022257600080fd5b810190602081018135600160201b81111561023c57600080fd5b82018360208201111561024e57600080fd5b803590602001918460208302840111600160201b8311171561026f57600080fd5b919390929091602081019035600160201b81111561028c57600080fd5b82018360208201111561029e57600080fd5b803590602001918460208302840111600160201b831117156102bf57600080fd5b919390929091602081019035600160201b8111156102dc57600080fd5b8201836020820111156102ee57600080fd5b803590602001918460208302840111600160201b8311171561030f57600080fd5b919390929091602081019035600160201b81111561032c57600080fd5b82018360208201111561033e57600080fd5b803590602001918460208302840111600160201b8311171561035f57600080fd5b919390929091602081019035600160201b81111561037c57600080fd5b82018360208201111561038e57600080fd5b803590602001918460208302840111600160201b831117156103af57600080fd5b919390929091602081019035600160201b8111156103cc57600080fd5b8201836020820111156103de57600080fd5b803590602001918460208302840111600160201b831117156103ff57600080fd5b919390929091602081019035600160201b81111561041c57600080fd5b82018360208201111561042e57600080fd5b803590602001918460208302840111600160201b8311171561044f57600080fd5b509092509050610e9b565b610129600480360360e081101561047057600080fd5b506001600160a01b03813581169160208101359161ffff6040830135169163ffffffff606082013581169260808301359091169160ff60a0820135169160c09091013516610f7e565b610129600480360360a08110156104cf57600080fd5b506001600160a01b03813581169160208101359160408201359161ffff6060820135169160809091013516611268565b6101296004803603608081101561051557600080fd5b506001600160a01b038135811691602081013591604082013591606001351661163b565b6101296004803603608081101561054f57600080fd5b810190602081018135600160201b81111561056957600080fd5b82018360208201111561057b57600080fd5b803590602001918460208302840111600160201b8311171561059c57600080fd5b919390929091602081019035600160201b8111156105b957600080fd5b8201836020820111156105cb57600080fd5b803590602001918460208302840111600160201b831117156105ec57600080fd5b919390929091602081019035600160201b81111561060957600080fd5b82018360208201111561061b57600080fd5b803590602001918460208302840111600160201b8311171561063c57600080fd5b919390929091602081019035600160201b81111561065957600080fd5b82018360208201111561066b57600080fd5b803590602001918460208302840111600160201b8311171561068c57600080fd5b5090925090506117f9565b610129600480360360a08110156106ad57600080fd5b810190602081018135600160201b8111156106c757600080fd5b8201836020820111156106d957600080fd5b803590602001918460208302840111600160201b831117156106fa57600080fd5b919390929091602081019035600160201b81111561071757600080fd5b82018360208201111561072957600080fd5b803590602001918460208302840111600160201b8311171561074a57600080fd5b919390929091602081019035600160201b81111561076757600080fd5b82018360208201111561077957600080fd5b803590602001918460208302840111600160201b8311171561079a57600080fd5b919390929091602081019035600160201b8111156107b757600080fd5b8201836020820111156107c957600080fd5b803590602001918460208302840111600160201b831117156107ea57600080fd5b919390929091602081019035600160201b81111561080757600080fd5b82018360208201111561081957600080fd5b803590602001918460208302840111600160201b8311171561083a57600080fd5b50909250905061187d565b6101296004803603608081101561085b57600080fd5b506001600160a01b038135811691602081013591604082013591606001351661191a565b610129611bf8565b61088f611cac565b604080516001600160a01b039092168252519081900360200190f35b610129600480360360808110156108c157600080fd5b810190602081018135600160201b8111156108db57600080fd5b8201836020820111156108ed57600080fd5b803590602001918460208302840111600160201b8311171561090e57600080fd5b919390929091602081019035600160201b81111561092b57600080fd5b82018360208201111561093d57600080fd5b803590602001918460208302840111600160201b8311171561095e57600080fd5b919390929091602081019035600160201b81111561097b57600080fd5b82018360208201111561098d57600080fd5b803590602001918460208302840111600160201b831117156109ae57600080fd5b919390929091602081019035600160201b8111156109cb57600080fd5b8201836020820111156109dd57600080fd5b803590602001918460208302840111600160201b831117156109fe57600080fd5b509092509050611cbb565b61012960048036036080811015610a1f57600080fd5b810190602081018135600160201b811115610a3957600080fd5b820183602082011115610a4b57600080fd5b803590602001918460208302840111600160201b83111715610a6c57600080fd5b919390929091602081019035600160201b811115610a8957600080fd5b820183602082011115610a9b57600080fd5b803590602001918460208302840111600160201b83111715610abc57600080fd5b919390929091602081019035600160201b811115610ad957600080fd5b820183602082011115610aeb57600080fd5b803590602001918460208302840111600160201b83111715610b0c57600080fd5b919390929091602081019035600160201b811115610b2957600080fd5b820183602082011115610b3b57600080fd5b803590602001918460208302840111600160201b83111715610b5c57600080fd5b509092509050611d34565b61012960048036036020811015610b7d57600080fd5b50356001600160a01b0316611dad565b60026000541415610bd3576040805162461bcd60e51b815260206004820152601f60248201526000805160206122c0833981519152604482015290519081900360640190fd5b60026000908155604080516001600160601b0319606088901b166020808301919091526034820187905260548083018790528351808403909101815260749092018352815191810191909120835260049052902060018101546001600160a01b03163314610c75576040805162461bcd60e51b815260206004820152600a6024820152693737ba103932b73a32b960b11b604482015290519081900360640190fd5b60018101546201518063ffffffff600160b01b83041642030490600160a01b900461ffff9081169082161115610ce6576040805162461bcd60e51b8152602060048201526011602482015270191d5c985d1a5bdb88195e18d959591959607a1b604482015290519081900360640190fd5b60408051632142170760e11b81523360048201523060248201526044810187905290516001600160a01b038816916342842e0e91606480830192600092919082900301818387803b158015610d3a57600080fd5b505af1158015610d4e573d6000803e3d6000fd5b50506003548454600093506001600160a01b03909116915063c6ee427f90600160f01b900460ff166007811115610d8157fe5b6040518263ffffffff1660e01b8152600401808260ff16815260200191505060206040518083038186803b158015610db857600080fd5b505afa158015610dcc573d6000803e3d6000fd5b505050506040513d6020811015610de257600080fd5b50518354909150610e1d903390610e0c90600160d01b900460e01b6001600160e01b031916611eb8565b6001600160a01b0384169190611f65565b6040805133815263ffffffff421660208201528151879289926001600160a01b038c16927fc2e5648ce895a76d6488be25b8cd6e98aab7b4a4bf183b1baea76ee09da6917d929181900390910190a45050600190810180546001600160d01b031916905560005550505050565b630a85bd0160e11b5b949350505050565b60005b8d811015610f6d57610f658f8f83818110610eb557fe5b905060200201356001600160a01b03168e8e84818110610ed157fe5b905060200201358d8d85818110610ee457fe5b9050602002013561ffff168c8c86818110610efb57fe5b9050602002013563ffffffff168b8b87818110610f1457fe5b9050602002013563ffffffff168a8a88818110610f2d57fe5b90506020020135600781118015610f4357600080fd5b50898989818110610f5057fe5b905060200201356001600160a01b0316610f7e565b600101610e9e565b505050505050505050505050505050565b60026000541415610fc4576040805162461bcd60e51b815260206004820152601f60248201526000805160206122c0833981519152604482015290519081900360640190fd5b600260005561ffff8516611012576040805162461bcd60e51b815260206004820152601060248201526f6174206c65617374206f6e652064617960801b604482015290519081900360640190fd5b60408051632142170760e11b81523360048201523060248201526044810188905290516001600160a01b038916916342842e0e91606480830192600092919082900301818387803b15801561106657600080fd5b505af115801561107a573d6000803e3d6000fd5b50505050600060046000898960025460405160200180846001600160a01b031660601b8152601401838152602001828152602001935050505060405160208183030381529060405280519060200120815260200190815260200160002090506040518060a00160405280336001600160a01b031681526020018761ffff1681526020018663ffffffff1681526020018563ffffffff16815260200184600781111561112157fe5b9052805182546020830151604084015160608501516001600160a01b03199093166001600160a01b039094169390931761ffff60a01b1916600160a01b61ffff909216919091021763ffffffff60b01b1916600160b01b63ffffffff938416021763ffffffff60d01b1916600160d01b92909116919091021780835560808201518391829060ff60f01b1916600160f01b8360078111156111be57fe5b0217905550905050336001600160a01b031687896001600160a01b03167f78868c543d8f4f530a989d9f6ba80dc2d95b3e5480d38b371305a04b3502903c6002548a8a8a8a604051808681526020018561ffff1681526020018463ffffffff1681526020018363ffffffff16815260200182600781111561123b57fe5b81526020019550505050505060405180910390a45050600280546001908101909155600055505050505050565b600260005414156112ae576040805162461bcd60e51b815260206004820152601f60248201526000805160206122c0833981519152604482015290519081900360640190fd5b6002600090815560408051606088901b6001600160601b031916602080830191909152603482018890526054808301889052835180840390910181526074909201835281519181019190912083526004905290206001810154600160a01b900461ffff1615611355576040805162461bcd60e51b815260206004820152600e60248201526d185b1c9958591e481c995b9d195960921b604482015290519081900360640190fd5b80546001600160a01b03163314156113a9576040805162461bcd60e51b815260206004820152601260248201527118d85b89dd081c995b9d081bdddb881b999d60721b604482015290519081900360640190fd5b805461ffff600160a01b90910481169084161115611406576040805162461bcd60e51b81526020600482015260156024820152741b585e08191d5c985d1a5bdb88195e18d959591959605a1b604482015290519081900360640190fd5b805460009061142890600160b01b900460e01b6001600160e01b031916611eb8565b600354835461ffff87169290920292506000916001600160a01b039091169063c6ee427f90600160f01b900460ff16600781111561146257fe5b6040518263ffffffff1660e01b8152600401808260ff16815260200191505060206040518083038186803b15801561149957600080fd5b505afa1580156114ad573d6000803e3d6000fd5b505050506040513d60208110156114c357600080fd5b505183549091506114e3906001600160a01b038084169133911685611fbc565b825461151c903390309061150a90600160d01b900460e01b6001600160e01b031916611eb8565b6001600160a01b038516929190611fbc565b60018301805463ffffffff42908116600160b01b0263ffffffff60b01b1961ffff8a16600160a01b0261ffff60a01b196001600160a01b0319909516339081179590951617161790925560408051632142170760e11b81523060048201526024810192909252604482018a9052516001600160a01b038b16916342842e0e91606480830192600092919082900301818387803b1580156115bb57600080fd5b505af11580156115cf573d6000803e3d6000fd5b5050604080518a815261ffff8a16602082015263ffffffff85168183015290513393508b92506001600160a01b038d16917f239fb88b47e519434a2459f6ad017abd6862eb213c907e9afbd40de3e7ed1c53919081900360600190a45050600160005550505050505050565b60408051606086901b6001600160601b031916602080830191909152603482018690526054808301869052835180840390910181526074909201835281519181019190912060009081526004909152206001810154600160a01b900461ffff16156116e4576040805162461bcd60e51b81526020600482015260146024820152736e66742072656e7465642063757272656e746c7960601b604482015290519081900360640190fd5b80546001600160a01b0316331461172f576040805162461bcd60e51b815260206004820152600a6024820152693737ba103632b73232b960b11b604482015290519081900360640190fd5b60408051632142170760e11b81523060048201523360248201526044810186905290516001600160a01b038716916342842e0e91606480830192600092919082900301818387803b15801561178357600080fd5b505af1158015611797573d6000803e3d6000fd5b505082546001600160f81b03191683555050604080514263ffffffff1681529051849186916001600160a01b038916917f8d66e30e8e86dc4affaf59a67cb9877f2935b867994fd273f9e7826dc99d82ef919081900360200190a45050505050565b60005b878110156118725761186a89898381811061181357fe5b905060200201356001600160a01b031688888481811061182f57fe5b9050602002013587878581811061184257fe5b9050602002013586868681811061185557fe5b905060200201356001600160a01b031661191a565b6001016117fc565b505050505050505050565b60005b8981101561190d576119058b8b8381811061189757fe5b905060200201356001600160a01b03168a8a848181106118b357fe5b905060200201358989858181106118c657fe5b905060200201358888868181106118d957fe5b9050602002013561ffff168787878181106118f057fe5b905060200201356001600160a01b0316611268565b600101611880565b5050505050505050505050565b60026000541415611960576040805162461bcd60e51b815260206004820152601f60248201526000805160206122c0833981519152604482015290519081900360640190fd5b6002600090815560408051606087901b6001600160601b031916602080830191909152603482018790526054808301879052835180840390910181526074909201835281519181019190912083526004905290206001810154600160a01b900461ffff16611a0a576040805162461bcd60e51b81526020600482015260126024820152711b999d081b9bdd081c995b9d1959081bdd5d60721b604482015290519081900360640190fd5b80546001600160a01b03163314611a55576040805162461bcd60e51b815260206004820152600a6024820152693737ba103632b73232b960b11b604482015290519081900360640190fd5b60018101546201518063ffffffff600160b01b83041642030490600160a01b900461ffff90811690821611611ac9576040805162461bcd60e51b8152602060048201526015602482015274191d5c985d1a5bdb881b9bdd08195e18d959591959605a1b604482015290519081900360640190fd5b60035482546000916001600160a01b03169063c6ee427f90600160f01b900460ff166007811115611af657fe5b6040518263ffffffff1660e01b8152600401808260ff16815260200191505060206040518083038186803b158015611b2d57600080fd5b505afa158015611b41573d6000803e3d6000fd5b505050506040513d6020811015611b5757600080fd5b50518354909150611b81903390610e0c90600160d01b900460e01b6001600160e01b031916611eb8565b82546001600160f81b03191683556001830180546001600160d01b0319169055604080514263ffffffff1681529051869188916001600160a01b038b16917f05aa5bfe8585cc13e8621c71274852eaa27e35b96473184ca96990fe6a38b809919081900360200190a4505060016000555050505050565b611c0061201c565b6001546001600160a01b03908116911614611c62576040805162461bcd60e51b815260206004820181905260248201527f4f776e61626c653a2063616c6c6572206973206e6f7420746865206f776e6572604482015290519081900360640190fd5b6001546040516000916001600160a01b0316907f8be0079c531659141344cd1fd0a4f28419497f9722a3daafe3b4186f6b6457e0908390a3600180546001600160a01b0319169055565b6001546001600160a01b031690565b60005b8781101561187257611d2c898983818110611cd557fe5b905060200201356001600160a01b0316888884818110611cf157fe5b90506020020135878785818110611d0457fe5b90506020020135868686818110611d1757fe5b905060200201356001600160a01b031661163b565b600101611cbe565b60005b8781101561187257611da5898983818110611d4e57fe5b905060200201356001600160a01b0316888884818110611d6a57fe5b90506020020135878785818110611d7d57fe5b90506020020135868686818110611d9057fe5b905060200201356001600160a01b0316610b8d565b600101611d37565b611db561201c565b6001546001600160a01b03908116911614611e17576040805162461bcd60e51b815260206004820181905260248201527f4f776e61626c653a2063616c6c6572206973206e6f7420746865206f776e6572604482015290519081900360640190fd5b6001600160a01b038116611e5c5760405162461bcd60e51b81526004018080602001828103825260268152602001806122e06026913960400191505060405180910390fd5b6001546040516001600160a01b038084169216907f8be0079c531659141344cd1fd0a4f28419497f9722a3daafe3b4186f6b6457e090600090a3600180546001600160a01b0319166001600160a01b0392909216919091179055565b6000816001600160f01b0319601082901b1660f082901c61ffff60e084901c16670de0b6b3a7640000820261270f821115611ef35761270f91505b6001600a815b8215611f31578161ffff168561ffff1681611f1057fe5b04905061ffff8116611f255760009250611f2c565b600a820291505b611ef9565b60008261ffff16670de0b6b3a764000081611f4857fe5b0461ffff9690961695909502939093019998505050505050505050565b604080516001600160a01b038416602482015260448082018490528251808303909101815260649091019091526020810180516001600160e01b031663a9059cbb60e01b179052611fb7908490612020565b505050565b604080516001600160a01b0380861660248301528416604482015260648082018490528251808303909101815260849091019091526020810180516001600160e01b03166323b872dd60e01b179052612016908590612020565b50505050565b3390565b6060612075826040518060400160405280602081526020017f5361666545524332303a206c6f772d6c6576656c2063616c6c206661696c6564815250856001600160a01b03166120d19092919063ffffffff16565b805190915015611fb75780806020019051602081101561209457600080fd5b5051611fb75760405162461bcd60e51b815260040180806020018281038252602a815260200180612306602a913960400191505060405180910390fd5b6060610e93848460008560606120e685612286565b612137576040805162461bcd60e51b815260206004820152601d60248201527f416464726573733a2063616c6c20746f206e6f6e2d636f6e7472616374000000604482015290519081900360640190fd5b60006060866001600160a01b031685876040518082805190602001908083835b602083106121765780518252601f199092019160209182019101612157565b6001836020036101000a03801982511681845116808217855250505050505090500191505060006040518083038185875af1925050503d80600081146121d8576040519150601f19603f3d011682016040523d82523d6000602084013e6121dd565b606091505b509150915081156121f1579150610e939050565b8051156122015780518082602001fd5b8360405162461bcd60e51b81526004018080602001828103825283818151815260200191508051906020019080838360005b8381101561224b578181015183820152602001612233565b50505050905090810190601f1680156122785780820380516001836020036101000a031916815260200191505b509250505060405180910390fd5b6000813f7fc5d2460186f7233c927e7db2dcc703c0e500b653ca82273b7bfad8045d85a470818114801590610e9357505015159291505056fe5265656e7472616e637947756172643a207265656e7472616e742063616c6c004f776e61626c653a206e6577206f776e657220697320746865207a65726f20616464726573735361666545524332303a204552433230206f7065726174696f6e20646964206e6f742073756363656564a2646970667358221220c916bdc05c34d05832fe7df4c32ccd440ce4761f1551c834b708bdfdaa8bf0fd64736f6c63430007050033",
  "immutableReferences": {},
  "source": "// SPDX-License-Identifier: MIT\npragma solidity ^0.7.0;\n\nimport \"../node_modules/@openzeppelin/contracts/utils/ReentrancyGuard.sol\";\nimport \"../node_modules/@openzeppelin/contracts/access/Ownable.sol\";\nimport \"../node_modules/@openzeppelin/contracts/token/ERC20/SafeERC20.sol\";\nimport \"../node_modules/@openzeppelin/contracts/token/ERC20/IERC20.sol\";\nimport \"../node_modules/@openzeppelin/contracts/token/ERC721/IERC721.sol\";\nimport \"../node_modules/@openzeppelin/contracts/token/ERC721/ERC721Holder.sol\";\n// import \"./ChiGasSaver.sol\";\nimport \"./Resolver.sol\";\n\ncontract RentNft is ReentrancyGuard, Ownable, ERC721Holder {\n  using SafeERC20 for IERC20;\n\n  // 256 bits -> 32 bytes\n  // address - 20 byte value -> 160 bits\n  uint32 private constant SECONDS_IN_A_DAY = 86400;\n  uint256 private id = 1;\n  Resolver private resolver;\n\n  event Lent(\n    address indexed nftAddress,\n    uint256 indexed tokenId,\n    uint256 lendingId,\n    address indexed lenderAddress,\n    uint16 maxRentDuration,\n    uint32 dailyRentPrice,\n    uint32 nftPrice,\n    PaymentToken paymentToken\n  );\n\n  event Rented(\n    address indexed nftAddress,\n    uint256 indexed tokenId,\n    uint256 lendingId,\n    address indexed renterAddress,\n    uint16 rentDuration,\n    uint32 rentedAt\n  );\n\n  event Returned(\n    address indexed nftAddress,\n    uint256 indexed tokenId,\n    uint256 indexed lendingId,\n    address renterAddress,\n    uint32 returnedAt\n  );\n\n  event CollateralClaimed(\n    address indexed nftAddress,\n    uint256 indexed tokenId,\n    uint256 indexed lendingId,\n    uint32 claimedAt\n  );\n\n  event LendingStopped(\n    address indexed nftAddress,\n    uint256 indexed tokenId,\n    uint256 indexed lendingId,\n    uint32 stoppedAt\n  );\n\n  struct Lending {\n    // 160 bits\n    address lenderAddress;\n    // 176 bits\n    uint16 maxRentDuration;\n    // 208 bits\n    uint32 dailyRentPrice;\n    // 240 bits\n    uint32 nftPrice;\n    // 248 bits\n    PaymentToken paymentToken;\n  }\n\n  struct Renting {\n    // 160 bits\n    address renterAddress;\n    // 176 bits\n    uint16 rentDuration;\n    // 198 bits\n    uint32 rentedAt;\n  }\n\n  struct LendingRenting {\n    Lending lending;\n    Renting renting;\n  }\n\n  enum PaymentToken {\n    DAI, // 0\n    USDC, // 1\n    USDT, // 2\n    TUSD, // 3\n    ETH, // 4\n    UNI, // 5\n    YFI, // 6\n    NAZ // 7\n  }\n\n  // 32 bytes key to 64 bytes struct\n  mapping(bytes32 => LendingRenting) private lendingRenting;\n\n  constructor(Resolver _resolver) {\n    resolver = _resolver;\n  }\n\n  function lendOne(\n    IERC721 _nftAddress,\n    uint256 _tokenId,\n    uint16 _maxRentDuration,\n    uint32 _dailyRentPrice,\n    uint32 _nftPrice,\n    PaymentToken _paymentToken,\n    address payable _gasSponsor\n  ) public nonReentrant {\n    require(_maxRentDuration > 0, \"at least one day\");\n\n    // edge-cases analysis\n    // 1. if I have lent out and try to lend out again. fail: since the nft was already transferred\n\n    // 120k gas ...\n    _nftAddress.safeTransferFrom(msg.sender, address(this), _tokenId);\n\n    LendingRenting storage item = lendingRenting[keccak256(\n      abi.encodePacked(address(_nftAddress), _tokenId, id)\n    )];\n\n    // 29.7k gas\n    item.lending = Lending({\n      lenderAddress: msg.sender,\n      maxRentDuration: _maxRentDuration,\n      dailyRentPrice: _dailyRentPrice,\n      nftPrice: _nftPrice,\n      paymentToken: _paymentToken\n    });\n\n    emit Lent(\n      address(_nftAddress),\n      _tokenId,\n      id,\n      msg.sender,\n      _maxRentDuration,\n      _dailyRentPrice,\n      _nftPrice,\n      _paymentToken\n    );\n\n    // changing from non-zero to something else costs 5000 gas\n    // however, changing from zero to something else costs 20k gas\n    id++;\n  }\n\n  function lendMultiple(\n    IERC721[] calldata _nftAddresses,\n    uint256[] calldata _tokenIds,\n    uint16[] calldata _maxRentDurations,\n    uint32[] calldata _dailyRentPrice,\n    uint32[] calldata _nftPrices,\n    PaymentToken[] calldata _paymentTokenAddresses,\n    address payable[] calldata _gasSponsors\n  ) external {\n    for (uint256 i = 0; i < _nftAddresses.length; i++) {\n      lendOne(\n        _nftAddresses[i],\n        _tokenIds[i],\n        _maxRentDurations[i],\n        _dailyRentPrice[i],\n        _nftPrices[i],\n        _paymentTokenAddresses[i],\n        _gasSponsors[i]\n      );\n    }\n  }\n\n  function rentOne(\n    IERC721 _nftAddress,\n    uint256 _tokenId,\n    uint256 _id,\n    uint16 _rentDuration,\n    address _gasSponsor\n  ) public nonReentrant {\n    // edge-cases analysis\n    // 1. what if I rent, immediately lend, and immediately borrow from myself\n    // - rent and lend steps will work with no issue; last rent step will fail\n    // - this is because we have a require here that the currentLender != msg.sender\n    // 2. acc A lends, acc B rents, acc B lends with maxDuration higher than original\n    // - TODO: this is currently allowed, I strongly believe it should not be. Since this\n    // increaes the risk of the platform\n\n    LendingRenting storage item = lendingRenting[keccak256(\n      abi.encodePacked(address(_nftAddress), _tokenId, _id)\n    )];\n\n    require(item.renting.rentDuration == 0, \"already rented\");\n\n    // ! this means that you can rent your own NFT and purposefully avoid returning it\n    // ! do we want such a mechanic?\n    // ! currentLender may not be you, but you may be the original lender, so this\n    // ! check would pass and so you could rent your own NFT\n    // ! if the new lender set a lower collateral, then your profit would be\n    // ! original collateral - borrow payments - current collateral\n    // ! we should leave this in, because this would incentivise the new lenders\n    // ! to consider the original quotes when setting their collateral, etc.\n    require(msg.sender != item.lending.lenderAddress, \"can't rent own nft\");\n    require(\n      _rentDuration <= item.lending.maxRentDuration,\n      \"max duration exceeded\"\n    );\n\n    // TODO: this should go to the contract as an escrow\n    // on return, or on collateral claim, we either give\n    // the lender the portion of the amounts, or all of them\n    uint256 rentPrice = _rentDuration *\n      _unpackPrice(bytes4(item.lending.dailyRentPrice));\n    IERC20 paymentToken = resolver.getPaymentToken(\n      uint8(item.lending.paymentToken)\n    );\n\n    paymentToken.safeTransferFrom(\n      msg.sender,\n      item.lending.lenderAddress,\n      rentPrice\n    );\n    paymentToken.safeTransferFrom(\n      msg.sender,\n      address(this),\n      _unpackPrice(bytes4(item.lending.nftPrice))\n    );\n\n    uint32 rentedAt = uint32(block.timestamp);\n\n    item.renting.renterAddress = msg.sender;\n    item.renting.rentDuration = _rentDuration;\n    item.renting.rentedAt = rentedAt;\n\n    _nftAddress.safeTransferFrom(address(this), msg.sender, _tokenId);\n\n    emit Rented(\n      address(_nftAddress),\n      _tokenId,\n      _id,\n      msg.sender,\n      _rentDuration,\n      rentedAt\n    );\n  }\n\n  function rentMultiple(\n    IERC721[] calldata _nftAddress,\n    uint256[] calldata _tokenId,\n    uint256[] calldata _id,\n    uint16[] calldata _rentDuration,\n    address payable[] calldata _gasSponsors\n  ) external {\n    for (uint256 i = 0; i < _nftAddress.length; i++) {\n      rentOne(_nftAddress[i], _tokenId[i], _id[i], _rentDuration[i], _gasSponsors[i]);\n    }\n  }\n\n  function returnOne(\n    IERC721 _nftAddress,\n    uint256 _tokenId,\n    uint256 _id,\n    address _gasSponsor\n  ) public nonReentrant {\n    LendingRenting storage item = lendingRenting[keccak256(\n      abi.encodePacked(address(_nftAddress), _tokenId, _id)\n    )];\n    require(item.renting.renterAddress == msg.sender, \"not renter\");\n    uint16 durationInDays = uint16((block.timestamp - item.renting.rentedAt) /\n      SECONDS_IN_A_DAY);\n    require(durationInDays <= item.renting.rentDuration, \"duration exceeded\");\n\n    _nftAddress.safeTransferFrom(msg.sender, address(this), _tokenId);\n\n    IERC20 paymentToken = resolver.getPaymentToken(\n      uint8(item.lending.paymentToken)\n    );\n    paymentToken.safeTransfer(\n      msg.sender,\n      _unpackPrice(bytes4(item.lending.nftPrice))\n    );\n\n    emit Returned(address(_nftAddress), _tokenId, _id, msg.sender, uint32(block.timestamp));\n\n    delete item.renting;\n  }\n\n  function returnMultiple(\n    IERC721[] calldata _nftAddress,\n    uint256[] calldata _tokenId,\n    uint256[] calldata _id,\n    address payable[] calldata _gasSponsors\n  ) external {\n    for (uint256 i = 0; i < _nftAddress.length; i++) {\n      returnOne(_nftAddress[i], _tokenId[i], _id[i], _gasSponsors[i]);\n    }\n  }\n\n  function claimCollateralOne(\n    IERC721 _nftAddress,\n    uint256 _tokenId,\n    uint256 _id,\n    address _gasSponsor\n  ) public nonReentrant {\n    LendingRenting storage item = lendingRenting[keccak256(\n      abi.encodePacked(address(_nftAddress), _tokenId, _id)\n    )];\n\n    require(item.renting.rentDuration != 0, \"nft not rented out\");\n    require(item.lending.lenderAddress == msg.sender, \"not lender\");\n\n    uint16 durationInDays = uint16((block.timestamp - item.renting.rentedAt) /\n      SECONDS_IN_A_DAY);\n\n    require(\n      durationInDays > item.renting.rentDuration,\n      \"duration not exceeded\"\n    );\n\n    IERC20 paymentToken = resolver.getPaymentToken(\n      uint8(item.lending.paymentToken)\n    );\n    paymentToken.safeTransfer(\n      msg.sender,\n      _unpackPrice(bytes4(item.lending.nftPrice))\n    );\n\n    delete item.lending;\n    delete item.renting;\n\n    emit CollateralClaimed(address(_nftAddress), _tokenId, _id, uint32(block.timestamp));\n  }\n\n  function claimCollateralMultiple(\n    IERC721[] calldata _nftAddress,\n    uint256[] calldata _tokenId,\n    uint256[] calldata _id,\n    address payable[] calldata _gasSponsors\n  ) external {\n    for (uint256 i = 0; i < _nftAddress.length; i++) {\n      claimCollateralOne(_nftAddress[i], _tokenId[i], _id[i], _gasSponsors[i]);\n    }\n  }\n\n  function stopLendingOne(\n    IERC721 _nftAddress,\n    uint256 _tokenId,\n    uint256 _id,\n    address _gasSponsor\n  ) public {\n    LendingRenting storage item = lendingRenting[keccak256(\n      abi.encodePacked(_nftAddress, _tokenId, _id)\n    )];\n\n    require(item.renting.rentDuration == 0, \"nft rented currently\");\n    require(item.lending.lenderAddress == msg.sender, \"not lender\");\n\n    IERC721(_nftAddress).safeTransferFrom(address(this), msg.sender, _tokenId);\n\n    delete item.lending;\n\n    emit LendingStopped(address(_nftAddress), _tokenId, _id, uint32(block.timestamp));\n  }\n\n  function stopLendingMultiple(\n    IERC721[] calldata _nftAddress,\n    uint256[] calldata _tokenId,\n    uint256[] calldata _id,\n    address payable[] calldata _gasSponsors\n  ) external {\n    for (uint256 i = 0; i < _nftAddress.length; i++) {\n      stopLendingOne(_nftAddress[i], _tokenId[i], _id[i], _gasSponsors[i]);\n    }\n  }\n\n  // We can't use uint256 for prices in the struct because\n  // we must fit our struct in a single 32 byte chunk.\n  // Since, no-one in their right mind will ever pay\n  // $65k to rent an NFT for a single day, we have\n  // set up this constraint on the prices that they\n  // both are uint32. It is possible we may use\n  // uint40 for collateral and uint24 for dailyRentPrice.\n  // Anyhow, this constraint helps save us some extra 40k\n  // in gas, that you dear lender and reader would pay.\n  // So working under this constraints, the first 4 hexbytes\n  // of the packed price contain the whole number information,\n  // whereas the last 4 bytes represent the decimal portion\n  // ! assumes 18 decimal places !\n  // TODO: not the most efficient way of packing. Operating on\n  // the bit level would allow us to give some extra precision\n  // for the whole part. We are only using about 1/6th of the space\n  // available for the decimal part. Our decimal part spans from 0 to 9999\n  // but we have extra 65535 - 9999 numbers that could be used in the\n  // whole part! Potentially, making the maximum 65535 + 65535 - 9999 = \n  // 120000 + 11070 - 10000 + 1 = 120000 + 1071 = 121071\n  // ----- Examples\n  // 0x000f000f is 16.0016\n  // 0x001f0001 is 17.0001\n  // ----- Constraints\n  // The maximum whole number is therefore 65535\n  // The maximum decimal is 0.9999\n  // Therefore the prices can be in [0, 65535.9999]\n  function _unpackPrice(bytes4 _price) internal pure returns (uint256) {\n    bytes2 who = bytes2(_price);\n    bytes2 dec = bytes2(_price << 16);\n\n    uint16 whole = uint16(who);\n    uint16 decimal = uint16(dec);\n\n    uint256 w = uint256(whole) * 1e18;\n\n    if (decimal > 9999) {\n      decimal = 9999;\n    }\n\n    bool find = true;\n    uint16 divisor = 10;\n    uint16 res = 1;\n\n    while (find) {\n      res = decimal / divisor;\n      if (res == 0) {\n        find = false;\n      } else {\n        divisor *= 10;\n      }\n    }\n\n    uint256 d = decimal * (1e18 / uint256(divisor));\n\n    uint256 price = d + w;\n\n    return price;\n  }\n}\n",
  "sourcePath": "/home/shredder/git/renft/contracts/contracts/RentNft.sol",
  "compiler": {
    "name": "solc",
    "version": "0.7.5+commit.eb77ed08.Emscripten.clang"
  },
  "schemaVersion": "3.3.1",
  "updatedAt": "2020-12-04T10:18:25.625Z",
  "networkType": "ethereum",
  "devdoc": {
    "kind": "dev",
    "methods": {
      "onERC721Received(address,address,uint256,bytes)": {
        "details": "See {IERC721Receiver-onERC721Received}. Always returns `IERC721Receiver.onERC721Received.selector`."
      },
      "owner()": {
        "details": "Returns the address of the current owner."
      },
      "renounceOwnership()": {
        "details": "Leaves the contract without owner. It will not be possible to call `onlyOwner` functions anymore. Can only be called by the current owner. NOTE: Renouncing ownership will leave the contract without an owner, thereby removing any functionality that is only available to the owner."
      },
      "transferOwnership(address)": {
        "details": "Transfers ownership of the contract to a new account (`newOwner`). Can only be called by the current owner."
      }
    },
    "version": 1
  },
  "userdoc": {
    "kind": "user",
    "methods": {},
    "version": 1
  }
}