{
  "contractName": "RentNft",
  "abi": [
    {
      "inputs": [
        {
          "internalType": "contract Resolver",
          "name": "_resolver",
          "type": "address"
        }
      ],
      "stateMutability": "nonpayable",
      "type": "constructor"
    },
    {
      "anonymous": false,
      "inputs": [
        {
          "indexed": true,
          "internalType": "bytes32",
          "name": "lendingId",
          "type": "bytes32"
        },
        {
          "indexed": true,
          "internalType": "address",
          "name": "nftAddress",
          "type": "address"
        },
        {
          "indexed": true,
          "internalType": "uint256",
          "name": "tokenId",
          "type": "uint256"
        },
        {
          "indexed": false,
          "internalType": "uint32",
          "name": "claimedAt",
          "type": "uint32"
        }
      ],
      "name": "CollateralClaimed",
      "type": "event"
    },
    {
      "anonymous": false,
      "inputs": [
        {
          "indexed": true,
          "internalType": "bytes32",
          "name": "lendingId",
          "type": "bytes32"
        },
        {
          "indexed": true,
          "internalType": "address",
          "name": "nftAddress",
          "type": "address"
        },
        {
          "indexed": true,
          "internalType": "uint256",
          "name": "tokenId",
          "type": "uint256"
        },
        {
          "indexed": false,
          "internalType": "uint32",
          "name": "stoppedAt",
          "type": "uint32"
        }
      ],
      "name": "LendingStopped",
      "type": "event"
    },
    {
      "anonymous": false,
      "inputs": [
        {
          "indexed": true,
          "internalType": "address",
          "name": "nftAddress",
          "type": "address"
        },
        {
          "indexed": true,
          "internalType": "uint256",
          "name": "tokenId",
          "type": "uint256"
        },
        {
          "indexed": true,
          "internalType": "address",
          "name": "lenderAddress",
          "type": "address"
        },
        {
          "indexed": false,
          "internalType": "uint256",
          "name": "lendingId",
          "type": "uint256"
        },
        {
          "indexed": false,
          "internalType": "uint16",
          "name": "maxRentDuration",
          "type": "uint16"
        },
        {
          "indexed": false,
          "internalType": "uint32",
          "name": "dailyRentPrice",
          "type": "uint32"
        },
        {
          "indexed": false,
          "internalType": "uint32",
          "name": "nftPrice",
          "type": "uint32"
        },
        {
          "indexed": false,
          "internalType": "enum RentNft.PaymentToken",
          "name": "paymentToken",
          "type": "uint8"
        }
      ],
      "name": "Lent",
      "type": "event"
    },
    {
      "anonymous": false,
      "inputs": [
        {
          "indexed": true,
          "internalType": "address",
          "name": "previousOwner",
          "type": "address"
        },
        {
          "indexed": true,
          "internalType": "address",
          "name": "newOwner",
          "type": "address"
        }
      ],
      "name": "OwnershipTransferred",
      "type": "event"
    },
    {
      "anonymous": false,
      "inputs": [
        {
          "indexed": true,
          "internalType": "bytes32",
          "name": "lendingId",
          "type": "bytes32"
        },
        {
          "indexed": true,
          "internalType": "address",
          "name": "nftAddress",
          "type": "address"
        },
        {
          "indexed": true,
          "internalType": "uint256",
          "name": "tokenId",
          "type": "uint256"
        },
        {
          "indexed": false,
          "internalType": "address",
          "name": "renterAddress",
          "type": "address"
        },
        {
          "indexed": false,
          "internalType": "uint16",
          "name": "rentDuration",
          "type": "uint16"
        },
        {
          "indexed": false,
          "internalType": "uint32",
          "name": "rentedAt",
          "type": "uint32"
        }
      ],
      "name": "Rented",
      "type": "event"
    },
    {
      "anonymous": false,
      "inputs": [
        {
          "indexed": true,
          "internalType": "address",
          "name": "nftAddress",
          "type": "address"
        },
        {
          "indexed": true,
          "internalType": "uint256",
          "name": "tokenId",
          "type": "uint256"
        },
        {
          "indexed": true,
          "internalType": "bytes32",
          "name": "lendingId",
          "type": "bytes32"
        },
        {
          "indexed": false,
          "internalType": "address",
          "name": "renterAddress",
          "type": "address"
        }
      ],
      "name": "Returned",
      "type": "event"
    },
    {
      "inputs": [
        {
          "internalType": "address",
          "name": "",
          "type": "address"
        },
        {
          "internalType": "address",
          "name": "",
          "type": "address"
        },
        {
          "internalType": "uint256",
          "name": "",
          "type": "uint256"
        },
        {
          "internalType": "bytes",
          "name": "",
          "type": "bytes"
        }
      ],
      "name": "onERC721Received",
      "outputs": [
        {
          "internalType": "bytes4",
          "name": "",
          "type": "bytes4"
        }
      ],
      "stateMutability": "nonpayable",
      "type": "function"
    },
    {
      "inputs": [],
      "name": "owner",
      "outputs": [
        {
          "internalType": "address",
          "name": "",
          "type": "address"
        }
      ],
      "stateMutability": "view",
      "type": "function"
    },
    {
      "inputs": [],
      "name": "renounceOwnership",
      "outputs": [],
      "stateMutability": "nonpayable",
      "type": "function"
    },
    {
      "inputs": [
        {
          "internalType": "address",
          "name": "newOwner",
          "type": "address"
        }
      ],
      "name": "transferOwnership",
      "outputs": [],
      "stateMutability": "nonpayable",
      "type": "function"
    },
    {
      "inputs": [
        {
          "internalType": "contract IERC721",
          "name": "_nftAddress",
          "type": "address"
        },
        {
          "internalType": "uint256",
          "name": "_tokenId",
          "type": "uint256"
        },
        {
          "internalType": "uint16",
          "name": "_maxRentDuration",
          "type": "uint16"
        },
        {
          "internalType": "uint32",
          "name": "_dailyRentPrice",
          "type": "uint32"
        },
        {
          "internalType": "uint32",
          "name": "_nftPrice",
          "type": "uint32"
        },
        {
          "internalType": "enum RentNft.PaymentToken",
          "name": "_paymentToken",
          "type": "uint8"
        },
        {
          "internalType": "address payable",
          "name": "_gasSponsor",
          "type": "address"
        }
      ],
      "name": "lendOne",
      "outputs": [],
      "stateMutability": "nonpayable",
      "type": "function"
    },
    {
      "inputs": [
        {
          "internalType": "contract IERC721[]",
          "name": "_nftAddresses",
          "type": "address[]"
        },
        {
          "internalType": "uint256[]",
          "name": "_tokenIds",
          "type": "uint256[]"
        },
        {
          "internalType": "uint16[]",
          "name": "_maxRentDurations",
          "type": "uint16[]"
        },
        {
          "internalType": "uint32[]",
          "name": "_dailyRentPrice",
          "type": "uint32[]"
        },
        {
          "internalType": "uint32[]",
          "name": "_nftPrices",
          "type": "uint32[]"
        },
        {
          "internalType": "enum RentNft.PaymentToken[]",
          "name": "_paymentTokenAddresses",
          "type": "uint8[]"
        },
        {
          "internalType": "address payable[]",
          "name": "_gasSponsors",
          "type": "address[]"
        }
      ],
      "name": "lendMultiple",
      "outputs": [],
      "stateMutability": "nonpayable",
      "type": "function"
    },
    {
      "inputs": [
        {
          "internalType": "contract IERC721",
          "name": "_nftAddress",
          "type": "address"
        },
        {
          "internalType": "uint256",
          "name": "_tokenId",
          "type": "uint256"
        },
        {
          "internalType": "uint256",
          "name": "_id",
          "type": "uint256"
        },
        {
          "internalType": "bytes32",
          "name": "__id",
          "type": "bytes32"
        },
        {
          "internalType": "uint16",
          "name": "_rentDuration",
          "type": "uint16"
        },
        {
          "internalType": "address",
          "name": "_gasSponsor",
          "type": "address"
        }
      ],
      "name": "rentOne",
      "outputs": [],
      "stateMutability": "nonpayable",
      "type": "function"
    },
    {
      "inputs": [
        {
          "internalType": "contract IERC721[]",
          "name": "_nftAddress",
          "type": "address[]"
        },
        {
          "internalType": "uint256[]",
          "name": "_tokenId",
          "type": "uint256[]"
        },
        {
          "internalType": "uint256[]",
          "name": "_id",
          "type": "uint256[]"
        },
        {
          "internalType": "bytes32[]",
          "name": "__id",
          "type": "bytes32[]"
        },
        {
          "internalType": "uint16[]",
          "name": "_rentDuration",
          "type": "uint16[]"
        },
        {
          "internalType": "address payable[]",
          "name": "_gasSponsors",
          "type": "address[]"
        }
      ],
      "name": "rentMultiple",
      "outputs": [],
      "stateMutability": "nonpayable",
      "type": "function"
    },
    {
      "inputs": [
        {
          "internalType": "contract IERC721",
          "name": "_nftAddress",
          "type": "address"
        },
        {
          "internalType": "uint256",
          "name": "_tokenId",
          "type": "uint256"
        },
        {
          "internalType": "uint256",
          "name": "_id",
          "type": "uint256"
        },
        {
          "internalType": "bytes32",
          "name": "__id",
          "type": "bytes32"
        },
        {
          "internalType": "address",
          "name": "_gasSponsor",
          "type": "address"
        }
      ],
      "name": "returnOne",
      "outputs": [],
      "stateMutability": "nonpayable",
      "type": "function"
    },
    {
      "inputs": [
        {
          "internalType": "contract IERC721[]",
          "name": "_nftAddress",
          "type": "address[]"
        },
        {
          "internalType": "uint256[]",
          "name": "_tokenId",
          "type": "uint256[]"
        },
        {
          "internalType": "uint256[]",
          "name": "_id",
          "type": "uint256[]"
        },
        {
          "internalType": "bytes32[]",
          "name": "__id",
          "type": "bytes32[]"
        },
        {
          "internalType": "address payable[]",
          "name": "_gasSponsors",
          "type": "address[]"
        }
      ],
      "name": "returnMultiple",
      "outputs": [],
      "stateMutability": "nonpayable",
      "type": "function"
    },
    {
      "inputs": [
        {
          "internalType": "contract IERC721",
          "name": "_nftAddress",
          "type": "address"
        },
        {
          "internalType": "uint256",
          "name": "_tokenId",
          "type": "uint256"
        },
        {
          "internalType": "uint256",
          "name": "_id",
          "type": "uint256"
        },
        {
          "internalType": "bytes32",
          "name": "__id",
          "type": "bytes32"
        },
        {
          "internalType": "address",
          "name": "_gasSponsor",
          "type": "address"
        }
      ],
      "name": "claimCollateralOne",
      "outputs": [],
      "stateMutability": "nonpayable",
      "type": "function"
    },
    {
      "inputs": [
        {
          "internalType": "contract IERC721[]",
          "name": "_nftAddress",
          "type": "address[]"
        },
        {
          "internalType": "uint256[]",
          "name": "_tokenId",
          "type": "uint256[]"
        },
        {
          "internalType": "uint256[]",
          "name": "_id",
          "type": "uint256[]"
        },
        {
          "internalType": "bytes32[]",
          "name": "__id",
          "type": "bytes32[]"
        },
        {
          "internalType": "address payable[]",
          "name": "_gasSponsors",
          "type": "address[]"
        }
      ],
      "name": "claimCollateralMultiple",
      "outputs": [],
      "stateMutability": "nonpayable",
      "type": "function"
    },
    {
      "inputs": [
        {
          "internalType": "contract IERC721",
          "name": "_nftAddress",
          "type": "address"
        },
        {
          "internalType": "uint256",
          "name": "_tokenId",
          "type": "uint256"
        },
        {
          "internalType": "uint256",
          "name": "_id",
          "type": "uint256"
        },
        {
          "internalType": "bytes32",
          "name": "__id",
          "type": "bytes32"
        },
        {
          "internalType": "address",
          "name": "_gasSponsor",
          "type": "address"
        }
      ],
      "name": "stopLendingOne",
      "outputs": [],
      "stateMutability": "nonpayable",
      "type": "function"
    },
    {
      "inputs": [
        {
          "internalType": "contract IERC721[]",
          "name": "_nftAddress",
          "type": "address[]"
        },
        {
          "internalType": "uint256[]",
          "name": "_tokenId",
          "type": "uint256[]"
        },
        {
          "internalType": "uint256[]",
          "name": "_id",
          "type": "uint256[]"
        },
        {
          "internalType": "bytes32[]",
          "name": "__id",
          "type": "bytes32[]"
        },
        {
          "internalType": "address payable[]",
          "name": "_gasSponsors",
          "type": "address[]"
        }
      ],
      "name": "stopLendingMultiple",
      "outputs": [],
      "stateMutability": "nonpayable",
      "type": "function"
    }
  ],
  "bytecode": "0x608060405260016002553480156200001657600080fd5b506040516200370438038062003704833981810160405260208110156200003c57600080fd5b810190808051906020019092919050505060016000819055506000620000676200014e60201b60201c565b905080600160006101000a81548173ffffffffffffffffffffffffffffffffffffffff021916908373ffffffffffffffffffffffffffffffffffffffff1602179055508073ffffffffffffffffffffffffffffffffffffffff16600073ffffffffffffffffffffffffffffffffffffffff167f8be0079c531659141344cd1fd0a4f28419497f9722a3daafe3b4186f6b6457e060405160405180910390a35080600360006101000a81548173ffffffffffffffffffffffffffffffffffffffff021916908373ffffffffffffffffffffffffffffffffffffffff1602179055505062000156565b600033905090565b61359e80620001666000396000f3fe608060405234801561001057600080fd5b50600436106100ea5760003560e01c80638da5cb5b1161008c578063c243b16311610066578063c243b16314610c53578063ccb3d1ea14610cd5578063f2fde38b14610d57578063feb457a214610d9b576100ea565b80638da5cb5b146109c2578063a9c5e266146109f6578063af983d2e14610bc3576100ea565b806319f2585a116100c857806319f2585a14610547578063715018a61461076957806371795fbe1461077357806377a98d60146107f5576100ea565b8063150b7a02146100ef5780631852f20d14610227578063187aa7521461049e575b600080fd5b6101f26004803603608081101561010557600080fd5b81019080803573ffffffffffffffffffffffffffffffffffffffff169060200190929190803573ffffffffffffffffffffffffffffffffffffffff169060200190929190803590602001909291908035906020019064010000000081111561016c57600080fd5b82018360208201111561017e57600080fd5b803590602001918460018302840111640100000000831117156101a057600080fd5b91908080601f016020809104026020016040519081016040528093929190818152602001838380828437600081840152601f19601f820116905080830192505050505050509192919290505050610f68565b60405180827bffffffffffffffffffffffffffffffffffffffffffffffffffffffff1916815260200191505060405180910390f35b61049c600480360360e081101561023d57600080fd5b810190808035906020019064010000000081111561025a57600080fd5b82018360208201111561026c57600080fd5b8035906020019184602083028401116401000000008311171561028e57600080fd5b9091929391929390803590602001906401000000008111156102af57600080fd5b8201836020820111156102c157600080fd5b803590602001918460208302840111640100000000831117156102e357600080fd5b90919293919293908035906020019064010000000081111561030457600080fd5b82018360208201111561031657600080fd5b8035906020019184602083028401116401000000008311171561033857600080fd5b90919293919293908035906020019064010000000081111561035957600080fd5b82018360208201111561036b57600080fd5b8035906020019184602083028401116401000000008311171561038d57600080fd5b9091929391929390803590602001906401000000008111156103ae57600080fd5b8201836020820111156103c057600080fd5b803590602001918460208302840111640100000000831117156103e257600080fd5b90919293919293908035906020019064010000000081111561040357600080fd5b82018360208201111561041557600080fd5b8035906020019184602083028401116401000000008311171561043757600080fd5b90919293919293908035906020019064010000000081111561045857600080fd5b82018360208201111561046a57600080fd5b8035906020019184602083028401116401000000008311171561048c57600080fd5b9091929391929390505050610f7c565b005b610545600480360360e08110156104b457600080fd5b81019080803573ffffffffffffffffffffffffffffffffffffffff16906020019092919080359060200190929190803561ffff169060200190929190803563ffffffff169060200190929190803563ffffffff169060200190929190803560ff169060200190929190803573ffffffffffffffffffffffffffffffffffffffff169060200190929190505050611081565b005b610767600480360360c081101561055d57600080fd5b810190808035906020019064010000000081111561057a57600080fd5b82018360208201111561058c57600080fd5b803590602001918460208302840111640100000000831117156105ae57600080fd5b9091929391929390803590602001906401000000008111156105cf57600080fd5b8201836020820111156105e157600080fd5b8035906020019184602083028401116401000000008311171561060357600080fd5b90919293919293908035906020019064010000000081111561062457600080fd5b82018360208201111561063657600080fd5b8035906020019184602083028401116401000000008311171561065857600080fd5b90919293919293908035906020019064010000000081111561067957600080fd5b82018360208201111561068b57600080fd5b803590602001918460208302840111640100000000831117156106ad57600080fd5b9091929391929390803590602001906401000000008111156106ce57600080fd5b8201836020820111156106e057600080fd5b8035906020019184602083028401116401000000008311171561070257600080fd5b90919293919293908035906020019064010000000081111561072357600080fd5b82018360208201111561073557600080fd5b8035906020019184602083028401116401000000008311171561075757600080fd5b9091929391929390505050611492565b005b610771611566565b005b6107f3600480360360a081101561078957600080fd5b81019080803573ffffffffffffffffffffffffffffffffffffffff169060200190929190803590602001909291908035906020019092919080359060200190929190803573ffffffffffffffffffffffffffffffffffffffff1690602001909291905050506116f1565b005b6109c0600480360360a081101561080b57600080fd5b810190808035906020019064010000000081111561082857600080fd5b82018360208201111561083a57600080fd5b8035906020019184602083028401116401000000008311171561085c57600080fd5b90919293919293908035906020019064010000000081111561087d57600080fd5b82018360208201111561088f57600080fd5b803590602001918460208302840111640100000000831117156108b157600080fd5b9091929391929390803590602001906401000000008111156108d257600080fd5b8201836020820111156108e457600080fd5b8035906020019184602083028401116401000000008311171561090657600080fd5b90919293919293908035906020019064010000000081111561092757600080fd5b82018360208201111561093957600080fd5b8035906020019184602083028401116401000000008311171561095b57600080fd5b90919293919293908035906020019064010000000081111561097c57600080fd5b82018360208201111561098e57600080fd5b803590602001918460208302840111640100000000831117156109b057600080fd5b9091929391929390505050611c60565b005b6109ca611d1b565b604051808273ffffffffffffffffffffffffffffffffffffffff16815260200191505060405180910390f35b610bc1600480360360a0811015610a0c57600080fd5b8101908080359060200190640100000000811115610a2957600080fd5b820183602082011115610a3b57600080fd5b80359060200191846020830284011164010000000083111715610a5d57600080fd5b909192939192939080359060200190640100000000811115610a7e57600080fd5b820183602082011115610a9057600080fd5b80359060200191846020830284011164010000000083111715610ab257600080fd5b909192939192939080359060200190640100000000811115610ad357600080fd5b820183602082011115610ae557600080fd5b80359060200191846020830284011164010000000083111715610b0757600080fd5b909192939192939080359060200190640100000000811115610b2857600080fd5b820183602082011115610b3a57600080fd5b80359060200191846020830284011164010000000083111715610b5c57600080fd5b909192939192939080359060200190640100000000811115610b7d57600080fd5b820183602082011115610b8f57600080fd5b80359060200191846020830284011164010000000083111715610bb157600080fd5b9091929391929390505050611d45565b005b610c51600480360360c0811015610bd957600080fd5b81019080803573ffffffffffffffffffffffffffffffffffffffff169060200190929190803590602001909291908035906020019092919080359060200190929190803561ffff169060200190929190803573ffffffffffffffffffffffffffffffffffffffff169060200190929190505050611e00565b005b610cd3600480360360a0811015610c6957600080fd5b81019080803573ffffffffffffffffffffffffffffffffffffffff169060200190929190803590602001909291908035906020019092919080359060200190929190803573ffffffffffffffffffffffffffffffffffffffff169060200190929190505050612444565b005b610d55600480360360a0811015610ceb57600080fd5b81019080803573ffffffffffffffffffffffffffffffffffffffff169060200190929190803590602001909291908035906020019092919080359060200190929190803573ffffffffffffffffffffffffffffffffffffffff16906020019092919050505061278b565b005b610d9960048036036020811015610d6d57600080fd5b81019080803573ffffffffffffffffffffffffffffffffffffffff169060200190929190505050612c9d565b005b610f66600480360360a0811015610db157600080fd5b8101908080359060200190640100000000811115610dce57600080fd5b820183602082011115610de057600080fd5b80359060200191846020830284011164010000000083111715610e0257600080fd5b909192939192939080359060200190640100000000811115610e2357600080fd5b820183602082011115610e3557600080fd5b80359060200191846020830284011164010000000083111715610e5757600080fd5b909192939192939080359060200190640100000000811115610e7857600080fd5b820183602082011115610e8a57600080fd5b80359060200191846020830284011164010000000083111715610eac57600080fd5b909192939192939080359060200190640100000000811115610ecd57600080fd5b820183602082011115610edf57600080fd5b80359060200191846020830284011164010000000083111715610f0157600080fd5b909192939192939080359060200190640100000000811115610f2257600080fd5b820183602082011115610f3457600080fd5b80359060200191846020830284011164010000000083111715610f5657600080fd5b9091929391929390505050612ead565b005b600063150b7a0260e01b9050949350505050565b60005b8e8e9050811015611070576110638f8f83818110610f9957fe5b9050602002013573ffffffffffffffffffffffffffffffffffffffff168e8e84818110610fc257fe5b905060200201358d8d85818110610fd557fe5b9050602002013561ffff168c8c86818110610fec57fe5b9050602002013563ffffffff168b8b8781811061100557fe5b9050602002013563ffffffff168a8a8881811061101e57fe5b9050602002013560078111801561103457600080fd5b5089898981811061104157fe5b9050602002013573ffffffffffffffffffffffffffffffffffffffff16611081565b8080600101915050610f7f565b505050505050505050505050505050565b600260005414156110fa576040517f08c379a000000000000000000000000000000000000000000000000000000000815260040180806020018281038252601f8152602001807f5265656e7472616e637947756172643a207265656e7472616e742063616c6c0081525060200191505060405180910390fd5b600260008190555060008561ffff161161117c576040517f08c379a00000000000000000000000000000000000000000000000000000000081526004018080602001828103825260108152602001807f6174206c65617374206f6e65206461790000000000000000000000000000000081525060200191505060405180910390fd5b8673ffffffffffffffffffffffffffffffffffffffff166342842e0e3330896040518463ffffffff1660e01b8152600401808473ffffffffffffffffffffffffffffffffffffffff1681526020018373ffffffffffffffffffffffffffffffffffffffff1681526020018281526020019350505050600060405180830381600087803b15801561120b57600080fd5b505af115801561121f573d6000803e3d6000fd5b505050506000600460008989600254604051602001808473ffffffffffffffffffffffffffffffffffffffff1660601b8152601401838152602001828152602001935050505060405160208183030381529060405280519060200120815260200190815260200160002090506040518060a001604052803373ffffffffffffffffffffffffffffffffffffffff1681526020018761ffff1681526020018663ffffffff1681526020018563ffffffff1681526020018460078111156112e057fe5b8152508160000160008201518160000160006101000a81548173ffffffffffffffffffffffffffffffffffffffff021916908373ffffffffffffffffffffffffffffffffffffffff16021790555060208201518160000160146101000a81548161ffff021916908361ffff16021790555060408201518160000160166101000a81548163ffffffff021916908363ffffffff160217905550606082015181600001601a6101000a81548163ffffffff021916908363ffffffff160217905550608082015181600001601e6101000a81548160ff021916908360078111156113c357fe5b02179055509050503373ffffffffffffffffffffffffffffffffffffffff16878973ffffffffffffffffffffffffffffffffffffffff167f6304a3972cb8b1b0edc83e25c2360c11252e809c6412152c885460f1831e5cee6002548a8a8a8a604051808681526020018561ffff1681526020018463ffffffff1681526020018363ffffffff16815260200182600781111561145a57fe5b81526020019550505050505060405180910390a460026000815480929190600101919050555050600160008190555050505050505050565b60005b8c8c90508110156115575761154a8d8d838181106114af57fe5b9050602002013573ffffffffffffffffffffffffffffffffffffffff168c8c848181106114d857fe5b905060200201358b8b858181106114eb57fe5b905060200201358a8a868181106114fe57fe5b9050602002013589898781811061151157fe5b9050602002013561ffff1688888881811061152857fe5b9050602002013573ffffffffffffffffffffffffffffffffffffffff16611e00565b8080600101915050611495565b50505050505050505050505050565b61156e612f68565b73ffffffffffffffffffffffffffffffffffffffff16600160009054906101000a900473ffffffffffffffffffffffffffffffffffffffff1673ffffffffffffffffffffffffffffffffffffffff1614611630576040517f08c379a00000000000000000000000000000000000000000000000000000000081526004018080602001828103825260208152602001807f4f776e61626c653a2063616c6c6572206973206e6f7420746865206f776e657281525060200191505060405180910390fd5b600073ffffffffffffffffffffffffffffffffffffffff16600160009054906101000a900473ffffffffffffffffffffffffffffffffffffffff1673ffffffffffffffffffffffffffffffffffffffff167f8be0079c531659141344cd1fd0a4f28419497f9722a3daafe3b4186f6b6457e060405160405180910390a36000600160006101000a81548173ffffffffffffffffffffffffffffffffffffffff021916908373ffffffffffffffffffffffffffffffffffffffff160217905550565b6002600054141561176a576040517f08c379a000000000000000000000000000000000000000000000000000000000815260040180806020018281038252601f8152602001807f5265656e7472616e637947756172643a207265656e7472616e742063616c6c0081525060200191505060405180910390fd5b6002600081905550600060046000878787604051602001808473ffffffffffffffffffffffffffffffffffffffff1660601b81526014018381526020018281526020019350505050604051602081830303815290604052805190602001208152602001908152602001600020905060008160010160000160149054906101000a900461ffff1661ffff161415611868576040517f08c379a00000000000000000000000000000000000000000000000000000000081526004018080602001828103825260128152602001807f6e6674206e6f742072656e746564206f7574000000000000000000000000000081525060200191505060405180910390fd5b3373ffffffffffffffffffffffffffffffffffffffff168160000160000160009054906101000a900473ffffffffffffffffffffffffffffffffffffffff1673ffffffffffffffffffffffffffffffffffffffff1614611930576040517f08c379a000000000000000000000000000000000000000000000000000000000815260040180806020018281038252600a8152602001807f6e6f74206c656e6465720000000000000000000000000000000000000000000081525060200191505060405180910390fd5b60006201518063ffffffff168260010160000160169054906101000a900463ffffffff1663ffffffff1642038161196357fe5b0490508160010160000160149054906101000a900461ffff1661ffff168161ffff16116119f8576040517f08c379a00000000000000000000000000000000000000000000000000000000081526004018080602001828103825260158152602001807f6475726174696f6e206e6f74206578636565646564000000000000000000000081525060200191505060405180910390fd5b6000600360009054906101000a900473ffffffffffffffffffffffffffffffffffffffff1673ffffffffffffffffffffffffffffffffffffffff1663c6ee427f84600001600001601e9054906101000a900460ff166007811115611a5857fe5b6040518263ffffffff1660e01b8152600401808260ff16815260200191505060206040518083038186803b158015611a8f57600080fd5b505afa158015611aa3573d6000803e3d6000fd5b505050506040513d6020811015611ab957600080fd5b81019080805190602001909291905050509050611b1933611af385600001600001601a9054906101000a900463ffffffff1660e01b612f70565b8373ffffffffffffffffffffffffffffffffffffffff1661305d9092919063ffffffff16565b82600001600080820160006101000a81549073ffffffffffffffffffffffffffffffffffffffff02191690556000820160146101000a81549061ffff02191690556000820160166101000a81549063ffffffff021916905560008201601a6101000a81549063ffffffff021916905560008201601e6101000a81549060ff0219169055505082600101600080820160006101000a81549073ffffffffffffffffffffffffffffffffffffffff02191690556000820160146101000a81549061ffff02191690556000820160166101000a81549063ffffffff02191690555050868873ffffffffffffffffffffffffffffffffffffffff16867fcefe5699ea7e10c6dff85c13511378b5c405249a4618b7460a2ae7044da95bc642604051808263ffffffff16815260200191505060405180910390a450505060016000819055505050505050565b60005b8a8a9050811015611d0e57611d018b8b83818110611c7d57fe5b9050602002013573ffffffffffffffffffffffffffffffffffffffff168a8a84818110611ca657fe5b90506020020135898985818110611cb957fe5b90506020020135888886818110611ccc57fe5b90506020020135878787818110611cdf57fe5b9050602002013573ffffffffffffffffffffffffffffffffffffffff1661278b565b8080600101915050611c63565b5050505050505050505050565b6000600160009054906101000a900473ffffffffffffffffffffffffffffffffffffffff16905090565b60005b8a8a9050811015611df357611de68b8b83818110611d6257fe5b9050602002013573ffffffffffffffffffffffffffffffffffffffff168a8a84818110611d8b57fe5b90506020020135898985818110611d9e57fe5b90506020020135888886818110611db157fe5b90506020020135878787818110611dc457fe5b9050602002013573ffffffffffffffffffffffffffffffffffffffff16612444565b8080600101915050611d48565b5050505050505050505050565b60026000541415611e79576040517f08c379a000000000000000000000000000000000000000000000000000000000815260040180806020018281038252601f8152602001807f5265656e7472616e637947756172643a207265656e7472616e742063616c6c0081525060200191505060405180910390fd5b6002600081905550600060046000888888604051602001808473ffffffffffffffffffffffffffffffffffffffff1660601b81526014018381526020018281526020019350505050604051602081830303815290604052805190602001208152602001908152602001600020905060008160010160000160149054906101000a900461ffff1661ffff1614611f76576040517f08c379a000000000000000000000000000000000000000000000000000000000815260040180806020018281038252600e8152602001807f616c72656164792072656e74656400000000000000000000000000000000000081525060200191505060405180910390fd5b8060000160000160009054906101000a900473ffffffffffffffffffffffffffffffffffffffff1673ffffffffffffffffffffffffffffffffffffffff163373ffffffffffffffffffffffffffffffffffffffff16141561203f576040517f08c379a00000000000000000000000000000000000000000000000000000000081526004018080602001828103825260128152602001807f63616e27742072656e74206f776e206e6674000000000000000000000000000081525060200191505060405180910390fd5b8060000160000160149054906101000a900461ffff1661ffff168361ffff1611156120d2576040517f08c379a00000000000000000000000000000000000000000000000000000000081526004018080602001828103825260158152602001807f6d6178206475726174696f6e206578636565646564000000000000000000000081525060200191505060405180910390fd5b60006120f78260000160000160169054906101000a900463ffffffff1660e01b612f70565b8461ffff160290506000600360009054906101000a900473ffffffffffffffffffffffffffffffffffffffff1673ffffffffffffffffffffffffffffffffffffffff1663c6ee427f84600001600001601e9054906101000a900460ff16600781111561215f57fe5b6040518263ffffffff1660e01b8152600401808260ff16815260200191505060206040518083038186803b15801561219657600080fd5b505afa1580156121aa573d6000803e3d6000fd5b505050506040513d60208110156121c057600080fd5b81019080805190602001909291905050509050612227338460000160000160009054906101000a900473ffffffffffffffffffffffffffffffffffffffff16848473ffffffffffffffffffffffffffffffffffffffff166130ff909392919063ffffffff16565b612276333061224f86600001600001601a9054906101000a900463ffffffff1660e01b612f70565b8473ffffffffffffffffffffffffffffffffffffffff166130ff909392919063ffffffff16565b6000429050338460010160000160006101000a81548173ffffffffffffffffffffffffffffffffffffffff021916908373ffffffffffffffffffffffffffffffffffffffff160217905550858460010160000160146101000a81548161ffff021916908361ffff160217905550808460010160000160166101000a81548163ffffffff021916908363ffffffff1602179055508973ffffffffffffffffffffffffffffffffffffffff166342842e0e30338c6040518463ffffffff1660e01b8152600401808473ffffffffffffffffffffffffffffffffffffffff1681526020018373ffffffffffffffffffffffffffffffffffffffff1681526020018281526020019350505050600060405180830381600087803b15801561239857600080fd5b505af11580156123ac573d6000803e3d6000fd5b50505050888a73ffffffffffffffffffffffffffffffffffffffff16887f6d5f7c5d4971effcb44f76ba3c39c411c666a898f9c6a4dd289f4f9d6eb8223c338a86604051808473ffffffffffffffffffffffffffffffffffffffff1681526020018361ffff1681526020018263ffffffff168152602001935050505060405180910390a4505050506001600081905550505050505050565b600060046000878787604051602001808473ffffffffffffffffffffffffffffffffffffffff1660601b81526014018381526020018281526020019350505050604051602081830303815290604052805190602001208152602001908152602001600020905060008160010160000160149054906101000a900461ffff1661ffff1614612539576040517f08c379a00000000000000000000000000000000000000000000000000000000081526004018080602001828103825260148152602001807f6e66742072656e7465642063757272656e746c7900000000000000000000000081525060200191505060405180910390fd5b3373ffffffffffffffffffffffffffffffffffffffff168160000160000160009054906101000a900473ffffffffffffffffffffffffffffffffffffffff1673ffffffffffffffffffffffffffffffffffffffff1614612601576040517f08c379a000000000000000000000000000000000000000000000000000000000815260040180806020018281038252600a8152602001807f6e6f74206c656e6465720000000000000000000000000000000000000000000081525060200191505060405180910390fd5b8573ffffffffffffffffffffffffffffffffffffffff166342842e0e3033886040518463ffffffff1660e01b8152600401808473ffffffffffffffffffffffffffffffffffffffff1681526020018373ffffffffffffffffffffffffffffffffffffffff1681526020018281526020019350505050600060405180830381600087803b15801561269057600080fd5b505af11580156126a4573d6000803e3d6000fd5b5050505080600001600080820160006101000a81549073ffffffffffffffffffffffffffffffffffffffff02191690556000820160146101000a81549061ffff02191690556000820160166101000a81549063ffffffff021916905560008201601a6101000a81549063ffffffff021916905560008201601e6101000a81549060ff02191690555050848673ffffffffffffffffffffffffffffffffffffffff16847f45daf2428bc22098d01839f22d2190c211a0eaca7be48fc6faabeb2b2042912f42604051808263ffffffff16815260200191505060405180910390a4505050505050565b60026000541415612804576040517f08c379a000000000000000000000000000000000000000000000000000000000815260040180806020018281038252601f8152602001807f5265656e7472616e637947756172643a207265656e7472616e742063616c6c0081525060200191505060405180910390fd5b6002600081905550600060046000878787604051602001808473ffffffffffffffffffffffffffffffffffffffff1660601b8152601401838152602001828152602001935050505060405160208183030381529060405280519060200120815260200190815260200160002090503373ffffffffffffffffffffffffffffffffffffffff168160010160000160009054906101000a900473ffffffffffffffffffffffffffffffffffffffff1673ffffffffffffffffffffffffffffffffffffffff161461293a576040517f08c379a000000000000000000000000000000000000000000000000000000000815260040180806020018281038252600a8152602001807f6e6f742072656e7465720000000000000000000000000000000000000000000081525060200191505060405180910390fd5b60006201518063ffffffff168260010160000160169054906101000a900463ffffffff1663ffffffff1642038161296d57fe5b0490508160010160000160149054906101000a900461ffff1661ffff168161ffff161115612a03576040517f08c379a00000000000000000000000000000000000000000000000000000000081526004018080602001828103825260118152602001807f6475726174696f6e20657863656564656400000000000000000000000000000081525060200191505060405180910390fd5b8673ffffffffffffffffffffffffffffffffffffffff166342842e0e3330896040518463ffffffff1660e01b8152600401808473ffffffffffffffffffffffffffffffffffffffff1681526020018373ffffffffffffffffffffffffffffffffffffffff1681526020018281526020019350505050600060405180830381600087803b158015612a9257600080fd5b505af1158015612aa6573d6000803e3d6000fd5b505050506000600360009054906101000a900473ffffffffffffffffffffffffffffffffffffffff1673ffffffffffffffffffffffffffffffffffffffff1663c6ee427f84600001600001601e9054906101000a900460ff166007811115612b0a57fe5b6040518263ffffffff1660e01b8152600401808260ff16815260200191505060206040518083038186803b158015612b4157600080fd5b505afa158015612b55573d6000803e3d6000fd5b505050506040513d6020811015612b6b57600080fd5b81019080805190602001909291905050509050612bcb33612ba585600001600001601a9054906101000a900463ffffffff1660e01b612f70565b8373ffffffffffffffffffffffffffffffffffffffff1661305d9092919063ffffffff16565b84878973ffffffffffffffffffffffffffffffffffffffff167f0a0e99e9aaa09f19d6c3cdac62c4f94d30a7dd7b8fb938093922665648774cf233604051808273ffffffffffffffffffffffffffffffffffffffff16815260200191505060405180910390a482600101600080820160006101000a81549073ffffffffffffffffffffffffffffffffffffffff02191690556000820160146101000a81549061ffff02191690556000820160166101000a81549063ffffffff0219169055505050505060016000819055505050505050565b612ca5612f68565b73ffffffffffffffffffffffffffffffffffffffff16600160009054906101000a900473ffffffffffffffffffffffffffffffffffffffff1673ffffffffffffffffffffffffffffffffffffffff1614612d67576040517f08c379a00000000000000000000000000000000000000000000000000000000081526004018080602001828103825260208152602001807f4f776e61626c653a2063616c6c6572206973206e6f7420746865206f776e657281525060200191505060405180910390fd5b600073ffffffffffffffffffffffffffffffffffffffff168173ffffffffffffffffffffffffffffffffffffffff161415612ded576040517f08c379a00000000000000000000000000000000000000000000000000000000081526004018080602001828103825260268152602001806135196026913960400191505060405180910390fd5b8073ffffffffffffffffffffffffffffffffffffffff16600160009054906101000a900473ffffffffffffffffffffffffffffffffffffffff1673ffffffffffffffffffffffffffffffffffffffff167f8be0079c531659141344cd1fd0a4f28419497f9722a3daafe3b4186f6b6457e060405160405180910390a380600160006101000a81548173ffffffffffffffffffffffffffffffffffffffff021916908373ffffffffffffffffffffffffffffffffffffffff16021790555050565b60005b8a8a9050811015612f5b57612f4e8b8b83818110612eca57fe5b9050602002013573ffffffffffffffffffffffffffffffffffffffff168a8a84818110612ef357fe5b90506020020135898985818110612f0657fe5b90506020020135888886818110612f1957fe5b90506020020135878787818110612f2c57fe5b9050602002013573ffffffffffffffffffffffffffffffffffffffff166116f1565b8080600101915050612eb0565b5050505050505050505050565b600033905090565b60008082905060006010847bffffffffffffffffffffffffffffffffffffffffffffffffffffffff1916901b905060008260f01c905060008260f01c90506000670de0b6b3a76400008361ffff1602905061270f8261ffff161115612fd55761270f91505b6000600190506000600a90506000600190505b8215613024578161ffff168561ffff1681612fff57fe5b04905060008161ffff161415613018576000925061301f565b600a820291505b612fe8565b60008261ffff16670de0b6b3a76400008161303b57fe5b048661ffff1602905060008582019050809a5050505050505050505050919050565b6130fa8363a9059cbb60e01b8484604051602401808373ffffffffffffffffffffffffffffffffffffffff16815260200182815260200192505050604051602081830303815290604052907bffffffffffffffffffffffffffffffffffffffffffffffffffffffff19166020820180517bffffffffffffffffffffffffffffffffffffffffffffffffffffffff83818316178352505050506131c0565b505050565b6131ba846323b872dd60e01b858585604051602401808473ffffffffffffffffffffffffffffffffffffffff1681526020018373ffffffffffffffffffffffffffffffffffffffff1681526020018281526020019350505050604051602081830303815290604052907bffffffffffffffffffffffffffffffffffffffffffffffffffffffff19166020820180517bffffffffffffffffffffffffffffffffffffffffffffffffffffffff83818316178352505050506131c0565b50505050565b6060613222826040518060400160405280602081526020017f5361666545524332303a206c6f772d6c6576656c2063616c6c206661696c65648152508573ffffffffffffffffffffffffffffffffffffffff166132af9092919063ffffffff16565b90506000815111156132aa5780806020019051602081101561324357600080fd5b81019080805190602001909291905050506132a9576040517f08c379a000000000000000000000000000000000000000000000000000000000815260040180806020018281038252602a81526020018061353f602a913960400191505060405180910390fd5b5b505050565b60606132be84846000856132c7565b90509392505050565b60606132d2856134cd565b613344576040517f08c379a000000000000000000000000000000000000000000000000000000000815260040180806020018281038252601d8152602001807f416464726573733a2063616c6c20746f206e6f6e2d636f6e747261637400000081525060200191505060405180910390fd5b600060608673ffffffffffffffffffffffffffffffffffffffff1685876040518082805190602001908083835b602083106133945780518252602082019150602081019050602083039250613371565b6001836020036101000a03801982511681845116808217855250505050505090500191505060006040518083038185875af1925050503d80600081146133f6576040519150601f19603f3d011682016040523d82523d6000602084013e6133fb565b606091505b509150915081156134105780925050506134c5565b6000815111156134235780518082602001fd5b836040517f08c379a00000000000000000000000000000000000000000000000000000000081526004018080602001828103825283818151815260200191508051906020019080838360005b8381101561348a57808201518184015260208101905061346f565b50505050905090810190601f1680156134b75780820380516001836020036101000a031916815260200191505b509250505060405180910390fd5b949350505050565b60008060007fc5d2460186f7233c927e7db2dcc703c0e500b653ca82273b7bfad8045d85a47060001b9050833f915080821415801561350f57506000801b8214155b9250505091905056fe4f776e61626c653a206e6577206f776e657220697320746865207a65726f20616464726573735361666545524332303a204552433230206f7065726174696f6e20646964206e6f742073756363656564a26469706673582212202d4dff0b42b2a057f6f1ed3170ad2d1ae751a6dfb19e140cc8c1a437c575afb964736f6c63430007050033",
  "immutableReferences": {},
  "source": "// SPDX-License-Identifier: MIT\npragma solidity ^0.7.0;\n\nimport \"../node_modules/@openzeppelin/contracts/utils/ReentrancyGuard.sol\";\nimport \"../node_modules/@openzeppelin/contracts/access/Ownable.sol\";\nimport \"../node_modules/@openzeppelin/contracts/token/ERC20/SafeERC20.sol\";\nimport \"../node_modules/@openzeppelin/contracts/token/ERC20/IERC20.sol\";\nimport \"../node_modules/@openzeppelin/contracts/token/ERC721/IERC721.sol\";\nimport \"../node_modules/@openzeppelin/contracts/token/ERC721/ERC721Holder.sol\";\n// import \"./ChiGasSaver.sol\";\nimport \"./Resolver.sol\";\n\ncontract RentNft is ReentrancyGuard, Ownable, ERC721Holder {\n  using SafeERC20 for IERC20;\n\n  // 256 bits -> 32 bytes\n  // address - 20 byte value -> 160 bits\n  uint32 private constant SECONDS_IN_A_DAY = 86400;\n  uint256 private id = 1;\n  Resolver private resolver;\n\n  event Lent(\n    address indexed nftAddress,\n    uint256 indexed tokenId,\n    address indexed lenderAddress,\n    uint256 lendingId,\n    uint16 maxRentDuration,\n    uint32 dailyRentPrice,\n    uint32 nftPrice,\n    PaymentToken paymentToken\n  );\n\n  event Rented(\n    bytes32 indexed lendingId,\n    address indexed nftAddress,\n    uint256 indexed tokenId,\n    address renterAddress,\n    uint16 rentDuration,\n    uint32 rentedAt\n  );\n\n  event Returned(\n    address indexed nftAddress,\n    uint256 indexed tokenId,\n    bytes32 indexed lendingId,\n    address renterAddress\n  );\n\n  event CollateralClaimed(\n    bytes32 indexed lendingId,\n    address indexed nftAddress,\n    uint256 indexed tokenId,\n    uint32 claimedAt\n  );\n\n  event LendingStopped(\n    bytes32 indexed lendingId,\n    address indexed nftAddress,\n    uint256 indexed tokenId,\n    uint32 stoppedAt\n  );\n\n  struct Lending {\n    // 160 bits\n    address lenderAddress;\n    // 176 bits\n    uint16 maxRentDuration;\n    // 208 bits\n    uint32 dailyRentPrice;\n    // 240 bits\n    uint32 nftPrice;\n    // 248 bits\n    PaymentToken paymentToken;\n  }\n\n  struct Renting {\n    // 160 bits\n    address renterAddress;\n    // 176 bits\n    uint16 rentDuration;\n    // 198 bits\n    uint32 rentedAt;\n  }\n\n  struct LendingRenting {\n    Lending lending;\n    Renting renting;\n  }\n\n  enum PaymentToken {\n    DAI, // 0\n    USDC, // 1\n    USDT, // 2\n    TUSD, // 3\n    ETH, // 4\n    UNI, // 5\n    YFI, // 6\n    NAZ // 7\n  }\n\n  // 32 bytes key to 64 bytes struct\n  mapping(bytes32 => LendingRenting) private lendingRenting;\n\n  constructor(Resolver _resolver) {\n    resolver = _resolver;\n  }\n\n  function lendOne(\n    IERC721 _nftAddress,\n    uint256 _tokenId,\n    uint16 _maxRentDuration,\n    uint32 _dailyRentPrice,\n    uint32 _nftPrice,\n    PaymentToken _paymentToken,\n    address payable _gasSponsor\n  ) public nonReentrant {\n    require(_maxRentDuration > 0, \"at least one day\");\n\n    // edge-cases analysis\n    // 1. if I have lent out and try to lend out again. fail: since the nft was already transferred\n\n    // 120k gas ...\n    _nftAddress.safeTransferFrom(msg.sender, address(this), _tokenId);\n\n    LendingRenting storage item = lendingRenting[keccak256(\n      abi.encodePacked(address(_nftAddress), _tokenId, id)\n    )];\n\n    // 29.7k gas\n    item.lending = Lending({\n      lenderAddress: msg.sender,\n      maxRentDuration: _maxRentDuration,\n      dailyRentPrice: _dailyRentPrice,\n      nftPrice: _nftPrice,\n      paymentToken: _paymentToken\n    });\n\n    emit Lent(\n      address(_nftAddress),\n      _tokenId,\n      msg.sender,\n      id,\n      _maxRentDuration,\n      _dailyRentPrice,\n      _nftPrice,\n      _paymentToken\n    );\n\n    // changing from non-zero to something else costs 5000 gas\n    // however, changing from zero to something else costs 20k gas\n    id++;\n  }\n\n  function lendMultiple(\n    IERC721[] calldata _nftAddresses,\n    uint256[] calldata _tokenIds,\n    uint16[] calldata _maxRentDurations,\n    uint32[] calldata _dailyRentPrice,\n    uint32[] calldata _nftPrices,\n    PaymentToken[] calldata _paymentTokenAddresses,\n    address payable[] calldata _gasSponsors\n  ) external {\n    for (uint256 i = 0; i < _nftAddresses.length; i++) {\n      lendOne(\n        _nftAddresses[i],\n        _tokenIds[i],\n        _maxRentDurations[i],\n        _dailyRentPrice[i],\n        _nftPrices[i],\n        _paymentTokenAddresses[i],\n        _gasSponsors[i]\n      );\n    }\n  }\n\n  function rentOne(\n    IERC721 _nftAddress,\n    uint256 _tokenId,\n    uint256 _id,\n    bytes32 __id,\n    uint16 _rentDuration,\n    address _gasSponsor\n  ) public nonReentrant {\n    // edge-cases analysis\n    // 1. what if I rent, immediately lend, and immediately borrow from myself\n    // - rent and lend steps will work with no issue; last rent step will fail\n    // - this is because we have a require here that the currentLender != msg.sender\n    // 2. acc A lends, acc B rents, acc B lends with maxDuration higher than original\n    // - TODO: this is currently allowed, I strongly believe it should not be. Since this\n    // increaes the risk of the platform\n\n    LendingRenting storage item = lendingRenting[keccak256(\n      abi.encodePacked(address(_nftAddress), _tokenId, _id)\n    )];\n\n    require(item.renting.rentDuration == 0, \"already rented\");\n\n    // ! this means that you can rent your own NFT and purposefully avoid returning it\n    // ! do we want such a mechanic?\n    // ! currentLender may not be you, but you may be the original lender, so this\n    // ! check would pass and so you could rent your own NFT\n    // ! if the new lender set a lower collateral, then your profit would be\n    // ! original collateral - borrow payments - current collateral\n    // ! we should leave this in, because this would incentivise the new lenders\n    // ! to consider the original quotes when setting their collateral, etc.\n    require(msg.sender != item.lending.lenderAddress, \"can't rent own nft\");\n    require(\n      _rentDuration <= item.lending.maxRentDuration,\n      \"max duration exceeded\"\n    );\n\n    // TODO: this should go to the contract as an escrow\n    // on return, or on collateral claim, we either give\n    // the lender the portion of the amounts, or all of them\n    uint256 rentPrice = _rentDuration *\n      _unpackPrice(bytes4(item.lending.dailyRentPrice));\n    IERC20 paymentToken = resolver.getPaymentToken(\n      uint8(item.lending.paymentToken)\n    );\n\n    paymentToken.safeTransferFrom(\n      msg.sender,\n      item.lending.lenderAddress,\n      rentPrice\n    );\n    paymentToken.safeTransferFrom(\n      msg.sender,\n      address(this),\n      _unpackPrice(bytes4(item.lending.nftPrice))\n    );\n\n    uint32 rentedAt = uint32(block.timestamp);\n\n    item.renting.renterAddress = msg.sender;\n    item.renting.rentDuration = _rentDuration;\n    item.renting.rentedAt = rentedAt;\n\n    _nftAddress.safeTransferFrom(address(this), msg.sender, _tokenId);\n\n    emit Rented(\n      __id,\n      address(_nftAddress),\n      _tokenId,\n      msg.sender,\n      _rentDuration,\n      rentedAt\n    );\n  }\n\n  function rentMultiple(\n    IERC721[] calldata _nftAddress,\n    uint256[] calldata _tokenId,\n    uint256[] calldata _id,\n    bytes32[] calldata __id,\n    uint16[] calldata _rentDuration,\n    address payable[] calldata _gasSponsors\n  ) external {\n    for (uint256 i = 0; i < _nftAddress.length; i++) {\n      rentOne(_nftAddress[i], _tokenId[i], _id[i], __id[i], _rentDuration[i], _gasSponsors[i]);\n    }\n  }\n\n  function returnOne(\n    IERC721 _nftAddress,\n    uint256 _tokenId,\n    uint256 _id,\n    bytes32 __id,\n    address _gasSponsor\n  ) public nonReentrant {\n    LendingRenting storage item = lendingRenting[keccak256(\n      abi.encodePacked(address(_nftAddress), _tokenId, _id)\n    )];\n    require(item.renting.renterAddress == msg.sender, \"not renter\");\n    uint16 durationInDays = uint16((block.timestamp - item.renting.rentedAt) /\n      SECONDS_IN_A_DAY);\n    require(durationInDays <= item.renting.rentDuration, \"duration exceeded\");\n\n    _nftAddress.safeTransferFrom(msg.sender, address(this), _tokenId);\n\n    IERC20 paymentToken = resolver.getPaymentToken(\n      uint8(item.lending.paymentToken)\n    );\n    paymentToken.safeTransfer(\n      msg.sender,\n      _unpackPrice(bytes4(item.lending.nftPrice))\n    );\n\n    emit Returned(address(_nftAddress), _tokenId, __id, msg.sender);\n\n    delete item.renting;\n  }\n\n  function returnMultiple(\n    IERC721[] calldata _nftAddress,\n    uint256[] calldata _tokenId,\n    uint256[] calldata _id,\n    bytes32[] calldata __id,\n    address payable[] calldata _gasSponsors\n  ) external {\n    for (uint256 i = 0; i < _nftAddress.length; i++) {\n      returnOne(_nftAddress[i], _tokenId[i], _id[i], __id[i], _gasSponsors[i]);\n    }\n  }\n\n  function claimCollateralOne(\n    IERC721 _nftAddress,\n    uint256 _tokenId,\n    uint256 _id,\n    bytes32 __id,\n    address _gasSponsor\n  ) public nonReentrant {\n    LendingRenting storage item = lendingRenting[keccak256(\n      abi.encodePacked(address(_nftAddress), _tokenId, _id)\n    )];\n\n    require(item.renting.rentDuration != 0, \"nft not rented out\");\n    require(item.lending.lenderAddress == msg.sender, \"not lender\");\n\n    uint16 durationInDays = uint16((block.timestamp - item.renting.rentedAt) /\n      SECONDS_IN_A_DAY);\n\n    require(\n      durationInDays > item.renting.rentDuration,\n      \"duration not exceeded\"\n    );\n\n    IERC20 paymentToken = resolver.getPaymentToken(\n      uint8(item.lending.paymentToken)\n    );\n    paymentToken.safeTransfer(\n      msg.sender,\n      _unpackPrice(bytes4(item.lending.nftPrice))\n    );\n\n    delete item.lending;\n    delete item.renting;\n\n    emit CollateralClaimed(__id, address(_nftAddress), _tokenId, uint32(block.timestamp));\n  }\n\n  function claimCollateralMultiple(\n    IERC721[] calldata _nftAddress,\n    uint256[] calldata _tokenId,\n    uint256[] calldata _id,\n    bytes32[] calldata __id,\n    address payable[] calldata _gasSponsors\n  ) external {\n    for (uint256 i = 0; i < _nftAddress.length; i++) {\n      claimCollateralOne(_nftAddress[i], _tokenId[i], _id[i], __id[i], _gasSponsors[i]);\n    }\n  }\n\n  function stopLendingOne(\n    IERC721 _nftAddress,\n    uint256 _tokenId,\n    uint256 _id,\n    bytes32 __id,\n    address _gasSponsor\n  ) public {\n    LendingRenting storage item = lendingRenting[keccak256(\n      abi.encodePacked(_nftAddress, _tokenId, _id)\n    )];\n\n    require(item.renting.rentDuration == 0, \"nft rented currently\");\n    require(item.lending.lenderAddress == msg.sender, \"not lender\");\n\n    IERC721(_nftAddress).safeTransferFrom(address(this), msg.sender, _tokenId);\n\n    delete item.lending;\n\n    emit LendingStopped(__id, address(_nftAddress), _tokenId, uint32(block.timestamp));\n  }\n\n  function stopLendingMultiple(\n    IERC721[] calldata _nftAddress,\n    uint256[] calldata _tokenId,\n    uint256[] calldata _id,\n    bytes32[] calldata __id,\n    address payable[] calldata _gasSponsors\n  ) external {\n    for (uint256 i = 0; i < _nftAddress.length; i++) {\n      stopLendingOne(_nftAddress[i], _tokenId[i], _id[i], __id[i], _gasSponsors[i]);\n    }\n  }\n\n  // We can't use uint256 for prices in the struct because\n  // we must fit our struct in a single 32 byte chunk.\n  // Since, no-one in their right mind will ever pay\n  // $65k to rent an NFT for a single day, we have\n  // set up this constraint on the prices that they\n  // both are uint32. It is possible we may use\n  // uint40 for collateral and uint24 for dailyRentPrice.\n  // Anyhow, this constraint helps save us some extra 40k\n  // in gas, that you dear lender and reader would pay.\n  // So working under this constraints, the first 4 hexbytes\n  // of the packed price contain the whole number information,\n  // whereas the last 4 bytes represent the decimal portion\n  // ! assumes 18 decimal places !\n  // TODO: not the most efficient way of packing. Operating on\n  // the bit level would allow us to give some extra precision\n  // for the whole part. We are only using about 1/6th of the space\n  // available for the decimal part. Our decimal part spans from 0 to 9999\n  // but we have extra 65535 - 9999 numbers that could be used in the\n  // whole part! Potentially, making the maximum 65535 + 65535 - 9999 = \n  // 120000 + 11070 - 10000 + 1 = 120000 + 1071 = 121071\n  function _unpackPrice(bytes4 _price) internal pure returns (uint256) {\n    bytes2 who = bytes2(_price);\n    bytes2 dec = bytes2(_price << 16);\n\n    uint16 whole = uint16(who);\n    uint16 decimal = uint16(dec);\n\n    uint256 w = uint256(whole) * 1e18;\n\n    if (decimal > 9999) {\n      decimal = 9999;\n    }\n\n    bool find = true;\n    uint16 divisor = 10;\n    uint16 res = 1;\n\n    while (find) {\n      res = decimal / divisor;\n      if (res == 0) {\n        find = false;\n      } else {\n        divisor *= 10;\n      }\n    }\n\n    uint256 d = decimal * (1e18 / uint256(divisor));\n\n    uint256 price = d + w;\n\n    return price;\n  }\n}\n",
  "sourcePath": "/home/shredder/git/renft/contracts/contracts/RentNft.sol",
  "compiler": {
    "name": "solc",
    "version": "0.7.5+commit.eb77ed08.Emscripten.clang"
  },
  "schemaVersion": "3.3.1",
  "updatedAt": "2020-11-25T11:33:13.009Z",
  "devdoc": {
    "kind": "dev",
    "methods": {
      "onERC721Received(address,address,uint256,bytes)": {
        "details": "See {IERC721Receiver-onERC721Received}. Always returns `IERC721Receiver.onERC721Received.selector`."
      },
      "owner()": {
        "details": "Returns the address of the current owner."
      },
      "renounceOwnership()": {
        "details": "Leaves the contract without owner. It will not be possible to call `onlyOwner` functions anymore. Can only be called by the current owner. NOTE: Renouncing ownership will leave the contract without an owner, thereby removing any functionality that is only available to the owner."
      },
      "transferOwnership(address)": {
        "details": "Transfers ownership of the contract to a new account (`newOwner`). Can only be called by the current owner."
      }
    },
    "version": 1
  },
  "userdoc": {
    "kind": "user",
    "methods": {},
    "version": 1
  }
}