{
  "contractName": "RentNft",
  "abi": [
    {
      "inputs": [
        {
          "internalType": "address",
          "name": "_resolverAddress",
          "type": "address"
        }
      ],
      "stateMutability": "nonpayable",
      "type": "constructor"
    },
    {
      "anonymous": false,
      "inputs": [
        {
          "indexed": true,
          "internalType": "address",
          "name": "nftAddress",
          "type": "address"
        },
        {
          "indexed": true,
          "internalType": "uint256",
          "name": "tokenId",
          "type": "uint256"
        },
        {
          "indexed": true,
          "internalType": "address",
          "name": "borrower",
          "type": "address"
        },
        {
          "indexed": false,
          "internalType": "address",
          "name": "lender",
          "type": "address"
        },
        {
          "indexed": false,
          "internalType": "uint256",
          "name": "borrowedAt",
          "type": "uint256"
        },
        {
          "indexed": false,
          "internalType": "uint256",
          "name": "borrowPrice",
          "type": "uint256"
        },
        {
          "indexed": false,
          "internalType": "uint256",
          "name": "actualDuration",
          "type": "uint256"
        },
        {
          "indexed": false,
          "internalType": "uint256",
          "name": "nftPrice",
          "type": "uint256"
        }
      ],
      "name": "Borrowed",
      "type": "event"
    },
    {
      "anonymous": false,
      "inputs": [
        {
          "indexed": true,
          "internalType": "address",
          "name": "nftAddress",
          "type": "address"
        },
        {
          "indexed": true,
          "internalType": "uint256",
          "name": "tokenId",
          "type": "uint256"
        },
        {
          "indexed": true,
          "internalType": "address",
          "name": "lender",
          "type": "address"
        },
        {
          "indexed": false,
          "internalType": "uint256",
          "name": "maxDuration",
          "type": "uint256"
        },
        {
          "indexed": false,
          "internalType": "uint256",
          "name": "borrowPrice",
          "type": "uint256"
        },
        {
          "indexed": false,
          "internalType": "uint256",
          "name": "nftPrice",
          "type": "uint256"
        }
      ],
      "name": "Lent",
      "type": "event"
    },
    {
      "anonymous": false,
      "inputs": [
        {
          "indexed": true,
          "internalType": "address",
          "name": "previousOwner",
          "type": "address"
        },
        {
          "indexed": true,
          "internalType": "address",
          "name": "newOwner",
          "type": "address"
        }
      ],
      "name": "OwnershipTransferred",
      "type": "event"
    },
    {
      "anonymous": false,
      "inputs": [
        {
          "indexed": true,
          "internalType": "address",
          "name": "nftAddress",
          "type": "address"
        },
        {
          "indexed": true,
          "internalType": "uint256",
          "name": "tokenId",
          "type": "uint256"
        },
        {
          "indexed": true,
          "internalType": "address",
          "name": "borrower",
          "type": "address"
        },
        {
          "indexed": false,
          "internalType": "address",
          "name": "lender",
          "type": "address"
        }
      ],
      "name": "Returned",
      "type": "event"
    },
    {
      "inputs": [
        {
          "internalType": "address",
          "name": "",
          "type": "address"
        },
        {
          "internalType": "uint256",
          "name": "",
          "type": "uint256"
        }
      ],
      "name": "nfts",
      "outputs": [
        {
          "internalType": "address",
          "name": "lender",
          "type": "address"
        },
        {
          "internalType": "address",
          "name": "borrower",
          "type": "address"
        },
        {
          "internalType": "uint256",
          "name": "maxDuration",
          "type": "uint256"
        },
        {
          "internalType": "uint256",
          "name": "actualDuration",
          "type": "uint256"
        },
        {
          "internalType": "uint256",
          "name": "borrowPrice",
          "type": "uint256"
        },
        {
          "internalType": "uint256",
          "name": "borrowedAt",
          "type": "uint256"
        },
        {
          "internalType": "uint256",
          "name": "nftPrice",
          "type": "uint256"
        }
      ],
      "stateMutability": "view",
      "type": "function",
      "constant": true
    },
    {
      "inputs": [],
      "name": "owner",
      "outputs": [
        {
          "internalType": "address",
          "name": "",
          "type": "address"
        }
      ],
      "stateMutability": "view",
      "type": "function",
      "constant": true
    },
    {
      "inputs": [],
      "name": "renounceOwnership",
      "outputs": [],
      "stateMutability": "nonpayable",
      "type": "function"
    },
    {
      "inputs": [],
      "name": "resolver",
      "outputs": [
        {
          "internalType": "contract RentNftResolver",
          "name": "",
          "type": "address"
        }
      ],
      "stateMutability": "view",
      "type": "function",
      "constant": true
    },
    {
      "inputs": [
        {
          "internalType": "address",
          "name": "newOwner",
          "type": "address"
        }
      ],
      "name": "transferOwnership",
      "outputs": [],
      "stateMutability": "nonpayable",
      "type": "function"
    },
    {
      "inputs": [
        {
          "internalType": "address",
          "name": "_nftAddress",
          "type": "address"
        },
        {
          "internalType": "uint256",
          "name": "_tokenId",
          "type": "uint256"
        },
        {
          "internalType": "uint256",
          "name": "_maxDuration",
          "type": "uint256"
        },
        {
          "internalType": "uint256",
          "name": "_borrowPrice",
          "type": "uint256"
        },
        {
          "internalType": "uint256",
          "name": "_nftPrice",
          "type": "uint256"
        }
      ],
      "name": "lendOne",
      "outputs": [],
      "stateMutability": "nonpayable",
      "type": "function"
    },
    {
      "inputs": [
        {
          "internalType": "address[]",
          "name": "_nftAddresses",
          "type": "address[]"
        },
        {
          "internalType": "uint256[]",
          "name": "_tokenIds",
          "type": "uint256[]"
        },
        {
          "internalType": "uint256[]",
          "name": "_maxDurations",
          "type": "uint256[]"
        },
        {
          "internalType": "uint256[]",
          "name": "_borrowPrices",
          "type": "uint256[]"
        },
        {
          "internalType": "uint256[]",
          "name": "_nftPrices",
          "type": "uint256[]"
        }
      ],
      "name": "lendMultiple",
      "outputs": [],
      "stateMutability": "nonpayable",
      "type": "function"
    },
    {
      "inputs": [
        {
          "internalType": "address",
          "name": "_borrower",
          "type": "address"
        },
        {
          "internalType": "address",
          "name": "_nftAddress",
          "type": "address"
        },
        {
          "internalType": "uint256",
          "name": "_tokenId",
          "type": "uint256"
        },
        {
          "internalType": "uint256",
          "name": "_actualDuration",
          "type": "uint256"
        }
      ],
      "name": "rentOne",
      "outputs": [],
      "stateMutability": "nonpayable",
      "type": "function"
    },
    {
      "inputs": [
        {
          "internalType": "address",
          "name": "_borrower",
          "type": "address"
        },
        {
          "internalType": "address[]",
          "name": "_nftAddresses",
          "type": "address[]"
        },
        {
          "internalType": "uint256[]",
          "name": "_tokenIds",
          "type": "uint256[]"
        },
        {
          "internalType": "uint256[]",
          "name": "_actualDurations",
          "type": "uint256[]"
        }
      ],
      "name": "rentMultiple",
      "outputs": [],
      "stateMutability": "nonpayable",
      "type": "function"
    },
    {
      "inputs": [
        {
          "internalType": "address",
          "name": "_nftAddress",
          "type": "address"
        },
        {
          "internalType": "uint256",
          "name": "_tokenId",
          "type": "uint256"
        }
      ],
      "name": "returnNftOne",
      "outputs": [],
      "stateMutability": "nonpayable",
      "type": "function"
    },
    {
      "inputs": [
        {
          "internalType": "address[]",
          "name": "_nftAddresses",
          "type": "address[]"
        },
        {
          "internalType": "uint256[]",
          "name": "_tokenIds",
          "type": "uint256[]"
        }
      ],
      "name": "returnNftMultiple",
      "outputs": [],
      "stateMutability": "nonpayable",
      "type": "function"
    }
  ],
  "bytecode": "0x608060405234801561001057600080fd5b50604051620028c8380380620028c88339818101604052602081101561003557600080fd5b81019080805190602001909291905050506001600081905550600061005e61014460201b60201c565b905080600160006101000a81548173ffffffffffffffffffffffffffffffffffffffff021916908373ffffffffffffffffffffffffffffffffffffffff1602179055508073ffffffffffffffffffffffffffffffffffffffff16600073ffffffffffffffffffffffffffffffffffffffff167f8be0079c531659141344cd1fd0a4f28419497f9722a3daafe3b4186f6b6457e060405160405180910390a35080600360006101000a81548173ffffffffffffffffffffffffffffffffffffffff021916908373ffffffffffffffffffffffffffffffffffffffff1602179055505061014c565b600033905090565b61276c806200015c6000396000f3fe608060405234801561001057600080fd5b50600436106100a95760003560e01c8063535db50d11610071578063535db50d1461055c57806369a85221146106a8578063715018a6146107205780638da5cb5b1461072a578063c61050e81461075e578063f2fde38b1461095e576100a9565b806304f3bcec146100ae578063202f7b6e146100e2578063244a2296146101305780632c292a8a1461019c57806343af356b146104a4575b600080fd5b6100b66109a2565b604051808273ffffffffffffffffffffffffffffffffffffffff16815260200191505060405180910390f35b61012e600480360360408110156100f857600080fd5b81019080803573ffffffffffffffffffffffffffffffffffffffff169060200190929190803590602001909291905050506109c8565b005b61019a600480360360a081101561014657600080fd5b81019080803573ffffffffffffffffffffffffffffffffffffffff16906020019092919080359060200190929190803590602001909291908035906020019092919080359060200190929190505050610db4565b005b6104a2600480360360a08110156101b257600080fd5b81019080803590602001906401000000008111156101cf57600080fd5b8201836020820111156101e157600080fd5b8035906020019184602083028401116401000000008311171561020357600080fd5b919080806020026020016040519081016040528093929190818152602001838360200280828437600081840152601f19601f8201169050808301925050505050505091929192908035906020019064010000000081111561026357600080fd5b82018360208201111561027557600080fd5b8035906020019184602083028401116401000000008311171561029757600080fd5b919080806020026020016040519081016040528093929190818152602001838360200280828437600081840152601f19601f820116905080830192505050505050509192919290803590602001906401000000008111156102f757600080fd5b82018360208201111561030957600080fd5b8035906020019184602083028401116401000000008311171561032b57600080fd5b919080806020026020016040519081016040528093929190818152602001838360200280828437600081840152601f19601f8201169050808301925050505050505091929192908035906020019064010000000081111561038b57600080fd5b82018360208201111561039d57600080fd5b803590602001918460208302840111640100000000831117156103bf57600080fd5b919080806020026020016040519081016040528093929190818152602001838360200280828437600081840152601f19601f8201169050808301925050505050505091929192908035906020019064010000000081111561041f57600080fd5b82018360208201111561043157600080fd5b8035906020019184602083028401116401000000008311171561045357600080fd5b919080806020026020016040519081016040528093929190818152602001838360200280828437600081840152601f19601f8201169050808301925050505050505091929192905050506111ef565b005b6104f0600480360360408110156104ba57600080fd5b81019080803573ffffffffffffffffffffffffffffffffffffffff16906020019092919080359060200190929190505050611458565b604051808873ffffffffffffffffffffffffffffffffffffffff1681526020018773ffffffffffffffffffffffffffffffffffffffff16815260200186815260200185815260200184815260200183815260200182815260200197505050505050505060405180910390f35b6106a66004803603604081101561057257600080fd5b810190808035906020019064010000000081111561058f57600080fd5b8201836020820111156105a157600080fd5b803590602001918460208302840111640100000000831117156105c357600080fd5b919080806020026020016040519081016040528093929190818152602001838360200280828437600081840152601f19601f8201169050808301925050505050505091929192908035906020019064010000000081111561062357600080fd5b82018360208201111561063557600080fd5b8035906020019184602083028401116401000000008311171561065757600080fd5b919080806020026020016040519081016040528093929190818152602001838360200280828437600081840152601f19601f8201169050808301925050505050505091929192905050506114e7565b005b61071e600480360360808110156106be57600080fd5b81019080803573ffffffffffffffffffffffffffffffffffffffff169060200190929190803573ffffffffffffffffffffffffffffffffffffffff16906020019092919080359060200190929190803590602001909291905050506115be565b005b610728611ca5565b005b610732611e30565b604051808273ffffffffffffffffffffffffffffffffffffffff16815260200191505060405180910390f35b61095c6004803603608081101561077457600080fd5b81019080803573ffffffffffffffffffffffffffffffffffffffff169060200190929190803590602001906401000000008111156107b157600080fd5b8201836020820111156107c357600080fd5b803590602001918460208302840111640100000000831117156107e557600080fd5b919080806020026020016040519081016040528093929190818152602001838360200280828437600081840152601f19601f8201169050808301925050505050505091929192908035906020019064010000000081111561084557600080fd5b82018360208201111561085757600080fd5b8035906020019184602083028401116401000000008311171561087957600080fd5b919080806020026020016040519081016040528093929190818152602001838360200280828437600081840152601f19601f820116905080830192505050505050509192919290803590602001906401000000008111156108d957600080fd5b8201836020820111156108eb57600080fd5b8035906020019184602083028401116401000000008311171561090d57600080fd5b919080806020026020016040519081016040528093929190818152602001838360200280828437600081840152601f19601f820116905080830192505050505050509192919290505050611e5a565b005b6109a06004803603602081101561097457600080fd5b81019080803573ffffffffffffffffffffffffffffffffffffffff169060200190929190505050611f49565b005b600360009054906101000a900473ffffffffffffffffffffffffffffffffffffffff1681565b60026000541415610a41576040517f08c379a000000000000000000000000000000000000000000000000000000000815260040180806020018281038252601f8152602001807f5265656e7472616e637947756172643a207265656e7472616e742063616c6c0081525060200191505060405180910390fd5b60026000819055506000600260008473ffffffffffffffffffffffffffffffffffffffff1673ffffffffffffffffffffffffffffffffffffffff168152602001908152602001600020600083815260200190815260200160002090503373ffffffffffffffffffffffffffffffffffffffff168160010160009054906101000a900473ffffffffffffffffffffffffffffffffffffffff1673ffffffffffffffffffffffffffffffffffffffff1614610b62576040517f08c379a000000000000000000000000000000000000000000000000000000000815260040180806020018281038252600c8152602001807f6e6f7420626f72726f776572000000000000000000000000000000000000000081525060200191505060405180910390fd5b8273ffffffffffffffffffffffffffffffffffffffff166342842e0e3330856040518463ffffffff1660e01b8152600401808473ffffffffffffffffffffffffffffffffffffffff1681526020018373ffffffffffffffffffffffffffffffffffffffff1681526020018281526020019350505050600060405180830381600087803b158015610bf157600080fd5b505af1158015610c05573d6000803e3d6000fd5b50505050610cfe8160010160009054906101000a900473ffffffffffffffffffffffffffffffffffffffff168260060154600360009054906101000a900473ffffffffffffffffffffffffffffffffffffffff1673ffffffffffffffffffffffffffffffffffffffff16630400a7186040518163ffffffff1660e01b815260040160206040518083038186803b158015610c9e57600080fd5b505afa158015610cb2573d6000803e3d6000fd5b505050506040513d6020811015610cc857600080fd5b810190808051906020019092919050505073ffffffffffffffffffffffffffffffffffffffff166121599092919063ffffffff16565b610d07816121fb565b3373ffffffffffffffffffffffffffffffffffffffff16828473ffffffffffffffffffffffffffffffffffffffff167fb2daed44d220268da5ecf61100cc83480155f3f45250961b09cb82061f5f27fc8460010160009054906101000a900473ffffffffffffffffffffffffffffffffffffffff16604051808273ffffffffffffffffffffffffffffffffffffffff16815260200191505060405180910390a45060016000819055505050565b60026000541415610e2d576040517f08c379a000000000000000000000000000000000000000000000000000000000815260040180806020018281038252601f8152602001807f5265656e7472616e637947756172643a207265656e7472616e742063616c6c0081525060200191505060405180910390fd5b6002600081905550600073ffffffffffffffffffffffffffffffffffffffff168573ffffffffffffffffffffffffffffffffffffffff161415610ed8576040517f08c379a00000000000000000000000000000000000000000000000000000000081526004018080602001828103825260138152602001807f696e76616c6964204e465420616464726573730000000000000000000000000081525060200191505060405180910390fd5b60008311610f4e576040517f08c379a00000000000000000000000000000000000000000000000000000000081526004018080602001828103825260108152602001807f6174206c65617374206f6e65206461790000000000000000000000000000000081525060200191505060405180910390fd5b6040518060e001604052803373ffffffffffffffffffffffffffffffffffffffff168152602001600073ffffffffffffffffffffffffffffffffffffffff168152602001848152602001600081526020018381526020016000815260200182815250600260008773ffffffffffffffffffffffffffffffffffffffff1673ffffffffffffffffffffffffffffffffffffffff168152602001908152602001600020600086815260200190815260200160002060008201518160000160006101000a81548173ffffffffffffffffffffffffffffffffffffffff021916908373ffffffffffffffffffffffffffffffffffffffff16021790555060208201518160010160006101000a81548173ffffffffffffffffffffffffffffffffffffffff021916908373ffffffffffffffffffffffffffffffffffffffff16021790555060408201518160020155606082015181600301556080820151816004015560a0820151816005015560c082015181600601559050508473ffffffffffffffffffffffffffffffffffffffff166323b872dd3330876040518463ffffffff1660e01b8152600401808473ffffffffffffffffffffffffffffffffffffffff1681526020018373ffffffffffffffffffffffffffffffffffffffff1681526020018281526020019350505050600060405180830381600087803b15801561115257600080fd5b505af1158015611166573d6000803e3d6000fd5b505050503373ffffffffffffffffffffffffffffffffffffffff16848673ffffffffffffffffffffffffffffffffffffffff167fca96363ba8a9ac89bc9c5919c129b43f11b81545f4e52364a0bd3744fb0f6f0886868660405180848152602001838152602001828152602001935050505060405180910390a460016000819055505050505050565b8351855114611266576040517f08c379a00000000000000000000000000000000000000000000000000000000081526004018080602001828103825260108152602001807f6e6f7420657175616c206c656e6774680000000000000000000000000000000081525060200191505060405180910390fd5b82518451146112dd576040517f08c379a00000000000000000000000000000000000000000000000000000000081526004018080602001828103825260108152602001807f6e6f7420657175616c206c656e6774680000000000000000000000000000000081525060200191505060405180910390fd5b8151835114611354576040517f08c379a00000000000000000000000000000000000000000000000000000000081526004018080602001828103825260108152602001807f6e6f7420657175616c206c656e6774680000000000000000000000000000000081525060200191505060405180910390fd5b80518251146113cb576040517f08c379a00000000000000000000000000000000000000000000000000000000081526004018080602001828103825260108152602001807f6e6f7420657175616c206c656e6774680000000000000000000000000000000081525060200191505060405180910390fd5b60005b8551811015611450576114438682815181106113e657fe5b60200260200101518683815181106113fa57fe5b602002602001015186848151811061140e57fe5b602002602001015186858151811061142257fe5b602002602001015186868151811061143657fe5b6020026020010151610db4565b80806001019150506113ce565b505050505050565b6002602052816000526040600020602052806000526040600020600091509150508060000160009054906101000a900473ffffffffffffffffffffffffffffffffffffffff16908060010160009054906101000a900473ffffffffffffffffffffffffffffffffffffffff16908060020154908060030154908060040154908060050154908060060154905087565b60026000541415611560576040517f08c379a000000000000000000000000000000000000000000000000000000000815260040180806020018281038252601f8152602001807f5265656e7472616e637947756172643a207265656e7472616e742063616c6c0081525060200191505060405180910390fd5b600260008190555060005b82518110156115b1576115a483828151811061158357fe5b602002602001015183838151811061159757fe5b60200260200101516109c8565b808060010191505061156b565b5060016000819055505050565b60026000541415611637576040517f08c379a000000000000000000000000000000000000000000000000000000000815260040180806020018281038252601f8152602001807f5265656e7472616e637947756172643a207265656e7472616e742063616c6c0081525060200191505060405180910390fd5b60026000819055506000600260008573ffffffffffffffffffffffffffffffffffffffff1673ffffffffffffffffffffffffffffffffffffffff168152602001908152602001600020600084815260200190815260200160002090508060000160009054906101000a900473ffffffffffffffffffffffffffffffffffffffff1673ffffffffffffffffffffffffffffffffffffffff168573ffffffffffffffffffffffffffffffffffffffff161415611759576040517f08c379a00000000000000000000000000000000000000000000000000000000081526004018080602001828103825260148152602001807f63616e277420626f72726f77206f776e206e667400000000000000000000000081525060200191505060405180910390fd5b600073ffffffffffffffffffffffffffffffffffffffff168573ffffffffffffffffffffffffffffffffffffffff16116117fb576040517f08c379a00000000000000000000000000000000000000000000000000000000081526004018080602001828103825260158152602001807f636f756c64206e6f742066696e6420616e204e4654000000000000000000000081525060200191505060405180910390fd5b600061181482600401548461225690919063ffffffff16565b9050611909868360000160009054906101000a900473ffffffffffffffffffffffffffffffffffffffff1683600360009054906101000a900473ffffffffffffffffffffffffffffffffffffffff1673ffffffffffffffffffffffffffffffffffffffff16630400a7186040518163ffffffff1660e01b815260040160206040518083038186803b1580156118a857600080fd5b505afa1580156118bc573d6000803e3d6000fd5b505050506040513d60208110156118d257600080fd5b810190808051906020019092919050505073ffffffffffffffffffffffffffffffffffffffff166122dc909392919063ffffffff16565b6119dc86308460060154600360009054906101000a900473ffffffffffffffffffffffffffffffffffffffff1673ffffffffffffffffffffffffffffffffffffffff16630400a7186040518163ffffffff1660e01b815260040160206040518083038186803b15801561197b57600080fd5b505afa15801561198f573d6000803e3d6000fd5b505050506040513d60208110156119a557600080fd5b810190808051906020019092919050505073ffffffffffffffffffffffffffffffffffffffff166122dc909392919063ffffffff16565b85600260008773ffffffffffffffffffffffffffffffffffffffff1673ffffffffffffffffffffffffffffffffffffffff168152602001908152602001600020600086815260200190815260200160002060010160006101000a81548173ffffffffffffffffffffffffffffffffffffffff021916908373ffffffffffffffffffffffffffffffffffffffff16021790555042600260008773ffffffffffffffffffffffffffffffffffffffff1673ffffffffffffffffffffffffffffffffffffffff16815260200190815260200160002060008681526020019081526020016000206005018190555082600260008773ffffffffffffffffffffffffffffffffffffffff1673ffffffffffffffffffffffffffffffffffffffff1681526020019081526020016000206000868152602001908152602001600020600301819055508473ffffffffffffffffffffffffffffffffffffffff166342842e0e3088876040518463ffffffff1660e01b8152600401808473ffffffffffffffffffffffffffffffffffffffff1681526020018373ffffffffffffffffffffffffffffffffffffffff1681526020018281526020019350505050600060405180830381600087803b158015611bad57600080fd5b505af1158015611bc1573d6000803e3d6000fd5b505050508573ffffffffffffffffffffffffffffffffffffffff16848673ffffffffffffffffffffffffffffffffffffffff167f5c19f9cdfeed52e21a75a98d68d8ac9a91a8311e9d68a8c6886134ee8df784b28560000160009054906101000a900473ffffffffffffffffffffffffffffffffffffffff168660050154876004015488600301548960060154604051808673ffffffffffffffffffffffffffffffffffffffff1681526020018581526020018481526020018381526020018281526020019550505050505060405180910390a45050600160008190555050505050565b611cad61239d565b73ffffffffffffffffffffffffffffffffffffffff16600160009054906101000a900473ffffffffffffffffffffffffffffffffffffffff1673ffffffffffffffffffffffffffffffffffffffff1614611d6f576040517f08c379a00000000000000000000000000000000000000000000000000000000081526004018080602001828103825260208152602001807f4f776e61626c653a2063616c6c6572206973206e6f7420746865206f776e657281525060200191505060405180910390fd5b600073ffffffffffffffffffffffffffffffffffffffff16600160009054906101000a900473ffffffffffffffffffffffffffffffffffffffff1673ffffffffffffffffffffffffffffffffffffffff167f8be0079c531659141344cd1fd0a4f28419497f9722a3daafe3b4186f6b6457e060405160405180910390a36000600160006101000a81548173ffffffffffffffffffffffffffffffffffffffff021916908373ffffffffffffffffffffffffffffffffffffffff160217905550565b6000600160009054906101000a900473ffffffffffffffffffffffffffffffffffffffff16905090565b60026000541415611ed3576040517f08c379a000000000000000000000000000000000000000000000000000000000815260040180806020018281038252601f8152602001807f5265656e7472616e637947756172643a207265656e7472616e742063616c6c0081525060200191505060405180910390fd5b600260008190555060005b8351811015611f3a57611f2d85858381518110611ef757fe5b6020026020010151858481518110611f0b57fe5b602002602001015185600081518110611f2057fe5b60200260200101516115be565b8080600101915050611ede565b50600160008190555050505050565b611f5161239d565b73ffffffffffffffffffffffffffffffffffffffff16600160009054906101000a900473ffffffffffffffffffffffffffffffffffffffff1673ffffffffffffffffffffffffffffffffffffffff1614612013576040517f08c379a00000000000000000000000000000000000000000000000000000000081526004018080602001828103825260208152602001807f4f776e61626c653a2063616c6c6572206973206e6f7420746865206f776e657281525060200191505060405180910390fd5b600073ffffffffffffffffffffffffffffffffffffffff168173ffffffffffffffffffffffffffffffffffffffff161415612099576040517f08c379a00000000000000000000000000000000000000000000000000000000081526004018080602001828103825260268152602001806126c66026913960400191505060405180910390fd5b8073ffffffffffffffffffffffffffffffffffffffff16600160009054906101000a900473ffffffffffffffffffffffffffffffffffffffff1673ffffffffffffffffffffffffffffffffffffffff167f8be0079c531659141344cd1fd0a4f28419497f9722a3daafe3b4186f6b6457e060405160405180910390a380600160006101000a81548173ffffffffffffffffffffffffffffffffffffffff021916908373ffffffffffffffffffffffffffffffffffffffff16021790555050565b6121f68363a9059cbb60e01b8484604051602401808373ffffffffffffffffffffffffffffffffffffffff16815260200182815260200192505050604051602081830303815290604052907bffffffffffffffffffffffffffffffffffffffffffffffffffffffff19166020820180517bffffffffffffffffffffffffffffffffffffffffffffffffffffffff83818316178352505050506123a5565b505050565b60008160010160006101000a81548173ffffffffffffffffffffffffffffffffffffffff021916908373ffffffffffffffffffffffffffffffffffffffff160217905550600081600301819055506000816005018190555050565b60008083141561226957600090506122d6565b600082840290508284828161227a57fe5b04146122d1576040517f08c379a00000000000000000000000000000000000000000000000000000000081526004018080602001828103825260218152602001806126ec6021913960400191505060405180910390fd5b809150505b92915050565b612397846323b872dd60e01b858585604051602401808473ffffffffffffffffffffffffffffffffffffffff1681526020018373ffffffffffffffffffffffffffffffffffffffff1681526020018281526020019350505050604051602081830303815290604052907bffffffffffffffffffffffffffffffffffffffffffffffffffffffff19166020820180517bffffffffffffffffffffffffffffffffffffffffffffffffffffffff83818316178352505050506123a5565b50505050565b600033905090565b6060612407826040518060400160405280602081526020017f5361666545524332303a206c6f772d6c6576656c2063616c6c206661696c65648152508573ffffffffffffffffffffffffffffffffffffffff166124949092919063ffffffff16565b905060008151111561248f5780806020019051602081101561242857600080fd5b810190808051906020019092919050505061248e576040517f08c379a000000000000000000000000000000000000000000000000000000000815260040180806020018281038252602a81526020018061270d602a913960400191505060405180910390fd5b5b505050565b60606124a384846000856124ac565b90509392505050565b60606124b7856126b2565b612529576040517f08c379a000000000000000000000000000000000000000000000000000000000815260040180806020018281038252601d8152602001807f416464726573733a2063616c6c20746f206e6f6e2d636f6e747261637400000081525060200191505060405180910390fd5b600060608673ffffffffffffffffffffffffffffffffffffffff1685876040518082805190602001908083835b602083106125795780518252602082019150602081019050602083039250612556565b6001836020036101000a03801982511681845116808217855250505050505090500191505060006040518083038185875af1925050503d80600081146125db576040519150601f19603f3d011682016040523d82523d6000602084013e6125e0565b606091505b509150915081156125f55780925050506126aa565b6000815111156126085780518082602001fd5b836040517f08c379a00000000000000000000000000000000000000000000000000000000081526004018080602001828103825283818151815260200191508051906020019080838360005b8381101561266f578082015181840152602081019050612654565b50505050905090810190601f16801561269c5780820380516001836020036101000a031916815260200191505b509250505060405180910390fd5b949350505050565b600080823b90506000811191505091905056fe4f776e61626c653a206e6577206f776e657220697320746865207a65726f2061646472657373536166654d6174683a206d756c7469706c69636174696f6e206f766572666c6f775361666545524332303a204552433230206f7065726174696f6e20646964206e6f742073756363656564a2646970667358221220cbb7045ba88705469744cb1122743093b65912e4156a1a04845bfa2d7c8b0d5964736f6c634300060c0033",
  "immutableReferences": {},
  "source": "// SPDX-License-Identifier: MIT\npragma solidity ^0.6.0;\n\nimport \"@openzeppelin/contracts/utils/ReentrancyGuard.sol\";\nimport \"@openzeppelin/contracts/access/Ownable.sol\";\nimport \"@openzeppelin/contracts/token/ERC20/SafeERC20.sol\";\nimport \"@openzeppelin/contracts/token/ERC20/ERC20.sol\";\nimport \"@openzeppelin/contracts/token/ERC721/ERC721.sol\";\n\nimport \"./RentNftResolver.sol\";\n\ncontract RentNft is ReentrancyGuard, Ownable {\n  using SafeMath for uint256;\n  using SafeERC20 for ERC20;\n\n  // TODO: if thre are defaults, mark the address to forbid from renting\n\n  event Lent(\n    address indexed nftAddress,\n    uint256 indexed tokenId,\n    address indexed lender,\n    uint256 maxDuration,\n    uint256 borrowPrice,\n    uint256 nftPrice\n  );\n\n  event Borrowed(\n    address indexed nftAddress,\n    uint256 indexed tokenId,\n    address indexed borrower,\n    address lender,\n    uint256 borrowedAt,\n    uint256 borrowPrice,\n    uint256 actualDuration,\n    uint256 nftPrice\n  );\n\n  event Returned(\n    address indexed nftAddress,\n    uint256 indexed tokenId,\n    address indexed borrower,\n    address lender\n  );\n\n  struct Nft {\n    address lender;\n    address borrower;\n    uint256 maxDuration; // set by lender. max borrow duration in days\n    uint256 actualDuration; // set by borrower. actual duration borrower will have the NFT for\n    uint256 borrowPrice; // set by lender. how much the borrower has to pay irrevocably daily\n    uint256 borrowedAt; // set by borrower. borrowed time to be verifed by returning\n    uint256 nftPrice; // set by lender. how much lender will receive if borrower does not return in time\n  }\n\n  // mapping(address => address) public ownerBorrower;\n  // nft address => token id => nft\n  mapping(address => mapping(uint256 => Nft)) public nfts;\n\n  RentNftResolver public resolver;\n\n  constructor(address _resolverAddress) public {\n    resolver = RentNftResolver(_resolverAddress);\n  }\n\n  // lend one nft that you own to be borrowable on Rent NFT\n  function lendOne(\n    address _nftAddress,\n    uint256 _tokenId,\n    uint256 _maxDuration,\n    uint256 _borrowPrice,\n    uint256 _nftPrice\n  ) public nonReentrant {\n    require(_nftAddress != address(0), \"invalid NFT address\");\n    require(_maxDuration > 0, \"at least one day\");\n\n    nfts[_nftAddress][_tokenId] = Nft(\n      msg.sender, // lender\n      address(0), // borrower\n      _maxDuration, // max rent duration\n      0, // actual rent duration. This gets populated on the rent call\n      _borrowPrice, // this is the daily borrow price\n      0, // time at which this is borrowed\n      _nftPrice // this is the collateral that gets sent to lender if borrower fails to return the NFT\n    );\n\n    // transfer nft to this contract. will fail if nft wasn't approved\n    ERC721(_nftAddress).transferFrom(msg.sender, address(this), _tokenId);\n    emit Lent(\n      _nftAddress,\n      _tokenId,\n      msg.sender,\n      _maxDuration,\n      _borrowPrice,\n      _nftPrice\n    );\n  }\n\n  // ! TODO: reentrancy danger since this calls lendOne\n  // lend multiple nfts that you own to be borrowable by Rent NFT\n  // for gas saving\n  function lendMultiple(\n    address[] memory _nftAddresses,\n    uint256[] memory _tokenIds,\n    uint256[] memory _maxDurations,\n    uint256[] memory _borrowPrices,\n    uint256[] memory _nftPrices\n  ) external {\n    // ! TODO: needed to remove nonReentrant for tests?\n    require(_nftAddresses.length == _tokenIds.length, \"not equal length\");\n    require(_tokenIds.length == _maxDurations.length, \"not equal length\");\n    require(_maxDurations.length == _borrowPrices.length, \"not equal length\");\n    require(_borrowPrices.length == _nftPrices.length, \"not equal length\");\n\n    for (uint256 i = 0; i < _nftAddresses.length; i++) {\n      lendOne(\n        _nftAddresses[i],\n        _tokenIds[i],\n        _maxDurations[i],\n        _borrowPrices[i],\n        _nftPrices[i]\n      );\n    }\n  }\n\n  function rentOne(\n    address _borrower,\n    address _nftAddress,\n    uint256 _tokenId,\n    uint256 _actualDuration\n  ) public nonReentrant {\n    Nft storage nft = nfts[_nftAddress][_tokenId];\n\n    require(_borrower != nft.lender, \"can't borrow own nft\");\n    require(_borrower > address(0), \"could not find an NFT\");\n\n    // ! will fail if wasn't approved\n    // pay the NFT owner the rent price\n    uint256 rentPrice = _actualDuration.mul(nft.borrowPrice);\n    ERC20(resolver.getDai()).safeTransferFrom(_borrower, nft.lender, rentPrice);\n    // collateral, our contracts acts as an escrow\n    ERC20(resolver.getDai()).safeTransferFrom(\n      _borrower,\n      address(this),\n      nft.nftPrice\n    );\n\n    nfts[_nftAddress][_tokenId].borrower = _borrower;\n    nfts[_nftAddress][_tokenId].borrowedAt = now;\n    nfts[_nftAddress][_tokenId].actualDuration = _actualDuration;\n\n    ERC721(_nftAddress).safeTransferFrom(address(this), _borrower, _tokenId);\n\n    emit Borrowed(\n      _nftAddress,\n      _tokenId,\n      _borrower,\n      nft.lender,\n      nft.borrowedAt,\n      nft.borrowPrice,\n      nft.actualDuration,\n      nft.nftPrice\n    );\n  }\n\n  function rentMultiple(\n    address _borrower,\n    address[] memory _nftAddresses,\n    uint256[] memory _tokenIds,\n    uint256[] memory _actualDurations\n  ) external nonReentrant {\n    for (uint256 i = 0; i < _nftAddresses.length; i++) {\n      rentOne(_borrower, _nftAddresses[i], _tokenIds[i], _actualDurations[0]);\n    }\n  }\n\n  function returnNftOne(address _nftAddress, uint256 _tokenId)\n    public\n    nonReentrant\n  {\n    Nft storage nft = nfts[_nftAddress][_tokenId];\n\n    require(nft.borrower == msg.sender, \"not borrower\");\n\n    // we are returning back to the contract so that the owner does not have to add\n    // it multiple times thus incurring the transaction costs\n    ERC721(_nftAddress).safeTransferFrom(msg.sender, address(this), _tokenId);\n    ERC20(resolver.getDai()).safeTransfer(nft.borrower, nft.nftPrice);\n\n    resetBorrow(nft);\n    emit Returned(_nftAddress, _tokenId, msg.sender, nft.borrower);\n  }\n\n  function returnNftMultiple(\n    address[] memory _nftAddresses,\n    uint256[] memory _tokenIds\n  ) external nonReentrant {\n    for (uint256 i = 0; i < _nftAddresses.length; i++) {\n      returnNftOne(_nftAddresses[i], _tokenIds[i]);\n    }\n  }\n\n  // TODO: onlyOwner method to be called every day at midnight to automatically\n  // default whoever has not returned the NFT in time\n\n  function resetBorrow(Nft storage nft) internal {\n    nft.borrower = address(0);\n    nft.actualDuration = 0;\n    nft.borrowedAt = 0;\n  }\n}\n",
  "sourcePath": "/home/shredder/git/superfluid/contracts/contracts/RentNft.sol",
  "compiler": {
    "name": "solc",
    "version": "0.6.12+commit.27d51765.Emscripten.clang"
  },
  "schemaVersion": "3.3.1",
  "updatedAt": "2020-10-27T16:10:32.315Z",
  "networkType": "ethereum",
  "devdoc": {
    "kind": "dev",
    "methods": {
      "owner()": {
        "details": "Returns the address of the current owner."
      },
      "renounceOwnership()": {
        "details": "Leaves the contract without owner. It will not be possible to call `onlyOwner` functions anymore. Can only be called by the current owner. NOTE: Renouncing ownership will leave the contract without an owner, thereby removing any functionality that is only available to the owner."
      },
      "transferOwnership(address)": {
        "details": "Transfers ownership of the contract to a new account (`newOwner`). Can only be called by the current owner."
      }
    },
    "version": 1
  },
  "userdoc": {
    "kind": "user",
    "methods": {},
    "version": 1
  }
}