{
  "address": "0xe7f1725E7734CE288F8367e1Bb143E90bb3F0512",
  "abi": [
    {
      "inputs": [],
      "stateMutability": "nonpayable",
      "type": "constructor"
    },
    {
      "anonymous": false,
      "inputs": [
        {
          "indexed": true,
          "internalType": "address",
          "name": "owner",
          "type": "address"
        },
        {
          "indexed": true,
          "internalType": "address",
          "name": "approved",
          "type": "address"
        },
        {
          "indexed": true,
          "internalType": "uint256",
          "name": "tokenId",
          "type": "uint256"
        }
      ],
      "name": "Approval",
      "type": "event"
    },
    {
      "anonymous": false,
      "inputs": [
        {
          "indexed": true,
          "internalType": "address",
          "name": "owner",
          "type": "address"
        },
        {
          "indexed": true,
          "internalType": "address",
          "name": "operator",
          "type": "address"
        },
        {
          "indexed": false,
          "internalType": "bool",
          "name": "approved",
          "type": "bool"
        }
      ],
      "name": "ApprovalForAll",
      "type": "event"
    },
    {
      "anonymous": false,
      "inputs": [
        {
          "indexed": true,
          "internalType": "address",
          "name": "owner",
          "type": "address"
        },
        {
          "indexed": true,
          "internalType": "uint256",
          "name": "tokenId",
          "type": "uint256"
        },
        {
          "indexed": false,
          "internalType": "string",
          "name": "tokenURI",
          "type": "string"
        }
      ],
      "name": "NewFace",
      "type": "event"
    },
    {
      "anonymous": false,
      "inputs": [
        {
          "indexed": true,
          "internalType": "address",
          "name": "from",
          "type": "address"
        },
        {
          "indexed": true,
          "internalType": "address",
          "name": "to",
          "type": "address"
        },
        {
          "indexed": true,
          "internalType": "uint256",
          "name": "tokenId",
          "type": "uint256"
        }
      ],
      "name": "Transfer",
      "type": "event"
    },
    {
      "inputs": [
        {
          "internalType": "address",
          "name": "to",
          "type": "address"
        },
        {
          "internalType": "uint256",
          "name": "tokenId",
          "type": "uint256"
        }
      ],
      "name": "approve",
      "outputs": [],
      "stateMutability": "nonpayable",
      "type": "function"
    },
    {
      "inputs": [],
      "name": "award",
      "outputs": [
        {
          "internalType": "uint256",
          "name": "",
          "type": "uint256"
        }
      ],
      "stateMutability": "nonpayable",
      "type": "function"
    },
    {
      "inputs": [
        {
          "internalType": "address",
          "name": "owner",
          "type": "address"
        }
      ],
      "name": "balanceOf",
      "outputs": [
        {
          "internalType": "uint256",
          "name": "",
          "type": "uint256"
        }
      ],
      "stateMutability": "view",
      "type": "function"
    },
    {
      "inputs": [
        {
          "internalType": "uint256",
          "name": "tokenId",
          "type": "uint256"
        }
      ],
      "name": "getApproved",
      "outputs": [
        {
          "internalType": "address",
          "name": "",
          "type": "address"
        }
      ],
      "stateMutability": "view",
      "type": "function"
    },
    {
      "inputs": [
        {
          "internalType": "address",
          "name": "owner",
          "type": "address"
        },
        {
          "internalType": "address",
          "name": "operator",
          "type": "address"
        }
      ],
      "name": "isApprovedForAll",
      "outputs": [
        {
          "internalType": "bool",
          "name": "",
          "type": "bool"
        }
      ],
      "stateMutability": "view",
      "type": "function"
    },
    {
      "inputs": [],
      "name": "name",
      "outputs": [
        {
          "internalType": "string",
          "name": "",
          "type": "string"
        }
      ],
      "stateMutability": "view",
      "type": "function"
    },
    {
      "inputs": [
        {
          "internalType": "uint256",
          "name": "tokenId",
          "type": "uint256"
        }
      ],
      "name": "ownerOf",
      "outputs": [
        {
          "internalType": "address",
          "name": "",
          "type": "address"
        }
      ],
      "stateMutability": "view",
      "type": "function"
    },
    {
      "inputs": [
        {
          "internalType": "address",
          "name": "from",
          "type": "address"
        },
        {
          "internalType": "address",
          "name": "to",
          "type": "address"
        },
        {
          "internalType": "uint256",
          "name": "tokenId",
          "type": "uint256"
        }
      ],
      "name": "safeTransferFrom",
      "outputs": [],
      "stateMutability": "nonpayable",
      "type": "function"
    },
    {
      "inputs": [
        {
          "internalType": "address",
          "name": "from",
          "type": "address"
        },
        {
          "internalType": "address",
          "name": "to",
          "type": "address"
        },
        {
          "internalType": "uint256",
          "name": "tokenId",
          "type": "uint256"
        },
        {
          "internalType": "bytes",
          "name": "_data",
          "type": "bytes"
        }
      ],
      "name": "safeTransferFrom",
      "outputs": [],
      "stateMutability": "nonpayable",
      "type": "function"
    },
    {
      "inputs": [
        {
          "internalType": "address",
          "name": "operator",
          "type": "address"
        },
        {
          "internalType": "bool",
          "name": "approved",
          "type": "bool"
        }
      ],
      "name": "setApprovalForAll",
      "outputs": [],
      "stateMutability": "nonpayable",
      "type": "function"
    },
    {
      "inputs": [
        {
          "internalType": "bytes4",
          "name": "interfaceId",
          "type": "bytes4"
        }
      ],
      "name": "supportsInterface",
      "outputs": [
        {
          "internalType": "bool",
          "name": "",
          "type": "bool"
        }
      ],
      "stateMutability": "view",
      "type": "function"
    },
    {
      "inputs": [],
      "name": "symbol",
      "outputs": [
        {
          "internalType": "string",
          "name": "",
          "type": "string"
        }
      ],
      "stateMutability": "view",
      "type": "function"
    },
    {
      "inputs": [
        {
          "internalType": "uint256",
          "name": "_tokenId",
          "type": "uint256"
        }
      ],
      "name": "tokenURI",
      "outputs": [
        {
          "internalType": "string",
          "name": "",
          "type": "string"
        }
      ],
      "stateMutability": "view",
      "type": "function"
    },
    {
      "inputs": [
        {
          "internalType": "address",
          "name": "from",
          "type": "address"
        },
        {
          "internalType": "address",
          "name": "to",
          "type": "address"
        },
        {
          "internalType": "uint256",
          "name": "tokenId",
          "type": "uint256"
        }
      ],
      "name": "transferFrom",
      "outputs": [],
      "stateMutability": "nonpayable",
      "type": "function"
    }
  ],
  "transactionHash": "0xec427e9ad5f439b89e56e76b7cd79374770a3b000390190c08cca5db146f75ae",
  "args": [],
  "solcInputHash": "5d969c56c4d1e7416be3e76860066bc7",
  "bytecode": "0x61022060405260256101c0818152608091829190620017486101e03981526020016040518060600160405280602581526020016200166d60259139815260200160405180606001604052806025815260200162001692602591398152602001604051806060016040528060258152602001620016b7602591398152602001604051806060016040528060258152602001620016ff6025913981526020016040518060400160405280601b81526020017f68747470733a2f2f726f70652e6c6f6c2f6170692f524d552f3531000000000081525081526020016040518060400160405280601b81526020017f68747470733a2f2f726f70652e6c6f6c2f6170692f524d552f353200000000008152508152602001604051806060016040528060238152602001620016dc602391398152602001604051806060016040528060248152602001620017246024913981526020016040518060600160405280602381526020016200164a6023913990526200017c90600790600a620001f3565b503480156200018a57600080fd5b50604080518082018252600781526647414e4641434560c81b60208083019182528351808501909452600284526123a360f11b908401528151919291620001d49160009162000257565b508051620001ea90600190602084019062000257565b5050506200039c565b82805482825590600052602060002090810192821562000245579160200282015b828111156200024557825180516200023491849160209091019062000257565b509160200191906001019062000214565b5062000253929150620002e2565b5090565b82805462000265906200035f565b90600052602060002090601f016020900481019282620002895760008555620002d4565b82601f10620002a457805160ff1916838001178555620002d4565b82800160010185558215620002d4579182015b82811115620002d4578251825591602001919060010190620002b7565b506200025392915062000303565b8082111562000253576000620002f982826200031a565b50600101620002e2565b5b8082111562000253576000815560010162000304565b50805462000328906200035f565b6000825580601f106200033c57506200035c565b601f0160209004906000526020600020908101906200035c919062000303565b50565b600181811c908216806200037457607f821691505b602082108114156200039657634e487b7160e01b600052602260045260246000fd5b50919050565b61129e80620003ac6000396000f3fe608060405234801561001057600080fd5b50600436106100ea5760003560e01c80636352211e1161008c578063a22cb46511610066578063a22cb465146101d6578063b88d4fde146101e9578063c87b56dd146101fc578063e985e9c51461020f576100ea565b80636352211e146101a857806370a08231146101bb57806395d89b41146101ce576100ea565b8063095ea7b3116100c8578063095ea7b31461015757806323b872dd1461016c57806341a494c51461017f57806342842e0e14610195576100ea565b806301ffc9a7146100ef57806306fdde0314610117578063081812fc1461012c575b600080fd5b6101026100fd366004611010565b61024b565b60405190151581526020015b60405180910390f35b61011f61029f565b60405161010e91906110e8565b61013f61013a366004611048565b610331565b6040516001600160a01b03909116815260200161010e565b61016a610165366004610fe7565b6103cb565b005b61016a61017a366004610e9d565b6104e1565b610187610512565b60405190815260200161010e565b61016a6101a3366004610e9d565b61053b565b61013f6101b6366004611048565b610556565b6101876101c9366004610e4a565b6105cd565b61011f610654565b61016a6101e4366004610fad565b610663565b61016a6101f7366004610ed8565b610735565b61011f61020a366004611048565b61076d565b61010261021d366004610e6b565b6001600160a01b03918216600090815260056020908152604080832093909416825291909152205460ff1690565b60006001600160e01b031982166380ac58cd60e01b148061027c57506001600160e01b03198216635b5e139f60e01b145b8061029757506301ffc9a760e01b6001600160e01b03198316145b90505b919050565b6060600080546102ae906111cd565b80601f01602080910402602001604051908101604052809291908181526020018280546102da906111cd565b80156103275780601f106102fc57610100808354040283529160200191610327565b820191906000526020600020905b81548152906001019060200180831161030a57829003601f168201915b5050505050905090565b6000818152600260205260408120546001600160a01b03166103af5760405162461bcd60e51b815260206004820152602c60248201527f4552433732313a20617070726f76656420717565727920666f72206e6f6e657860448201526b34b9ba32b73a103a37b5b2b760a11b60648201526084015b60405180910390fd5b506000908152600460205260409020546001600160a01b031690565b60006103d682610556565b9050806001600160a01b0316836001600160a01b031614156104445760405162461bcd60e51b815260206004820152602160248201527f4552433732313a20617070726f76616c20746f2063757272656e74206f776e656044820152603960f91b60648201526084016103a6565b336001600160a01b03821614806104605750610460813361021d565b6104d25760405162461bcd60e51b815260206004820152603860248201527f4552433732313a20617070726f76652063616c6c6572206973206e6f74206f7760448201527f6e6572206e6f7220617070726f76656420666f7220616c6c000000000000000060648201526084016103a6565b6104dc83836108ac565b505050565b6104eb338261091a565b6105075760405162461bcd60e51b81526004016103a69061114d565b6104dc838383610a11565b600680546000918261052383611208565b919050555061053433600654610bb1565b5060065490565b6104dc83838360405180602001604052806000815250610735565b6000818152600260205260408120546001600160a01b0316806102975760405162461bcd60e51b815260206004820152602960248201527f4552433732313a206f776e657220717565727920666f72206e6f6e657869737460448201526832b73a103a37b5b2b760b91b60648201526084016103a6565b60006001600160a01b0382166106385760405162461bcd60e51b815260206004820152602a60248201527f4552433732313a2062616c616e636520717565727920666f7220746865207a65604482015269726f206164647265737360b01b60648201526084016103a6565b506001600160a01b031660009081526003602052604090205490565b6060600180546102ae906111cd565b6001600160a01b0382163314156106bc5760405162461bcd60e51b815260206004820152601960248201527f4552433732313a20617070726f766520746f2063616c6c65720000000000000060448201526064016103a6565b3360008181526005602090815260408083206001600160a01b0387168085529252909120805460ff1916841515179055906001600160a01b03167f17307eab39ab6107e8899845ad3d59bd9653f200f220920489ca2b5937696c3183604051610729911515815260200190565b60405180910390a35050565b61073f338361091a565b61075b5760405162461bcd60e51b81526004016103a69061114d565b61076784848484610cf3565b50505050565b6000818152600260205260409020546060906001600160a01b03166107ec5760405162461bcd60e51b815260206004820152602f60248201527f4552433732314d657461646174613a2055524920717565727920666f72206e6f60448201526e3732bc34b9ba32b73a103a37b5b2b760891b60648201526084016103a6565b600060076006548154811061081157634e487b7160e01b600052603260045260246000fd5b906000526020600020018054610826906111cd565b80601f0160208091040260200160405190810160405280929190818152602001828054610852906111cd565b801561089f5780601f106108745761010080835404028352916020019161089f565b820191906000526020600020905b81548152906001019060200180831161088257829003601f168201915b5093979650505050505050565b600081815260046020526040902080546001600160a01b0319166001600160a01b03841690811790915581906108e182610556565b6001600160a01b03167f8c5be1e5ebec7d5bd14f71427d1e84f3dd0314c0f7b2291e5b200ac8c7c3b92560405160405180910390a45050565b6000818152600260205260408120546001600160a01b03166109935760405162461bcd60e51b815260206004820152602c60248201527f4552433732313a206f70657261746f7220717565727920666f72206e6f6e657860448201526b34b9ba32b73a103a37b5b2b760a11b60648201526084016103a6565b600061099e83610556565b9050806001600160a01b0316846001600160a01b031614806109d95750836001600160a01b03166109ce84610331565b6001600160a01b0316145b80610a0957506001600160a01b0380821660009081526005602090815260408083209388168352929052205460ff165b949350505050565b826001600160a01b0316610a2482610556565b6001600160a01b031614610a8c5760405162461bcd60e51b815260206004820152602960248201527f4552433732313a207472616e73666572206f6620746f6b656e2074686174206960448201526839903737ba1037bbb760b91b60648201526084016103a6565b6001600160a01b038216610aee5760405162461bcd60e51b8152602060048201526024808201527f4552433732313a207472616e7366657220746f20746865207a65726f206164646044820152637265737360e01b60648201526084016103a6565b610af96000826108ac565b6001600160a01b0383166000908152600360205260408120805460019290610b229084906111b6565b90915550506001600160a01b0382166000908152600360205260408120805460019290610b5090849061119e565b909155505060008181526002602052604080822080546001600160a01b0319166001600160a01b0386811691821790925591518493918716917fddf252ad1be2c89b69c2b068fc378daa952ba7f163c4a11628f55a4df523b3ef91a4505050565b6001600160a01b038216610c075760405162461bcd60e51b815260206004820181905260248201527f4552433732313a206d696e7420746f20746865207a65726f206164647265737360448201526064016103a6565b6000818152600260205260409020546001600160a01b031615610c6c5760405162461bcd60e51b815260206004820152601c60248201527f4552433732313a20746f6b656e20616c7265616479206d696e7465640000000060448201526064016103a6565b6001600160a01b0382166000908152600360205260408120805460019290610c9590849061119e565b909155505060008181526002602052604080822080546001600160a01b0319166001600160a01b03861690811790915590518392907fddf252ad1be2c89b69c2b068fc378daa952ba7f163c4a11628f55a4df523b3ef908290a45050565b610cfe848484610a11565b610d0a84848484610d26565b6107675760405162461bcd60e51b81526004016103a6906110fb565b60006001600160a01b0384163b15610e2857604051630a85bd0160e11b81526001600160a01b0385169063150b7a0290610d6a9033908990889088906004016110ab565b602060405180830381600087803b158015610d8457600080fd5b505af1925050508015610db4575060408051601f3d908101601f19168201909252610db19181019061102c565b60015b610e0e573d808015610de2576040519150601f19603f3d011682016040523d82523d6000602084013e610de7565b606091505b508051610e065760405162461bcd60e51b81526004016103a6906110fb565b805181602001fd5b6001600160e01b031916630a85bd0160e11b149050610a09565b506001949350505050565b80356001600160a01b038116811461029a57600080fd5b600060208284031215610e5b578081fd5b610e6482610e33565b9392505050565b60008060408385031215610e7d578081fd5b610e8683610e33565b9150610e9460208401610e33565b90509250929050565b600080600060608486031215610eb1578081fd5b610eba84610e33565b9250610ec860208501610e33565b9150604084013590509250925092565b60008060008060808587031215610eed578081fd5b610ef685610e33565b9350610f0460208601610e33565b925060408501359150606085013567ffffffffffffffff80821115610f27578283fd5b818701915087601f830112610f3a578283fd5b813581811115610f4c57610f4c611239565b604051601f8201601f19908116603f01168101908382118183101715610f7457610f74611239565b816040528281528a6020848701011115610f8c578586fd5b82602086016020830137918201602001949094529598949750929550505050565b60008060408385031215610fbf578182fd5b610fc883610e33565b915060208301358015158114610fdc578182fd5b809150509250929050565b60008060408385031215610ff9578182fd5b61100283610e33565b946020939093013593505050565b600060208284031215611021578081fd5b8135610e648161124f565b60006020828403121561103d578081fd5b8151610e648161124f565b600060208284031215611059578081fd5b5035919050565b60008151808452815b8181101561108557602081850181015186830182015201611069565b818111156110965782602083870101525b50601f01601f19169290920160200192915050565b6001600160a01b03858116825284166020820152604081018390526080606082018190526000906110de90830184611060565b9695505050505050565b600060208252610e646020830184611060565b60208082526032908201527f4552433732313a207472616e7366657220746f206e6f6e20455243373231526560408201527131b2b4bb32b91034b6b83632b6b2b73a32b960711b606082015260800190565b60208082526031908201527f4552433732313a207472616e736665722063616c6c6572206973206e6f74206f6040820152701ddb995c881b9bdc88185c1c1c9bdd9959607a1b606082015260800190565b600082198211156111b1576111b1611223565b500190565b6000828210156111c8576111c8611223565b500390565b600181811c908216806111e157607f821691505b6020821081141561120257634e487b7160e01b600052602260045260246000fd5b50919050565b600060001982141561121c5761121c611223565b5060010190565b634e487b7160e01b600052601160045260246000fd5b634e487b7160e01b600052604160045260246000fd5b6001600160e01b03198116811461126557600080fd5b5056fea264697066735822122016abdc04b18c52acdf364c4d0a7c048b1f9d08c9e3abe1d60e09d33bc823889564736f6c6343000803003368747470733a2f2f6170692e626363672e6469676974616c2f6170692f626363672f3168747470733a2f2f6e66742e736572766963652e636f6d6574682e696f2f3330303030313568747470733a2f2f6e66742e736572766963652e636f6d6574682e696f2f3630303033323768747470733a2f2f6e66742e736572766963652e636f6d6574682e696f2f3630303033323868747470733a2f2f6170692e626363672e6469676974616c2f6170692f626363672f3968747470733a2f2f6e66742e736572766963652e636f6d6574682e696f2f3630303033323968747470733a2f2f6170692e626363672e6469676974616c2f6170692f626363672f313168747470733a2f2f6e66742e736572766963652e636f6d6574682e696f2f33303030303133",
  "devdoc": {
    "kind": "dev",
    "methods": {
      "approve(address,uint256)": {
        "details": "See {IERC721-approve}."
      },
      "balanceOf(address)": {
        "details": "See {IERC721-balanceOf}."
      },
      "getApproved(uint256)": {
        "details": "See {IERC721-getApproved}."
      },
      "isApprovedForAll(address,address)": {
        "details": "See {IERC721-isApprovedForAll}."
      },
      "name()": {
        "details": "See {IERC721Metadata-name}."
      },
      "ownerOf(uint256)": {
        "details": "See {IERC721-ownerOf}."
      },
      "safeTransferFrom(address,address,uint256)": {
        "details": "See {IERC721-safeTransferFrom}."
      },
      "safeTransferFrom(address,address,uint256,bytes)": {
        "details": "See {IERC721-safeTransferFrom}."
      },
      "setApprovalForAll(address,bool)": {
        "details": "See {IERC721-setApprovalForAll}."
      },
      "supportsInterface(bytes4)": {
        "details": "See {IERC165-supportsInterface}."
      },
      "symbol()": {
        "details": "See {IERC721Metadata-symbol}."
      },
      "transferFrom(address,address,uint256)": {
        "details": "See {IERC721-transferFrom}."
      }
    },
    "version": 1
  },
  "userdoc": {
    "kind": "user",
    "methods": {},
    "version": 1
  },
  "storageLayout": {
    "storage": [
      {
        "astId": 2080,
        "contract": "src/Test/MyERC721.sol:MyERC721",
        "label": "_name",
        "offset": 0,
        "slot": "0",
        "type": "t_string_storage"
      },
      {
        "astId": 2082,
        "contract": "src/Test/MyERC721.sol:MyERC721",
        "label": "_symbol",
        "offset": 0,
        "slot": "1",
        "type": "t_string_storage"
      },
      {
        "astId": 2086,
        "contract": "src/Test/MyERC721.sol:MyERC721",
        "label": "_owners",
        "offset": 0,
        "slot": "2",
        "type": "t_mapping(t_uint256,t_address)"
      },
      {
        "astId": 2090,
        "contract": "src/Test/MyERC721.sol:MyERC721",
        "label": "_balances",
        "offset": 0,
        "slot": "3",
        "type": "t_mapping(t_address,t_uint256)"
      },
      {
        "astId": 2094,
        "contract": "src/Test/MyERC721.sol:MyERC721",
        "label": "_tokenApprovals",
        "offset": 0,
        "slot": "4",
        "type": "t_mapping(t_uint256,t_address)"
      },
      {
        "astId": 2100,
        "contract": "src/Test/MyERC721.sol:MyERC721",
        "label": "_operatorApprovals",
        "offset": 0,
        "slot": "5",
        "type": "t_mapping(t_address,t_mapping(t_address,t_bool))"
      },
      {
        "astId": 5612,
        "contract": "src/Test/MyERC721.sol:MyERC721",
        "label": "tokenId",
        "offset": 0,
        "slot": "6",
        "type": "t_uint256"
      },
      {
        "astId": 5626,
        "contract": "src/Test/MyERC721.sol:MyERC721",
        "label": "tokenUris",
        "offset": 0,
        "slot": "7",
        "type": "t_array(t_string_storage)dyn_storage"
      }
    ],
    "types": {
      "t_address": {
        "encoding": "inplace",
        "label": "address",
        "numberOfBytes": "20"
      },
      "t_array(t_string_storage)dyn_storage": {
        "base": "t_string_storage",
        "encoding": "dynamic_array",
        "label": "string[]",
        "numberOfBytes": "32"
      },
      "t_bool": {
        "encoding": "inplace",
        "label": "bool",
        "numberOfBytes": "1"
      },
      "t_mapping(t_address,t_bool)": {
        "encoding": "mapping",
        "key": "t_address",
        "label": "mapping(address => bool)",
        "numberOfBytes": "32",
        "value": "t_bool"
      },
      "t_mapping(t_address,t_mapping(t_address,t_bool))": {
        "encoding": "mapping",
        "key": "t_address",
        "label": "mapping(address => mapping(address => bool))",
        "numberOfBytes": "32",
        "value": "t_mapping(t_address,t_bool)"
      },
      "t_mapping(t_address,t_uint256)": {
        "encoding": "mapping",
        "key": "t_address",
        "label": "mapping(address => uint256)",
        "numberOfBytes": "32",
        "value": "t_uint256"
      },
      "t_mapping(t_uint256,t_address)": {
        "encoding": "mapping",
        "key": "t_uint256",
        "label": "mapping(uint256 => address)",
        "numberOfBytes": "32",
        "value": "t_address"
      },
      "t_string_storage": {
        "encoding": "bytes",
        "label": "string",
        "numberOfBytes": "32"
      },
      "t_uint256": {
        "encoding": "inplace",
        "label": "uint256",
        "numberOfBytes": "32"
      }
    }
  }
}