{
  "address": "0x5FC8d32690cc91D4c39d9d3abcBD16989F875707",
  "abi": [
    {
      "inputs": [
        {
          "internalType": "address",
          "name": "_resolver",
          "type": "address"
        },
        {
          "internalType": "address payable",
          "name": "_beneficiary",
          "type": "address"
        },
        {
          "internalType": "address",
          "name": "_admin",
          "type": "address"
        }
      ],
      "stateMutability": "nonpayable",
      "type": "constructor"
    },
    {
      "anonymous": false,
      "inputs": [
        {
          "indexed": true,
          "internalType": "address",
          "name": "nftAddress",
          "type": "address"
        },
        {
          "indexed": true,
          "internalType": "uint256",
          "name": "tokenId",
          "type": "uint256"
        },
        {
          "indexed": true,
          "internalType": "uint256",
          "name": "lendingId",
          "type": "uint256"
        },
        {
          "indexed": false,
          "internalType": "uint32",
          "name": "claimedAt",
          "type": "uint32"
        }
      ],
      "name": "CollateralClaimed",
      "type": "event"
    },
    {
      "anonymous": false,
      "inputs": [
        {
          "indexed": true,
          "internalType": "address",
          "name": "nftAddress",
          "type": "address"
        },
        {
          "indexed": true,
          "internalType": "uint256",
          "name": "tokenId",
          "type": "uint256"
        },
        {
          "indexed": true,
          "internalType": "uint256",
          "name": "lendingId",
          "type": "uint256"
        },
        {
          "indexed": false,
          "internalType": "uint32",
          "name": "stoppedAt",
          "type": "uint32"
        }
      ],
      "name": "LendingStopped",
      "type": "event"
    },
    {
      "anonymous": false,
      "inputs": [
        {
          "indexed": true,
          "internalType": "address",
          "name": "nftAddress",
          "type": "address"
        },
        {
          "indexed": true,
          "internalType": "uint256",
          "name": "tokenId",
          "type": "uint256"
        },
        {
          "indexed": false,
          "internalType": "uint256",
          "name": "lendingId",
          "type": "uint256"
        },
        {
          "indexed": true,
          "internalType": "address",
          "name": "lenderAddress",
          "type": "address"
        },
        {
          "indexed": false,
          "internalType": "uint16",
          "name": "maxRentDuration",
          "type": "uint16"
        },
        {
          "indexed": false,
          "internalType": "bytes4",
          "name": "dailyRentPrice",
          "type": "bytes4"
        },
        {
          "indexed": false,
          "internalType": "bytes4",
          "name": "nftPrice",
          "type": "bytes4"
        },
        {
          "indexed": false,
          "internalType": "bool",
          "name": "isERC721",
          "type": "bool"
        },
        {
          "indexed": false,
          "internalType": "enum IResolver.PaymentToken",
          "name": "paymentToken",
          "type": "uint8"
        }
      ],
      "name": "Lent",
      "type": "event"
    },
    {
      "anonymous": false,
      "inputs": [
        {
          "indexed": true,
          "internalType": "address",
          "name": "nftAddress",
          "type": "address"
        },
        {
          "indexed": true,
          "internalType": "uint256",
          "name": "tokenId",
          "type": "uint256"
        },
        {
          "indexed": false,
          "internalType": "uint256",
          "name": "lendingId",
          "type": "uint256"
        },
        {
          "indexed": true,
          "internalType": "address",
          "name": "renterAddress",
          "type": "address"
        },
        {
          "indexed": false,
          "internalType": "uint16",
          "name": "rentDuration",
          "type": "uint16"
        },
        {
          "indexed": false,
          "internalType": "bool",
          "name": "isERC721",
          "type": "bool"
        },
        {
          "indexed": false,
          "internalType": "uint32",
          "name": "rentedAt",
          "type": "uint32"
        }
      ],
      "name": "Rented",
      "type": "event"
    },
    {
      "anonymous": false,
      "inputs": [
        {
          "indexed": true,
          "internalType": "address",
          "name": "nftAddress",
          "type": "address"
        },
        {
          "indexed": true,
          "internalType": "uint256",
          "name": "tokenId",
          "type": "uint256"
        },
        {
          "indexed": true,
          "internalType": "uint256",
          "name": "lendingId",
          "type": "uint256"
        },
        {
          "indexed": false,
          "internalType": "address",
          "name": "renterAddress",
          "type": "address"
        },
        {
          "indexed": false,
          "internalType": "uint32",
          "name": "returnedAt",
          "type": "uint32"
        }
      ],
      "name": "Returned",
      "type": "event"
    },
    {
      "inputs": [
        {
          "internalType": "address[]",
          "name": "_nft",
          "type": "address[]"
        },
        {
          "internalType": "uint256[]",
          "name": "_tokenId",
          "type": "uint256[]"
        },
        {
          "internalType": "uint256[]",
          "name": "_id",
          "type": "uint256[]"
        }
      ],
      "name": "claimCollateral",
      "outputs": [],
      "stateMutability": "nonpayable",
      "type": "function"
    },
    {
      "inputs": [
        {
          "internalType": "address[]",
          "name": "_nft",
          "type": "address[]"
        },
        {
          "internalType": "uint256[]",
          "name": "_tokenId",
          "type": "uint256[]"
        },
        {
          "internalType": "uint16[]",
          "name": "_maxRentDuration",
          "type": "uint16[]"
        },
        {
          "internalType": "bytes4[]",
          "name": "_dailyRentPrice",
          "type": "bytes4[]"
        },
        {
          "internalType": "bytes4[]",
          "name": "_nftPrice",
          "type": "bytes4[]"
        },
        {
          "internalType": "enum IResolver.PaymentToken[]",
          "name": "_paymentToken",
          "type": "uint8[]"
        }
      ],
      "name": "lend",
      "outputs": [],
      "stateMutability": "nonpayable",
      "type": "function"
    },
    {
      "inputs": [
        {
          "internalType": "address",
          "name": "",
          "type": "address"
        },
        {
          "internalType": "address",
          "name": "",
          "type": "address"
        },
        {
          "internalType": "uint256[]",
          "name": "",
          "type": "uint256[]"
        },
        {
          "internalType": "uint256[]",
          "name": "",
          "type": "uint256[]"
        },
        {
          "internalType": "bytes",
          "name": "",
          "type": "bytes"
        }
      ],
      "name": "onERC1155BatchReceived",
      "outputs": [
        {
          "internalType": "bytes4",
          "name": "",
          "type": "bytes4"
        }
      ],
      "stateMutability": "pure",
      "type": "function"
    },
    {
      "inputs": [
        {
          "internalType": "address",
          "name": "",
          "type": "address"
        },
        {
          "internalType": "address",
          "name": "",
          "type": "address"
        },
        {
          "internalType": "uint256",
          "name": "",
          "type": "uint256"
        },
        {
          "internalType": "uint256",
          "name": "",
          "type": "uint256"
        },
        {
          "internalType": "bytes",
          "name": "",
          "type": "bytes"
        }
      ],
      "name": "onERC1155Received",
      "outputs": [
        {
          "internalType": "bytes4",
          "name": "",
          "type": "bytes4"
        }
      ],
      "stateMutability": "pure",
      "type": "function"
    },
    {
      "inputs": [
        {
          "internalType": "address",
          "name": "",
          "type": "address"
        },
        {
          "internalType": "address",
          "name": "",
          "type": "address"
        },
        {
          "internalType": "uint256",
          "name": "",
          "type": "uint256"
        },
        {
          "internalType": "bytes",
          "name": "",
          "type": "bytes"
        }
      ],
      "name": "onERC721Received",
      "outputs": [
        {
          "internalType": "bytes4",
          "name": "",
          "type": "bytes4"
        }
      ],
      "stateMutability": "pure",
      "type": "function"
    },
    {
      "inputs": [
        {
          "internalType": "address[]",
          "name": "_nft",
          "type": "address[]"
        },
        {
          "internalType": "uint256[]",
          "name": "_tokenId",
          "type": "uint256[]"
        },
        {
          "internalType": "uint256[]",
          "name": "_id",
          "type": "uint256[]"
        },
        {
          "internalType": "uint16[]",
          "name": "_rentDuration",
          "type": "uint16[]"
        }
      ],
      "name": "rent",
      "outputs": [],
      "stateMutability": "payable",
      "type": "function"
    },
    {
      "inputs": [],
      "name": "rentFee",
      "outputs": [
        {
          "internalType": "uint256",
          "name": "",
          "type": "uint256"
        }
      ],
      "stateMutability": "view",
      "type": "function"
    },
    {
      "inputs": [
        {
          "internalType": "address[]",
          "name": "_nft",
          "type": "address[]"
        },
        {
          "internalType": "uint256[]",
          "name": "_tokenId",
          "type": "uint256[]"
        },
        {
          "internalType": "uint256[]",
          "name": "_id",
          "type": "uint256[]"
        }
      ],
      "name": "returnIt",
      "outputs": [],
      "stateMutability": "nonpayable",
      "type": "function"
    },
    {
      "inputs": [
        {
          "internalType": "address payable",
          "name": "_newBeneficiary",
          "type": "address"
        }
      ],
      "name": "setBeneficiary",
      "outputs": [],
      "stateMutability": "nonpayable",
      "type": "function"
    },
    {
      "inputs": [
        {
          "internalType": "uint256",
          "name": "_rentFee",
          "type": "uint256"
        }
      ],
      "name": "setRentFee",
      "outputs": [],
      "stateMutability": "nonpayable",
      "type": "function"
    },
    {
      "inputs": [
        {
          "internalType": "address[]",
          "name": "_nft",
          "type": "address[]"
        },
        {
          "internalType": "uint256[]",
          "name": "_tokenId",
          "type": "uint256[]"
        },
        {
          "internalType": "uint256[]",
          "name": "_id",
          "type": "uint256[]"
        }
      ],
      "name": "stopLending",
      "outputs": [],
      "stateMutability": "nonpayable",
      "type": "function"
    },
    {
      "inputs": [
        {
          "internalType": "bytes4",
          "name": "interfaceId",
          "type": "bytes4"
        }
      ],
      "name": "supportsInterface",
      "outputs": [
        {
          "internalType": "bool",
          "name": "",
          "type": "bool"
        }
      ],
      "stateMutability": "pure",
      "type": "function"
    }
  ],
  "transactionHash": "0xcc76cd652df00a8c9e83f0d1e98d777d3fb2c3a0fe27050ede6710e41dc2cf03",
  "args": [
    "0xDc64a140Aa3E981100a9becA4E685f962f0cF6C9",
    "0x70997970C51812dc3A010C7d01b50e0d17dc79C8",
    "0xf39Fd6e51aad88F6F4ce6aB8827279cffFb92266"
  ],
  "solcInputHash": "5d969c56c4d1e7416be3e76860066bc7",
  "bytecode": "0x608060405260016004556101f46005553480156200001c57600080fd5b506040516200381e3803806200381e8339810160408190526200003f9162000087565b6001600081905580546001600160a01b039485166001600160a01b031991821617909155600380549385169382169390931790925560028054919093169116179055620000f3565b6000806000606084860312156200009c578283fd5b8351620000a981620000da565b6020850151909350620000bc81620000da565b6040850151909250620000cf81620000da565b809150509250925092565b6001600160a01b0381168114620000f057600080fd5b50565b61371b80620001036000396000f3fe6080604052600436106100a75760003560e01c806376774ea31161006457806376774ea3146101a8578063bc197c81146101c8578063bf2b23ea146101f7578063dc6b1f911461021b578063f23a6e611461022e578063fb1585191461025b576100a7565b806301ffc9a7146100ac578063098130df146100e1578063150b7a02146101035780631c31f71014610148578063486b378b1461016857806359fe66e414610188575b600080fd5b3480156100b857600080fd5b506100cc6100c736600461330a565b61027b565b60405190151581526020015b60405180910390f35b3480156100ed57600080fd5b506101016100fc3660046131be565b6102b4565b005b34801561010f57600080fd5b5061012f61011e366004612fe5565b63785cf2dd60e11b95945050505050565b6040516001600160e01b031990911681526020016100d8565b34801561015457600080fd5b50610101610163366004612f0e565b61058f565b34801561017457600080fd5b506101016101833660046130d0565b6105e5565b34801561019457600080fd5b506101016101a33660046131be565b610cc8565b3480156101b457600080fd5b506101016101c3366004613324565b611134565b3480156101d457600080fd5b5061012f6101e3366004612f2a565b63bc197c8160e01b98975050505050505050565b34801561020357600080fd5b5061020d60055481565b6040519081526020016100d8565b610101610229366004613242565b6111ca565b34801561023a57600080fd5b5061012f610249366004613056565b63f23a6e6160e01b9695505050505050565b34801561026757600080fd5b506101016102763660046131be565b611829565b60006001600160e01b03198216630a85bd0160e11b14806102ac57506001600160e01b03198216630271189760e51b145b90505b919050565b600260005414156102e05760405162461bcd60e51b81526004016102d7906133cd565b60405180910390fd5b600260009081555b83518110156105845760006006600086848151811061031757634e487b7160e01b600052603260045260246000fd5b602002602001015186858151811061033f57634e487b7160e01b600052603260045260246000fd5b602002602001015186868151811061036757634e487b7160e01b600052603260045260246000fd5b602002602001015160405160200161038193929190613354565b60408051808303601f190181529181528151602092830120835282820193909352908201600020825160608101845260018201546001600160a01b0381168252600160a01b810461ffff1693820193909352600160b01b90920463ffffffff16928201929092529091506103f490611b64565b80546001600160a01b031633146104435760405162461bcd60e51b81526020600482015260136024820152721bdb9b1e481b195b99195c88185b1b1bddd959606a1b60448201526064016102d7565b61049d303387858151811061046857634e487b7160e01b600052603260045260246000fd5b602002602001015187868151811061049057634e487b7160e01b600052603260045260246000fd5b6020026020010151611c64565b80546001600160f81b031916815582518390839081106104cd57634e487b7160e01b600052603260045260246000fd5b60200260200101518483815181106104f557634e487b7160e01b600052603260045260246000fd5b602002602001015186848151811061051d57634e487b7160e01b600052603260045260246000fd5b60200260200101516001600160a01b03167f8d66e30e8e86dc4affaf59a67cb9877f2935b867994fd273f9e7826dc99d82ef42604051610569919063ffffffff91909116815260200190565b60405180910390a4508061057c81613689565b9150506102e8565b505060016000555050565b6002546001600160a01b031633146105c35760405162461bcd60e51b815260206004820152600060248201526044016102d7565b600380546001600160a01b0319166001600160a01b0392909216919091179055565b600260005414156106085760405162461bcd60e51b81526004016102d7906133cd565b6002600055845186511461065e5760405162461bcd60e51b815260206004820152601e60248201527f5f6e66742e6c656e67746820213d205f746f6b656e49642e6c656e677468000060448201526064016102d7565b83518551146106c25760405162461bcd60e51b815260206004820152602a60248201527f5f746f6b656e49642e6c656e67746820213d205f6d617852656e7444757261746044820152690d2dedc5cd8cadccee8d60b31b60648201526084016102d7565b825184511461072d5760405162461bcd60e51b815260206004820152603160248201527f5f6d617852656e744475726174696f6e2e6c656e67746820213d205f6461696c6044820152700f2a4cadce8a0e4d2c6ca5cd8cadccee8d607b1b60648201526084016102d7565b805182511461078f5760405162461bcd60e51b815260206004820152602860248201527f5f6e667450726963652e6c656e67746820213d205f7061796d656e74546f6b656044820152670dc5cd8cadccee8d60c31b60648201526084016102d7565b60005b8651811015610cba5760008582815181106107bd57634e487b7160e01b600052603260045260246000fd5b602002602001015161ffff16116108165760405162461bcd60e51b815260206004820152601d60248201527f6d757374206265206174206c65617374206f6e6520646179206c656e6400000060448201526064016102d7565b61072185828151811061083957634e487b7160e01b600052603260045260246000fd5b602002602001015161ffff1611156108935760405162461bcd60e51b815260206004820152601c60248201527f6d757374206265206c657373207468616e20666976652079656172730000000060448201526064016102d7565b6108e033308984815181106108b857634e487b7160e01b600052603260045260246000fd5b602002602001015189858151811061049057634e487b7160e01b600052603260045260246000fd5b600087828151811061090257634e487b7160e01b600052603260045260246000fd5b602002602001015187838151811061092a57634e487b7160e01b600052603260045260246000fd5b602002602001015160045460405160200161094793929190613354565b60408051601f19818403018152828252805160209182012060008181526006835283902060a085019093523384528951909450919291908201908990869081106109a157634e487b7160e01b600052603260045260246000fd5b602002602001015161ffff1681526020018785815181106109d257634e487b7160e01b600052603260045260246000fd5b60200260200101516001600160e01b0319168152602001868581518110610a0957634e487b7160e01b600052603260045260246000fd5b60200260200101516001600160e01b0319168152602001858581518110610a4057634e487b7160e01b600052603260045260246000fd5b60200260200101516005811115610a6757634e487b7160e01b600052602160045260246000fd5b9052805182546020830151604084015160608501516001600160a01b039094166001600160b01b031990931692909217600160a01b61ffff909216919091021767ffffffffffffffff60b01b1916600160b01b60e092831c0263ffffffff60d01b191617600160d01b9290911c919091021780835560808201518391829060ff60f01b1916600160f01b836005811115610b1157634e487b7160e01b600052602160045260246000fd5b02179055509050506000610b4b8a8581518110610b3e57634e487b7160e01b600052603260045260246000fd5b6020026020010151611d90565b9050336001600160a01b0316898581518110610b7757634e487b7160e01b600052603260045260246000fd5b60200260200101518b8681518110610b9f57634e487b7160e01b600052603260045260246000fd5b60200260200101516001600160a01b03167f14c21cee422166536e4f3e13b107364f12cb409c18c56dadc682c0e79dc798a26004548c8981518110610bf457634e487b7160e01b600052603260045260246000fd5b60200260200101518c8a81518110610c1c57634e487b7160e01b600052603260045260246000fd5b60200260200101518c8b81518110610c4457634e487b7160e01b600052603260045260246000fd5b6020026020010151888d8d81518110610c6d57634e487b7160e01b600052603260045260246000fd5b6020026020010151604051610c8796959493929190613404565b60405180910390a460048054906000610c9f83613689565b91905055505050508080610cb290613689565b915050610792565b505060016000555050505050565b60026000541415610ceb5760405162461bcd60e51b81526004016102d7906133cd565b600260009081555b835181101561058457600060066000868481518110610d2257634e487b7160e01b600052603260045260246000fd5b6020026020010151868581518110610d4a57634e487b7160e01b600052603260045260246000fd5b6020026020010151868681518110610d7257634e487b7160e01b600052603260045260246000fd5b6020026020010151604051602001610d8c93929190613354565b60408051808303601f190181529181528151602092830120835282820193909352908201600020825160608101845260018201546001600160a01b0381168252600160a01b810461ffff1693820193909352600160b01b90920463ffffffff1692820192909252909150610e009042611e12565b610e3d5760405162461bcd60e51b815260206004820152600e60248201526d18d85b9d0818db185a5b481e595d60921b60448201526064016102d7565b6040805160a08101825282546001600160a01b0381168252600160a01b810461ffff166020830152600160b01b810460e090811b6001600160e01b031990811694840194909452600160d01b8204901b9092166060820152610ef09183906080830190600160f01b900460ff166005811115610ec957634e487b7160e01b600052602160045260246000fd5b6005811115610ee857634e487b7160e01b600052602160045260246000fd5b905250611e4e565b6040805160608101825260018301546001600160a01b0381168252600160a01b810461ffff166020830152600160b01b900463ffffffff1691810191909152610f3890611f9d565b6040805160e0808201835283546001600160a01b03811693830193845261ffff600160a01b82041660608401526001600160e01b0319600160b01b8204831b81166080850152600160d01b820490921b90911660a083015261103b928491839190839060c084019060ff600160f01b909104166005811115610fca57634e487b7160e01b600052602160045260246000fd5b6005811115610fe957634e487b7160e01b600052602160045260246000fd5b905250815260408051606081018252600193909301546001600160a01b0381168452600160a01b810461ffff16602080860191909152600160b01b90910463ffffffff16918401919091520152612087565b80546001600160f81b03191681556001810180546001600160d01b0319169055825183908390811061107d57634e487b7160e01b600052603260045260246000fd5b60200260200101518483815181106110a557634e487b7160e01b600052603260045260246000fd5b60200260200101518684815181106110cd57634e487b7160e01b600052603260045260246000fd5b60200260200101516001600160a01b03167f05aa5bfe8585cc13e8621c71274852eaa27e35b96473184ca96990fe6a38b80942604051611119919063ffffffff91909116815260200190565b60405180910390a4508061112c81613689565b915050610cf3565b6002546001600160a01b031633146111685760405162461bcd60e51b815260206004820152600060248201526044016102d7565b61271081106111c55760405162461bcd60e51b815260206004820152602360248201527f63616e6e6f742062652074616b696e67203130302070637420666565206d61646044820152621b185960ea1b60648201526084016102d7565b600555565b600260005414156111ed5760405162461bcd60e51b81526004016102d7906133cd565b600260005582518451146112435760405162461bcd60e51b815260206004820152601e60248201527f5f6e66742e6c656e67746820213d205f746f6b656e49642e6c656e677468000060448201526064016102d7565b81518351146112945760405162461bcd60e51b815260206004820152601d60248201527f5f746f6b656e49642e6c656e67746820213d205f69642e6c656e67746800000060448201526064016102d7565b80518251146112f05760405162461bcd60e51b815260206004820152602260248201527f5f69642e6c656e67746820213d205f72656e744475726174696f6e2e6c656e676044820152610e8d60f31b60648201526084016102d7565b600080600186516113019190613646565b905060005b8651811015610cba57600087828151811061133157634e487b7160e01b600052603260045260246000fd5b60200260200101519050600087838151811061135d57634e487b7160e01b600052603260045260246000fd5b6020026020010151905086838151811061138757634e487b7160e01b600052603260045260246000fd5b602002602001015160048190555060006006600084846004546040516020016113b293929190613354565b60408051808303601f190181529181528151602092830120835282820193909352908201600020825160608101845260018201546001600160a01b0381168252600160a01b810461ffff1693820193909352600160b01b90920463ffffffff169282019290925290915061142590611b64565b80546001600160a01b03163314156114735760405162461bcd60e51b815260206004820152601160248201527018d85b9d081c995b9d081bdddb881b999d607a1b60448201526064016102d7565b600087858151811061149557634e487b7160e01b600052603260045260246000fd5b6020026020010151905060008161ffff16116114f35760405162461bcd60e51b815260206004820152601e60248201527f73686f756c642072656e7420666f72206174206c65617374206120646179000060448201526064016102d7565b815461ffff600160a01b909104811690821611156115535760405162461bcd60e51b815260206004820152601a60248201527f6d61782072656e74206475726174696f6e20657863656564656400000000000060448201526064016102d7565b8154600090600160f01b900460ff16600581111561158157634e487b7160e01b600052602160045260246000fd5b60015460405163c6ee427f60e01b815260ff831660048201529192506000916001600160a01b039091169063c6ee427f9060240160206040518083038186803b1580156115cd57600080fd5b505afa1580156115e1573d6000803e3d6000fd5b505050506040513d601f19601f820116820180604052508101906116059190612ef2565b9050600160ff831611601281156116225761161f83612263565b90505b600061162f82600a613537565b875490915060009061164b90600160b01b900460e01b836123bb565b6116599061ffff8916613627565b885490915060009061167590600160d01b900460e01b846123bb565b9050600082116116bc5760405162461bcd60e51b815260206004820152601260248201527172656e74207072696365206973207a65726f60701b60448201526064016102d7565b60006116c882846134b9565b905085156116ea576116e56001600160a01b038816333084612488565b6116f9565b808f6116f691906134b9565b9e505b505050508989141561174a578a341461174a5760405162461bcd60e51b81526020600482015260136024820152721a5b9cdd59999a58da595b9d08185b5bdd5b9d606a1b60448201526064016102d7565b6001860180546001600160b01b0319163361ffff60a01b19811691909117600160a01b61ffff8916021763ffffffff60b01b1916600160b01b4263ffffffff16021790915561179c9030908a8a611c64565b336001600160a01b031687896001600160a01b03167f547e8111cedf57ba3e86fad269da48ef07a08a21dedc71efe0665c7dcba7ff6e600454896117df8e611d90565b6040805193845261ffff909216602084015215159082015263ffffffff4216606082015260800160405180910390a45050505050505050808061182190613689565b915050611306565b6002600054141561184c5760405162461bcd60e51b81526004016102d7906133cd565b600260009081555b83518110156105845760006006600086848151811061188357634e487b7160e01b600052603260045260246000fd5b60200260200101518685815181106118ab57634e487b7160e01b600052603260045260246000fd5b60200260200101518686815181106118d357634e487b7160e01b600052603260045260246000fd5b60200260200101516040516020016118ed93929190613354565b60408051601f1981840301815291815281516020928301208352908201929092520160002060018101549091506001600160a01b0316331461195e5760405162461bcd60e51b815260206004820152600a6024820152693737ba103932b73a32b960b11b60448201526064016102d7565b6040805160608101825260018301546001600160a01b0381168252600160a01b810461ffff166020830152600160b01b900463ffffffff169181019190915242906000906119ac9083611e12565b905080156119f25760405162461bcd60e51b8152602060048201526013602482015272697320706173742072657475726e206461746560681b60448201526064016102d7565b6001830154600090611a1190600160b01b900463ffffffff1684613646565b9050611a6033308a8881518110611a3857634e487b7160e01b600052603260045260246000fd5b60200260200101518a898151811061049057634e487b7160e01b600052603260045260246000fd5b611a6a84826124f9565b858581518110611a8a57634e487b7160e01b600052603260045260246000fd5b6020026020010151878681518110611ab257634e487b7160e01b600052603260045260246000fd5b6020026020010151898781518110611ada57634e487b7160e01b600052603260045260246000fd5b60200260200101516001600160a01b03167fc2e5648ce895a76d6488be25b8cd6e98aab7b4a4bf183b1baea76ee09da6917d3342604051611b369291906001600160a01b0392909216825263ffffffff16602082015260400190565b60405180910390a450505060010180546001600160d01b031916905580611b5c81613689565b915050611854565b80516001600160a01b031615611bc75760405162461bcd60e51b815260206004820152602260248201527f72656e7465722061646472657373206973206e6f74207a65726f206164647265604482015261737360f01b60648201526084016102d7565b602081015161ffff1615611c1d5760405162461bcd60e51b815260206004820152601960248201527f72656e74206475726174696f6e206973206e6f74207a65726f0000000000000060448201526064016102d7565b604081015163ffffffff1615611c615760405162461bcd60e51b81526020600482015260096024820152681a5cc81c995b9d195960ba1b60448201526064016102d7565b50565b6000611c6f83611d90565b90506000611c7c84612856565b90508115611cf4576040516323b872dd60e01b81526001600160a01b0387811660048301528681166024830152604482018590528516906323b872dd906064015b600060405180830381600087803b158015611cd757600080fd5b505af1158015611ceb573d6000803e3d6000fd5b50505050611d88565b8015611d4c57604051637921219560e11b81526001600160a01b0387811660048301528681166024830152604482018590526001606483015260a06084830152600060a483015285169063f242432a9060c401611cbd565b60405162461bcd60e51b8152602060048201526011602482015270756e737570706f72746564205f66726f6d60781b60448201526064016102d7565b505050505050565b6040516301ffc9a760e01b81526380ac58cd60e01b60048201526000906001600160a01b038316906301ffc9a7906024015b60206040518083038186803b158015611dda57600080fd5b505afa158015611dee573d6000803e3d6000fd5b505050506040513d601f19601f820116820180604052508101906102ac91906132ea565b6000826020015161ffff1662015180611e2b9190613605565b62ffffff16836040015163ffffffff1683611e469190613646565b119392505050565b80516001600160a01b0316611e9e5760405162461bcd60e51b81526020600482015260166024820152756c656e646572206973207a65726f206164647265737360501b60448201526064016102d7565b602081015161ffff16611ef35760405162461bcd60e51b815260206004820152601960248201527f6d61782072656e74206475726174696f6e206973207a65726f0000000000000060448201526064016102d7565b60408101516001600160e01b031916611f4e5760405162461bcd60e51b815260206004820152601860248201527f6461696c792072656e74207072696365206973207a65726f000000000000000060448201526064016102d7565b60608101516001600160e01b031916611c615760405162461bcd60e51b81526020600482015260116024820152706e6674207072696365206973207a65726f60781b60448201526064016102d7565b80516001600160a01b0316611ff45760405162461bcd60e51b815260206004820152601e60248201527f72656e7465722061646472657373206973207a65726f2061646472657373000060448201526064016102d7565b602081015161ffff166120415760405162461bcd60e51b815260206004820152601560248201527472656e74206475726174696f6e206973207a65726f60581b60448201526064016102d7565b604081015163ffffffff16611c615760405162461bcd60e51b815260206004820152600c60248201526b1b995d995c881c995b9d195960a21b60448201526064016102d7565b80516080015160129060009060058111156120b257634e487b7160e01b600052602160045260246000fd5b60015460405163c6ee427f60e01b815260ff831660048201529192506000916001600160a01b039091169063c6ee427f9060240160206040518083038186803b1580156120fe57600080fd5b505afa158015612112573d6000803e3d6000fd5b505050506040513d601f19601f820116820180604052508101906121369190612ef2565b9050600160ff83161180156121515761214e82612263565b93505b600061215e85600a613537565b90506000612174876000015160600151836123bb565b9050600061218a886000015160400151846123bb565b9050600088602001516020015161ffff16826121a69190613627565b905060006121d6828960ff1660058111156121d157634e487b7160e01b600052602160045260246000fd5b61288c565b905060006121e485846134b9565b90508615612213578a515161220e906121fd8484613646565b6001600160a01b038b1691906129c1565b612256565b8a51516001600160a01b03166108fc61222c8484613646565b6040518115909202916000818181858888f19350505050158015612254573d6000803e3d6000fd5b505b5050505050505050505050565b604080518082018252600a815269646563696d616c73282960b01b60209182015281516004815260248101835290810180516001600160e01b031663313ce56760e01b1790529051600091829182916001600160a01b038616916122c7919061337e565b6000604051808303816000865af19150503d8060008114612304576040519150601f19603f3d011682016040523d82523d6000602084013e612309565b606091505b5091509150816123535760405162461bcd60e51b81526020600482015260156024820152741a5b9d985b1a5908191958da5b585b1cc818d85b1b605a1b60448201526064016102d7565b600081806020019051810190612369919061333c565b9050600081116123b35760405162461bcd60e51b8152602060048201526015602482015274646563696d616c732063616e74206265207a65726f60581b60448201526064016102d7565b949350505050565b600060f083901c61ffff60e085901c16826123d8612710866134d1565b905061270f8361ffff1611156123ee5761270f92505b60006123fe8661ffff8616613627565b905061270f8361ffff1611156124145761270f92505b60006124248361ffff8616613627565b9050600061243282846134b9565b9050828110156124745760405162461bcd60e51b815260206004820152600d60248201526c696e76616c696420707269636560981b60448201526064016102d7565b8061247c5750825b98975050505050505050565b6040516001600160a01b03808516602483015283166044820152606481018290526124f39085906323b872dd60e01b906084015b60408051601f198184030181529190526020810180516001600160e01b03166001600160e01b0319909316929092179091526129f6565b50505050565b8154601290600090600160f01b900460ff16600581111561252a57634e487b7160e01b600052602160045260246000fd5b60015460405163c6ee427f60e01b815260ff831660048201529192506000916001600160a01b039091169063c6ee427f9060240160206040518083038186803b15801561257657600080fd5b505afa15801561258a573d6000803e3d6000fd5b505050506040513d601f19601f820116820180604052508101906125ae9190612ef2565b9050600160ff83161180156125c9576125c682612263565b93505b60006125d685600a613537565b87549091506000906125f290600160d01b900460e01b836123bb565b885490915060009061260e90600160b01b900460e01b846123bb565b60018a015490915060009061262e90600160a01b900461ffff1683613627565b9050600062015180612640848c613627565b61264a91906134d1565b9050808210156126aa5760405162461bcd60e51b815260206004820152602560248201527f6c656e64657220726563656976696e67206d6f7265207468616e2072656e74656044820152641c881c1b5d60da1b60648201526084016102d7565b60006126b68284613646565b90508083116127075760405162461bcd60e51b815260206004820152601b60248201527f756e646572666c6f77206973737565732070726576656e74696f6e000000000060448201526064016102d7565b8b54600090612721908490600160f01b900460ff1661288c565b905061272d86836134b9565b91508715612780578c5461275f906001600160a01b031661274e8386613646565b6001600160a01b038c1691906129c1565b60018d015461277b906001600160a01b038b81169116846129c1565b612847565b8960ff166001146127c85760405162461bcd60e51b815260206004820152601260248201527173656e74696e656c7320646f6e742070617960701b60448201526064016102d7565b8c546001600160a01b03166108fc6127e08386613646565b6040518115909202916000818181858888f19350505050158015612808573d6000803e3d6000fd5b5060018d01546040516001600160a01b039091169083156108fc029084906000818181858888f19350505050158015612845573d6000803e3d6000fd5b505b50505050505050505050505050565b6040516301ffc9a760e01b8152636cdb3d1360e11b60048201526000906001600160a01b038316906301ffc9a790602401611dc2565b60006005548361289c9190613627565b90506128aa612710826134d1565b905060008260058111156128ce57634e487b7160e01b600052602160045260246000fd5b905060018160ff16111561297e5760015460405163c6ee427f60e01b815260ff831660048201526000916001600160a01b03169063c6ee427f9060240160206040518083038186803b15801561292357600080fd5b505afa158015612937573d6000803e3d6000fd5b505050506040513d601f19601f8201168201806040525081019061295b9190612ef2565b600354909150612978906001600160a01b038084169116856129c1565b506129ba565b6003546040516001600160a01b039091169083156108fc029084906000818181858888f193505050501580156129b8573d6000803e3d6000fd5b505b5092915050565b6040516001600160a01b0383166024820152604481018290526129f190849063a9059cbb60e01b906064016124bc565b505050565b6000612a4b826040518060400160405280602081526020017f5361666545524332303a206c6f772d6c6576656c2063616c6c206661696c6564815250856001600160a01b0316612ac89092919063ffffffff16565b8051909150156129f15780806020019051810190612a6991906132ea565b6129f15760405162461bcd60e51b815260206004820152602a60248201527f5361666545524332303a204552433230206f7065726174696f6e20646964206e6044820152691bdd081cdd58d8d9595960b21b60648201526084016102d7565b6060612ad78484600085612ae1565b90505b9392505050565b606082471015612b425760405162461bcd60e51b815260206004820152602660248201527f416464726573733a20696e73756666696369656e742062616c616e636520666f6044820152651c8818d85b1b60d21b60648201526084016102d7565b843b612b905760405162461bcd60e51b815260206004820152601d60248201527f416464726573733a2063616c6c20746f206e6f6e2d636f6e747261637400000060448201526064016102d7565b600080866001600160a01b03168587604051612bac919061337e565b60006040518083038185875af1925050503d8060008114612be9576040519150601f19603f3d011682016040523d82523d6000602084013e612bee565b606091505b5091509150612bfe828286612c09565b979650505050505050565b60608315612c18575081612ada565b825115612c285782518084602001fd5b8160405162461bcd60e51b81526004016102d7919061339a565b600082601f830112612c52578081fd5b81356020612c67612c6283613495565b613464565b80838252828201915082860187848660051b8901011115612c86578586fd5b855b85811015612cad578135612c9b816136d0565b84529284019290840190600101612c88565b5090979650505050505050565b600082601f830112612cca578081fd5b81356020612cda612c6283613495565b80838252828201915082860187848660051b8901011115612cf9578586fd5b855b85811015612cad57612d0c82612e9a565b84529284019290840190600101612cfb565b600082601f830112612d2e578081fd5b81356020612d3e612c6283613495565b80838252828201915082860187848660051b8901011115612d5d578586fd5b855b85811015612cad57813560068110612d75578788fd5b84529284019290840190600101612d5f565b600082601f830112612d97578081fd5b81356020612da7612c6283613495565b80838252828201915082860187848660051b8901011115612dc6578586fd5b855b85811015612cad57813561ffff81168114612de1578788fd5b84529284019290840190600101612dc8565b60008083601f840112612e04578182fd5b50813567ffffffffffffffff811115612e1b578182fd5b6020830191508360208260051b8501011115612e3657600080fd5b9250929050565b600082601f830112612e4d578081fd5b81356020612e5d612c6283613495565b80838252828201915082860187848660051b8901011115612e7c578586fd5b855b85811015612cad57813584529284019290840190600101612e7e565b80356001600160e01b0319811681146102af57600080fd5b60008083601f840112612ec3578182fd5b50813567ffffffffffffffff811115612eda578182fd5b602083019150836020828501011115612e3657600080fd5b600060208284031215612f03578081fd5b8151612ada816136d0565b600060208284031215612f1f578081fd5b8135612ada816136d0565b60008060008060008060008060a0898b031215612f45578384fd5b8835612f50816136d0565b97506020890135612f60816136d0565b9650604089013567ffffffffffffffff80821115612f7c578586fd5b612f888c838d01612df3565b909850965060608b0135915080821115612fa0578586fd5b612fac8c838d01612df3565b909650945060808b0135915080821115612fc4578384fd5b50612fd18b828c01612eb2565b999c989b5096995094979396929594505050565b600080600080600060808688031215612ffc578283fd5b8535613007816136d0565b94506020860135613017816136d0565b935060408601359250606086013567ffffffffffffffff811115613039578182fd5b61304588828901612eb2565b969995985093965092949392505050565b60008060008060008060a0878903121561306e578384fd5b8635613079816136d0565b95506020870135613089816136d0565b94506040870135935060608701359250608087013567ffffffffffffffff8111156130b2578283fd5b6130be89828a01612eb2565b979a9699509497509295939492505050565b60008060008060008060c087890312156130e8578384fd5b863567ffffffffffffffff808211156130ff578586fd5b61310b8a838b01612c42565b97506020890135915080821115613120578586fd5b61312c8a838b01612e3d565b96506040890135915080821115613141578586fd5b61314d8a838b01612d87565b95506060890135915080821115613162578384fd5b61316e8a838b01612cba565b94506080890135915080821115613183578384fd5b61318f8a838b01612cba565b935060a08901359150808211156131a4578283fd5b506131b189828a01612d1e565b9150509295509295509295565b6000806000606084860312156131d2578081fd5b833567ffffffffffffffff808211156131e9578283fd5b6131f587838801612c42565b9450602086013591508082111561320a578283fd5b61321687838801612e3d565b9350604086013591508082111561322b578283fd5b5061323886828701612e3d565b9150509250925092565b60008060008060808587031215613257578182fd5b843567ffffffffffffffff8082111561326e578384fd5b61327a88838901612c42565b9550602087013591508082111561328f578384fd5b61329b88838901612e3d565b945060408701359150808211156132b0578384fd5b6132bc88838901612e3d565b935060608701359150808211156132d1578283fd5b506132de87828801612d87565b91505092959194509250565b6000602082840312156132fb578081fd5b81518015158114612ada578182fd5b60006020828403121561331b578081fd5b612ada82612e9a565b600060208284031215613335578081fd5b5035919050565b60006020828403121561334d578081fd5b5051919050565b60609390931b6bffffffffffffffffffffffff191683526014830191909152603482015260540190565b6000825161339081846020870161365d565b9190910192915050565b60006020825282518060208401526133b981604085016020870161365d565b601f01601f19169190910160400192915050565b6020808252601f908201527f5265656e7472616e637947756172643a207265656e7472616e742063616c6c00604082015260600190565b86815261ffff861660208201526001600160e01b0319858116604083015284166060820152821515608082015260c081016006831061345357634e487b7160e01b600052602160045260246000fd5b8260a0830152979650505050505050565b604051601f8201601f1916810167ffffffffffffffff8111828210171561348d5761348d6136ba565b604052919050565b600067ffffffffffffffff8211156134af576134af6136ba565b5060051b60200190565b600082198211156134cc576134cc6136a4565b500190565b6000826134ec57634e487b7160e01b81526012600452602481fd5b500490565b80825b6001808611613503575061352e565b818704821115613515576135156136a4565b8086161561352257918102915b9490941c9380026134f4565b94509492505050565b6000612ada600019848460008261355057506001612ada565b8161355d57506000612ada565b8160018114613573576002811461357d576135aa565b6001915050612ada565b60ff84111561358e5761358e6136a4565b6001841b9150848211156135a4576135a46136a4565b50612ada565b5060208310610133831016604e8410600b84101617156135dd575081810a838111156135d8576135d86136a4565b612ada565b6135ea84848460016134f1565b8086048211156135fc576135fc6136a4565b02949350505050565b600062ffffff808316818516818304811182151516156135fc576135fc6136a4565b6000816000190483118215151615613641576136416136a4565b500290565b600082821015613658576136586136a4565b500390565b60005b83811015613678578181015183820152602001613660565b838111156124f35750506000910152565b600060001982141561369d5761369d6136a4565b5060010190565b634e487b7160e01b600052601160045260246000fd5b634e487b7160e01b600052604160045260246000fd5b6001600160a01b0381168114611c6157600080fdfea26469706673582212208c4df450f51114768b48e466bb253db51654d2d9b085dcf4c5b24c730c23016464736f6c63430008030033",
  "devdoc": {
    "kind": "dev",
    "methods": {
      "claimCollateral(address[],uint256[],uint256[])": {
        "details": "claim collateral on rentals that are past their due date"
      },
      "lend(address[],uint256[],uint16[],bytes4[],bytes4[],uint8[])": {
        "details": "lend will send your NFT to ReNft contract, it acts as an escrow contract between the lender and the renter"
      },
      "returnIt(address[],uint256[],uint256[])": {
        "details": "renters call this to return the rented NFT before the deadline. If they fail to do so, they will lose the posted collateral"
      },
      "stopLending(address[],uint256[],uint256[])": {
        "details": "stop lending releases the NFT from our escrow and sends it back to you"
      },
      "supportsInterface(bytes4)": {
        "details": "supports the following interfaces: IERC721Receiver, IERC1155Receiver"
      }
    },
    "version": 1
  },
  "userdoc": {
    "kind": "user",
    "methods": {
      "rent(address[],uint256[],uint256[],uint16[])": {
        "notice": "domain:  any set of non-repeating NFTs (if repeating, you will incur unnecessary cost)  any set of sorted in ascending order, respective tokenIds"
      }
    },
    "version": 1
  },
  "storageLayout": {
    "storage": [
      {
        "astId": 10,
        "contract": "src/ReNFT.sol:ReNFT",
        "label": "_status",
        "offset": 0,
        "slot": "0",
        "type": "t_uint256"
      },
      {
        "astId": 3643,
        "contract": "src/ReNFT.sol:ReNFT",
        "label": "resolver",
        "offset": 0,
        "slot": "1",
        "type": "t_contract(IResolver)5866"
      },
      {
        "astId": 3645,
        "contract": "src/ReNFT.sol:ReNFT",
        "label": "admin",
        "offset": 0,
        "slot": "2",
        "type": "t_address"
      },
      {
        "astId": 3647,
        "contract": "src/ReNFT.sol:ReNFT",
        "label": "beneficiary",
        "offset": 0,
        "slot": "3",
        "type": "t_address_payable"
      },
      {
        "astId": 3650,
        "contract": "src/ReNFT.sol:ReNFT",
        "label": "lendingId",
        "offset": 0,
        "slot": "4",
        "type": "t_uint256"
      },
      {
        "astId": 3653,
        "contract": "src/ReNFT.sol:ReNFT",
        "label": "rentFee",
        "offset": 0,
        "slot": "5",
        "type": "t_uint256"
      },
      {
        "astId": 3695,
        "contract": "src/ReNFT.sol:ReNFT",
        "label": "lendingRenting",
        "offset": 0,
        "slot": "6",
        "type": "t_mapping(t_bytes32,t_struct(LendingRenting)3690_storage)"
      }
    ],
    "types": {
      "t_address": {
        "encoding": "inplace",
        "label": "address",
        "numberOfBytes": "20"
      },
      "t_address_payable": {
        "encoding": "inplace",
        "label": "address payable",
        "numberOfBytes": "20"
      },
      "t_bytes32": {
        "encoding": "inplace",
        "label": "bytes32",
        "numberOfBytes": "32"
      },
      "t_bytes4": {
        "encoding": "inplace",
        "label": "bytes4",
        "numberOfBytes": "4"
      },
      "t_contract(IResolver)5866": {
        "encoding": "inplace",
        "label": "contract IResolver",
        "numberOfBytes": "20"
      },
      "t_enum(PaymentToken)5849": {
        "encoding": "inplace",
        "label": "enum IResolver.PaymentToken",
        "numberOfBytes": "1"
      },
      "t_mapping(t_bytes32,t_struct(LendingRenting)3690_storage)": {
        "encoding": "mapping",
        "key": "t_bytes32",
        "label": "mapping(bytes32 => struct ReNFT.LendingRenting)",
        "numberOfBytes": "32",
        "value": "t_struct(LendingRenting)3690_storage"
      },
      "t_struct(Lending)3676_storage": {
        "encoding": "inplace",
        "label": "struct ReNFT.Lending",
        "members": [
          {
            "astId": 3666,
            "contract": "src/ReNFT.sol:ReNFT",
            "label": "lenderAddress",
            "offset": 0,
            "slot": "0",
            "type": "t_address_payable"
          },
          {
            "astId": 3668,
            "contract": "src/ReNFT.sol:ReNFT",
            "label": "maxRentDuration",
            "offset": 20,
            "slot": "0",
            "type": "t_uint16"
          },
          {
            "astId": 3670,
            "contract": "src/ReNFT.sol:ReNFT",
            "label": "dailyRentPrice",
            "offset": 22,
            "slot": "0",
            "type": "t_bytes4"
          },
          {
            "astId": 3672,
            "contract": "src/ReNFT.sol:ReNFT",
            "label": "nftPrice",
            "offset": 26,
            "slot": "0",
            "type": "t_bytes4"
          },
          {
            "astId": 3675,
            "contract": "src/ReNFT.sol:ReNFT",
            "label": "paymentToken",
            "offset": 30,
            "slot": "0",
            "type": "t_enum(PaymentToken)5849"
          }
        ],
        "numberOfBytes": "32"
      },
      "t_struct(LendingRenting)3690_storage": {
        "encoding": "inplace",
        "label": "struct ReNFT.LendingRenting",
        "members": [
          {
            "astId": 3686,
            "contract": "src/ReNFT.sol:ReNFT",
            "label": "lending",
            "offset": 0,
            "slot": "0",
            "type": "t_struct(Lending)3676_storage"
          },
          {
            "astId": 3689,
            "contract": "src/ReNFT.sol:ReNFT",
            "label": "renting",
            "offset": 0,
            "slot": "1",
            "type": "t_struct(Renting)3683_storage"
          }
        ],
        "numberOfBytes": "64"
      },
      "t_struct(Renting)3683_storage": {
        "encoding": "inplace",
        "label": "struct ReNFT.Renting",
        "members": [
          {
            "astId": 3678,
            "contract": "src/ReNFT.sol:ReNFT",
            "label": "renterAddress",
            "offset": 0,
            "slot": "0",
            "type": "t_address_payable"
          },
          {
            "astId": 3680,
            "contract": "src/ReNFT.sol:ReNFT",
            "label": "rentDuration",
            "offset": 20,
            "slot": "0",
            "type": "t_uint16"
          },
          {
            "astId": 3682,
            "contract": "src/ReNFT.sol:ReNFT",
            "label": "rentedAt",
            "offset": 22,
            "slot": "0",
            "type": "t_uint32"
          }
        ],
        "numberOfBytes": "32"
      },
      "t_uint16": {
        "encoding": "inplace",
        "label": "uint16",
        "numberOfBytes": "2"
      },
      "t_uint256": {
        "encoding": "inplace",
        "label": "uint256",
        "numberOfBytes": "32"
      },
      "t_uint32": {
        "encoding": "inplace",
        "label": "uint32",
        "numberOfBytes": "4"
      }
    }
  }
}